{
	"contracts/SendMoney.sol": {
		"SendMoney": {
			"abi": [
				{
					"inputs": [],
					"name": "amount",
					"outputs": [
						{
							"internalType": "uint256",
							"name": "",
							"type": "uint256"
						}
					],
					"stateMutability": "view",
					"type": "function"
				},
				{
					"inputs": [
						{
							"internalType": "address",
							"name": "_receiver",
							"type": "address"
						}
					],
					"name": "getReceiverAmount",
					"outputs": [
						{
							"internalType": "uint256",
							"name": "",
							"type": "uint256"
						}
					],
					"stateMutability": "view",
					"type": "function"
				},
				{
					"inputs": [
						{
							"internalType": "address",
							"name": "_sender",
							"type": "address"
						}
					],
					"name": "getSenderAmount",
					"outputs": [
						{
							"internalType": "uint256",
							"name": "",
							"type": "uint256"
						}
					],
					"stateMutability": "view",
					"type": "function"
				},
				{
					"inputs": [
						{
							"internalType": "address",
							"name": "_receiver",
							"type": "address"
						},
						{
							"internalType": "uint256",
							"name": "_amount",
							"type": "uint256"
						}
					],
					"name": "sendAmount",
					"outputs": [],
					"stateMutability": "payable",
					"type": "function"
				}
			],
			"devdoc": {
				"kind": "dev",
				"methods": {},
				"version": 1
			},
			"evm": {
				"assembly": "    /* \"contracts/SendMoney.sol\":134:723  contract SendMoney\r... */\n  mstore(0x40, 0x80)\n    /* \"contracts/SendMoney.sol\":184:185  0 */\n  0x00\n    /* \"contracts/SendMoney.sol\":163:185  uint public amount = 0 */\n  dup1\n  sstore\n    /* \"contracts/SendMoney.sol\":134:723  contract SendMoney\r... */\n  callvalue\n  dup1\n  iszero\n  tag_1\n  jumpi\n  0x00\n  dup1\n  revert\ntag_1:\n  pop\n  dataSize(sub_0)\n  dup1\n  dataOffset(sub_0)\n  0x00\n  codecopy\n  0x00\n  return\nstop\n\nsub_0: assembly {\n        /* \"contracts/SendMoney.sol\":134:723  contract SendMoney\r... */\n      mstore(0x40, 0x80)\n      jumpi(tag_1, lt(calldatasize, 0x04))\n      shr(0xe0, calldataload(0x00))\n      dup1\n      0x012a2c43\n      eq\n      tag_2\n      jumpi\n      dup1\n      0x4128f39f\n      eq\n      tag_3\n      jumpi\n      dup1\n      0x5d461de5\n      eq\n      tag_4\n      jumpi\n      dup1\n      0xaa8c217c\n      eq\n      tag_5\n      jumpi\n    tag_1:\n      0x00\n      dup1\n      revert\n        /* \"contracts/SendMoney.sol\":514:624  function getReceiverAmount(address _receiver) public view returns(uint)\r... */\n    tag_2:\n      callvalue\n      dup1\n      iszero\n      tag_6\n      jumpi\n      0x00\n      dup1\n      revert\n    tag_6:\n      pop\n      tag_7\n      0x04\n      dup1\n      calldatasize\n      sub\n      dup2\n      add\n      swap1\n      tag_8\n      swap2\n      swap1\n      tag_9\n      jump\t// in\n    tag_8:\n      tag_10\n      jump\t// in\n    tag_7:\n      mload(0x40)\n      tag_11\n      swap2\n      swap1\n      tag_12\n      jump\t// in\n    tag_11:\n      mload(0x40)\n      dup1\n      swap2\n      sub\n      swap1\n      return\n        /* \"contracts/SendMoney.sol\":404:508  function getSenderAmount(address _sender) public view returns(uint)\r... */\n    tag_3:\n      callvalue\n      dup1\n      iszero\n      tag_13\n      jumpi\n      0x00\n      dup1\n      revert\n    tag_13:\n      pop\n      tag_14\n      0x04\n      dup1\n      calldatasize\n      sub\n      dup2\n      add\n      swap1\n      tag_15\n      swap2\n      swap1\n      tag_9\n      jump\t// in\n    tag_15:\n      tag_16\n      jump\t// in\n    tag_14:\n      mload(0x40)\n      tag_17\n      swap2\n      swap1\n      tag_12\n      jump\t// in\n    tag_17:\n      mload(0x40)\n      dup1\n      swap2\n      sub\n      swap1\n      return\n        /* \"contracts/SendMoney.sol\":270:400  function sendAmount(address _receiver, uint _amount) public  payable\r... */\n    tag_4:\n      tag_18\n      0x04\n      dup1\n      calldatasize\n      sub\n      dup2\n      add\n      swap1\n      tag_19\n      swap2\n      swap1\n      tag_20\n      jump\t// in\n    tag_19:\n      tag_21\n      jump\t// in\n    tag_18:\n      stop\n        /* \"contracts/SendMoney.sol\":163:185  uint public amount = 0 */\n    tag_5:\n      callvalue\n      dup1\n      iszero\n      tag_22\n      jumpi\n      0x00\n      dup1\n      revert\n    tag_22:\n      pop\n      tag_23\n      tag_24\n      jump\t// in\n    tag_23:\n      mload(0x40)\n      tag_25\n      swap2\n      swap1\n      tag_12\n      jump\t// in\n    tag_25:\n      mload(0x40)\n      dup1\n      swap2\n      sub\n      swap1\n      return\n        /* \"contracts/SendMoney.sol\":514:624  function getReceiverAmount(address _receiver) public view returns(uint)\r... */\n    tag_10:\n        /* \"contracts/SendMoney.sol\":580:584  uint */\n      0x00\n        /* \"contracts/SendMoney.sol\":602:611  _receiver */\n      dup2\n        /* \"contracts/SendMoney.sol\":601:620  (_receiver).balance */\n      0xffffffffffffffffffffffffffffffffffffffff\n      and\n      balance\n        /* \"contracts/SendMoney.sol\":594:620  return (_receiver).balance */\n      swap1\n      pop\n        /* \"contracts/SendMoney.sol\":514:624  function getReceiverAmount(address _receiver) public view returns(uint)\r... */\n      swap2\n      swap1\n      pop\n      jump\t// out\n        /* \"contracts/SendMoney.sol\":404:508  function getSenderAmount(address _sender) public view returns(uint)\r... */\n    tag_16:\n        /* \"contracts/SendMoney.sol\":466:470  uint */\n      0x00\n        /* \"contracts/SendMoney.sol\":488:495  _sender */\n      dup2\n        /* \"contracts/SendMoney.sol\":487:504  (_sender).balance */\n      0xffffffffffffffffffffffffffffffffffffffff\n      and\n      balance\n        /* \"contracts/SendMoney.sol\":480:504  return (_sender).balance */\n      swap1\n      pop\n        /* \"contracts/SendMoney.sol\":404:508  function getSenderAmount(address _sender) public view returns(uint)\r... */\n      swap2\n      swap1\n      pop\n      jump\t// out\n        /* \"contracts/SendMoney.sol\":270:400  function sendAmount(address _receiver, uint _amount) public  payable\r... */\n    tag_21:\n        /* \"contracts/SendMoney.sol\":356:365  _receiver */\n      dup2\n        /* \"contracts/SendMoney.sol\":348:375  payable(_receiver).transfer */\n      0xffffffffffffffffffffffffffffffffffffffff\n      and\n        /* \"contracts/SendMoney.sol\":348:396  payable(_receiver).transfer(_amount * (1 ether)) */\n      0x08fc\n        /* \"contracts/SendMoney.sol\":387:394  1 ether */\n      0x0de0b6b3a7640000\n        /* \"contracts/SendMoney.sol\":376:383  _amount */\n      dup4\n        /* \"contracts/SendMoney.sol\":376:395  _amount * (1 ether) */\n      tag_29\n      swap2\n      swap1\n      tag_30\n      jump\t// in\n    tag_29:\n        /* \"contracts/SendMoney.sol\":348:396  payable(_receiver).transfer(_amount * (1 ether)) */\n      swap1\n      dup2\n      iszero\n      mul\n      swap1\n      mload(0x40)\n      0x00\n      mload(0x40)\n      dup1\n      dup4\n      sub\n      dup2\n      dup6\n      dup9\n      dup9\n      call\n      swap4\n      pop\n      pop\n      pop\n      pop\n      iszero\n      dup1\n      iszero\n      tag_32\n      jumpi\n      returndatasize\n      0x00\n      dup1\n      returndatacopy\n      revert(0x00, returndatasize)\n    tag_32:\n      pop\n        /* \"contracts/SendMoney.sol\":270:400  function sendAmount(address _receiver, uint _amount) public  payable\r... */\n      pop\n      pop\n      jump\t// out\n        /* \"contracts/SendMoney.sol\":163:185  uint public amount = 0 */\n    tag_24:\n      sload(0x00)\n      dup2\n      jump\t// out\n        /* \"#utility.yul\":7:146   */\n    tag_34:\n        /* \"#utility.yul\":53:58   */\n      0x00\n        /* \"#utility.yul\":91:97   */\n      dup2\n        /* \"#utility.yul\":78:98   */\n      calldataload\n        /* \"#utility.yul\":69:98   */\n      swap1\n      pop\n        /* \"#utility.yul\":107:140   */\n      tag_36\n        /* \"#utility.yul\":134:139   */\n      dup2\n        /* \"#utility.yul\":107:140   */\n      tag_37\n      jump\t// in\n    tag_36:\n        /* \"#utility.yul\":7:146   */\n      swap3\n      swap2\n      pop\n      pop\n      jump\t// out\n        /* \"#utility.yul\":152:291   */\n    tag_38:\n        /* \"#utility.yul\":198:203   */\n      0x00\n        /* \"#utility.yul\":236:242   */\n      dup2\n        /* \"#utility.yul\":223:243   */\n      calldataload\n        /* \"#utility.yul\":214:243   */\n      swap1\n      pop\n        /* \"#utility.yul\":252:285   */\n      tag_40\n        /* \"#utility.yul\":279:284   */\n      dup2\n        /* \"#utility.yul\":252:285   */\n      tag_41\n      jump\t// in\n    tag_40:\n        /* \"#utility.yul\":152:291   */\n      swap3\n      swap2\n      pop\n      pop\n      jump\t// out\n        /* \"#utility.yul\":297:626   */\n    tag_9:\n        /* \"#utility.yul\":356:362   */\n      0x00\n        /* \"#utility.yul\":405:407   */\n      0x20\n        /* \"#utility.yul\":393:402   */\n      dup3\n        /* \"#utility.yul\":384:391   */\n      dup5\n        /* \"#utility.yul\":380:403   */\n      sub\n        /* \"#utility.yul\":376:408   */\n      slt\n        /* \"#utility.yul\":373:492   */\n      iszero\n      tag_43\n      jumpi\n        /* \"#utility.yul\":411:490   */\n      tag_44\n      tag_45\n      jump\t// in\n    tag_44:\n        /* \"#utility.yul\":373:492   */\n    tag_43:\n        /* \"#utility.yul\":531:532   */\n      0x00\n        /* \"#utility.yul\":556:609   */\n      tag_46\n        /* \"#utility.yul\":601:608   */\n      dup5\n        /* \"#utility.yul\":592:598   */\n      dup3\n        /* \"#utility.yul\":581:590   */\n      dup6\n        /* \"#utility.yul\":577:599   */\n      add\n        /* \"#utility.yul\":556:609   */\n      tag_34\n      jump\t// in\n    tag_46:\n        /* \"#utility.yul\":546:609   */\n      swap2\n      pop\n        /* \"#utility.yul\":502:619   */\n      pop\n        /* \"#utility.yul\":297:626   */\n      swap3\n      swap2\n      pop\n      pop\n      jump\t// out\n        /* \"#utility.yul\":632:1106   */\n    tag_20:\n        /* \"#utility.yul\":700:706   */\n      0x00\n        /* \"#utility.yul\":708:714   */\n      dup1\n        /* \"#utility.yul\":757:759   */\n      0x40\n        /* \"#utility.yul\":745:754   */\n      dup4\n        /* \"#utility.yul\":736:743   */\n      dup6\n        /* \"#utility.yul\":732:755   */\n      sub\n        /* \"#utility.yul\":728:760   */\n      slt\n        /* \"#utility.yul\":725:844   */\n      iszero\n      tag_48\n      jumpi\n        /* \"#utility.yul\":763:842   */\n      tag_49\n      tag_45\n      jump\t// in\n    tag_49:\n        /* \"#utility.yul\":725:844   */\n    tag_48:\n        /* \"#utility.yul\":883:884   */\n      0x00\n        /* \"#utility.yul\":908:961   */\n      tag_50\n        /* \"#utility.yul\":953:960   */\n      dup6\n        /* \"#utility.yul\":944:950   */\n      dup3\n        /* \"#utility.yul\":933:942   */\n      dup7\n        /* \"#utility.yul\":929:951   */\n      add\n        /* \"#utility.yul\":908:961   */\n      tag_34\n      jump\t// in\n    tag_50:\n        /* \"#utility.yul\":898:961   */\n      swap3\n      pop\n        /* \"#utility.yul\":854:971   */\n      pop\n        /* \"#utility.yul\":1010:1012   */\n      0x20\n        /* \"#utility.yul\":1036:1089   */\n      tag_51\n        /* \"#utility.yul\":1081:1088   */\n      dup6\n        /* \"#utility.yul\":1072:1078   */\n      dup3\n        /* \"#utility.yul\":1061:1070   */\n      dup7\n        /* \"#utility.yul\":1057:1079   */\n      add\n        /* \"#utility.yul\":1036:1089   */\n      tag_38\n      jump\t// in\n    tag_51:\n        /* \"#utility.yul\":1026:1089   */\n      swap2\n      pop\n        /* \"#utility.yul\":981:1099   */\n      pop\n        /* \"#utility.yul\":632:1106   */\n      swap3\n      pop\n      swap3\n      swap1\n      pop\n      jump\t// out\n        /* \"#utility.yul\":1112:1230   */\n    tag_52:\n        /* \"#utility.yul\":1199:1223   */\n      tag_54\n        /* \"#utility.yul\":1217:1222   */\n      dup2\n        /* \"#utility.yul\":1199:1223   */\n      tag_55\n      jump\t// in\n    tag_54:\n        /* \"#utility.yul\":1194:1197   */\n      dup3\n        /* \"#utility.yul\":1187:1224   */\n      mstore\n        /* \"#utility.yul\":1112:1230   */\n      pop\n      pop\n      jump\t// out\n        /* \"#utility.yul\":1236:1458   */\n    tag_12:\n        /* \"#utility.yul\":1329:1333   */\n      0x00\n        /* \"#utility.yul\":1367:1369   */\n      0x20\n        /* \"#utility.yul\":1356:1365   */\n      dup3\n        /* \"#utility.yul\":1352:1370   */\n      add\n        /* \"#utility.yul\":1344:1370   */\n      swap1\n      pop\n        /* \"#utility.yul\":1380:1451   */\n      tag_57\n        /* \"#utility.yul\":1448:1449   */\n      0x00\n        /* \"#utility.yul\":1437:1446   */\n      dup4\n        /* \"#utility.yul\":1433:1450   */\n      add\n        /* \"#utility.yul\":1424:1430   */\n      dup5\n        /* \"#utility.yul\":1380:1451   */\n      tag_52\n      jump\t// in\n    tag_57:\n        /* \"#utility.yul\":1236:1458   */\n      swap3\n      swap2\n      pop\n      pop\n      jump\t// out\n        /* \"#utility.yul\":1545:1893   */\n    tag_30:\n        /* \"#utility.yul\":1585:1592   */\n      0x00\n        /* \"#utility.yul\":1608:1628   */\n      tag_61\n        /* \"#utility.yul\":1626:1627   */\n      dup3\n        /* \"#utility.yul\":1608:1628   */\n      tag_55\n      jump\t// in\n    tag_61:\n        /* \"#utility.yul\":1603:1628   */\n      swap2\n      pop\n        /* \"#utility.yul\":1642:1662   */\n      tag_62\n        /* \"#utility.yul\":1660:1661   */\n      dup4\n        /* \"#utility.yul\":1642:1662   */\n      tag_55\n      jump\t// in\n    tag_62:\n        /* \"#utility.yul\":1637:1662   */\n      swap3\n      pop\n        /* \"#utility.yul\":1830:1831   */\n      dup2\n        /* \"#utility.yul\":1762:1828   */\n      0xffffffffffffffffffffffffffffffffffffffffffffffffffffffffffffffff\n        /* \"#utility.yul\":1758:1832   */\n      div\n        /* \"#utility.yul\":1755:1756   */\n      dup4\n        /* \"#utility.yul\":1752:1833   */\n      gt\n        /* \"#utility.yul\":1747:1748   */\n      dup3\n        /* \"#utility.yul\":1740:1749   */\n      iszero\n        /* \"#utility.yul\":1733:1750   */\n      iszero\n        /* \"#utility.yul\":1729:1834   */\n      and\n        /* \"#utility.yul\":1726:1857   */\n      iszero\n      tag_63\n      jumpi\n        /* \"#utility.yul\":1837:1855   */\n      tag_64\n      tag_65\n      jump\t// in\n    tag_64:\n        /* \"#utility.yul\":1726:1857   */\n    tag_63:\n        /* \"#utility.yul\":1885:1886   */\n      dup3\n        /* \"#utility.yul\":1882:1883   */\n      dup3\n        /* \"#utility.yul\":1878:1887   */\n      mul\n        /* \"#utility.yul\":1867:1887   */\n      swap1\n      pop\n        /* \"#utility.yul\":1545:1893   */\n      swap3\n      swap2\n      pop\n      pop\n      jump\t// out\n        /* \"#utility.yul\":1899:1995   */\n    tag_66:\n        /* \"#utility.yul\":1936:1943   */\n      0x00\n        /* \"#utility.yul\":1965:1989   */\n      tag_68\n        /* \"#utility.yul\":1983:1988   */\n      dup3\n        /* \"#utility.yul\":1965:1989   */\n      tag_69\n      jump\t// in\n    tag_68:\n        /* \"#utility.yul\":1954:1989   */\n      swap1\n      pop\n        /* \"#utility.yul\":1899:1995   */\n      swap2\n      swap1\n      pop\n      jump\t// out\n        /* \"#utility.yul\":2001:2127   */\n    tag_69:\n        /* \"#utility.yul\":2038:2045   */\n      0x00\n        /* \"#utility.yul\":2078:2120   */\n      0xffffffffffffffffffffffffffffffffffffffff\n        /* \"#utility.yul\":2071:2076   */\n      dup3\n        /* \"#utility.yul\":2067:2121   */\n      and\n        /* \"#utility.yul\":2056:2121   */\n      swap1\n      pop\n        /* \"#utility.yul\":2001:2127   */\n      swap2\n      swap1\n      pop\n      jump\t// out\n        /* \"#utility.yul\":2133:2210   */\n    tag_55:\n        /* \"#utility.yul\":2170:2177   */\n      0x00\n        /* \"#utility.yul\":2199:2204   */\n      dup2\n        /* \"#utility.yul\":2188:2204   */\n      swap1\n      pop\n        /* \"#utility.yul\":2133:2210   */\n      swap2\n      swap1\n      pop\n      jump\t// out\n        /* \"#utility.yul\":2216:2396   */\n    tag_65:\n        /* \"#utility.yul\":2264:2341   */\n      0x4e487b7100000000000000000000000000000000000000000000000000000000\n        /* \"#utility.yul\":2261:2262   */\n      0x00\n        /* \"#utility.yul\":2254:2342   */\n      mstore\n        /* \"#utility.yul\":2361:2365   */\n      0x11\n        /* \"#utility.yul\":2358:2359   */\n      0x04\n        /* \"#utility.yul\":2351:2366   */\n      mstore\n        /* \"#utility.yul\":2385:2389   */\n      0x24\n        /* \"#utility.yul\":2382:2383   */\n      0x00\n        /* \"#utility.yul\":2375:2390   */\n      revert\n        /* \"#utility.yul\":2525:2642   */\n    tag_45:\n        /* \"#utility.yul\":2634:2635   */\n      0x00\n        /* \"#utility.yul\":2631:2632   */\n      dup1\n        /* \"#utility.yul\":2624:2636   */\n      revert\n        /* \"#utility.yul\":2648:2770   */\n    tag_37:\n        /* \"#utility.yul\":2721:2745   */\n      tag_77\n        /* \"#utility.yul\":2739:2744   */\n      dup2\n        /* \"#utility.yul\":2721:2745   */\n      tag_66\n      jump\t// in\n    tag_77:\n        /* \"#utility.yul\":2714:2719   */\n      dup2\n        /* \"#utility.yul\":2711:2746   */\n      eq\n        /* \"#utility.yul\":2701:2764   */\n      tag_78\n      jumpi\n        /* \"#utility.yul\":2760:2761   */\n      0x00\n        /* \"#utility.yul\":2757:2758   */\n      dup1\n        /* \"#utility.yul\":2750:2762   */\n      revert\n        /* \"#utility.yul\":2701:2764   */\n    tag_78:\n        /* \"#utility.yul\":2648:2770   */\n      pop\n      jump\t// out\n        /* \"#utility.yul\":2776:2898   */\n    tag_41:\n        /* \"#utility.yul\":2849:2873   */\n      tag_80\n        /* \"#utility.yul\":2867:2872   */\n      dup2\n        /* \"#utility.yul\":2849:2873   */\n      tag_55\n      jump\t// in\n    tag_80:\n        /* \"#utility.yul\":2842:2847   */\n      dup2\n        /* \"#utility.yul\":2839:2874   */\n      eq\n        /* \"#utility.yul\":2829:2892   */\n      tag_81\n      jumpi\n        /* \"#utility.yul\":2888:2889   */\n      0x00\n        /* \"#utility.yul\":2885:2886   */\n      dup1\n        /* \"#utility.yul\":2878:2890   */\n      revert\n        /* \"#utility.yul\":2829:2892   */\n    tag_81:\n        /* \"#utility.yul\":2776:2898   */\n      pop\n      jump\t// out\n\n    auxdata: 0xa2646970667358221220cf9122e03a4416e60186876d93d81d59ffa9c4c811701849e2168f7a89bccf4e64736f6c63430008070033\n}\n",
				"bytecode": {
					"linkReferences": {},
					"object": "60806040526000805534801561001457600080fd5b5061039a806100246000396000f3fe60806040526004361061003f5760003560e01c8063012a2c43146100445780634128f39f146100815780635d461de5146100be578063aa8c217c146100da575b600080fd5b34801561005057600080fd5b5061006b600480360381019061006691906101d5565b610105565b6040516100789190610251565b60405180910390f35b34801561008d57600080fd5b506100a860048036038101906100a391906101d5565b610126565b6040516100b59190610251565b60405180910390f35b6100d860048036038101906100d39190610202565b610147565b005b3480156100e657600080fd5b506100ef6101a5565b6040516100fc9190610251565b60405180910390f35b60008173ffffffffffffffffffffffffffffffffffffffff16319050919050565b60008173ffffffffffffffffffffffffffffffffffffffff16319050919050565b8173ffffffffffffffffffffffffffffffffffffffff166108fc670de0b6b3a764000083610175919061026c565b9081150290604051600060405180830381858888f193505050501580156101a0573d6000803e3d6000fd5b505050565b60005481565b6000813590506101ba81610336565b92915050565b6000813590506101cf8161034d565b92915050565b6000602082840312156101eb576101ea610331565b5b60006101f9848285016101ab565b91505092915050565b6000806040838503121561021957610218610331565b5b6000610227858286016101ab565b9250506020610238858286016101c0565b9150509250929050565b61024b816102f8565b82525050565b60006020820190506102666000830184610242565b92915050565b6000610277826102f8565b9150610282836102f8565b9250817fffffffffffffffffffffffffffffffffffffffffffffffffffffffffffffffff04831182151516156102bb576102ba610302565b5b828202905092915050565b60006102d1826102d8565b9050919050565b600073ffffffffffffffffffffffffffffffffffffffff82169050919050565b6000819050919050565b7f4e487b7100000000000000000000000000000000000000000000000000000000600052601160045260246000fd5b600080fd5b61033f816102c6565b811461034a57600080fd5b50565b610356816102f8565b811461036157600080fd5b5056fea2646970667358221220cf9122e03a4416e60186876d93d81d59ffa9c4c811701849e2168f7a89bccf4e64736f6c63430008070033",
					"opcodes": "PUSH1 0x80 PUSH1 0x40 MSTORE PUSH1 0x0 DUP1 SSTORE CALLVALUE DUP1 ISZERO PUSH2 0x14 JUMPI PUSH1 0x0 DUP1 REVERT JUMPDEST POP PUSH2 0x39A DUP1 PUSH2 0x24 PUSH1 0x0 CODECOPY PUSH1 0x0 RETURN INVALID PUSH1 0x80 PUSH1 0x40 MSTORE PUSH1 0x4 CALLDATASIZE LT PUSH2 0x3F JUMPI PUSH1 0x0 CALLDATALOAD PUSH1 0xE0 SHR DUP1 PUSH4 0x12A2C43 EQ PUSH2 0x44 JUMPI DUP1 PUSH4 0x4128F39F EQ PUSH2 0x81 JUMPI DUP1 PUSH4 0x5D461DE5 EQ PUSH2 0xBE JUMPI DUP1 PUSH4 0xAA8C217C EQ PUSH2 0xDA JUMPI JUMPDEST PUSH1 0x0 DUP1 REVERT JUMPDEST CALLVALUE DUP1 ISZERO PUSH2 0x50 JUMPI PUSH1 0x0 DUP1 REVERT JUMPDEST POP PUSH2 0x6B PUSH1 0x4 DUP1 CALLDATASIZE SUB DUP2 ADD SWAP1 PUSH2 0x66 SWAP2 SWAP1 PUSH2 0x1D5 JUMP JUMPDEST PUSH2 0x105 JUMP JUMPDEST PUSH1 0x40 MLOAD PUSH2 0x78 SWAP2 SWAP1 PUSH2 0x251 JUMP JUMPDEST PUSH1 0x40 MLOAD DUP1 SWAP2 SUB SWAP1 RETURN JUMPDEST CALLVALUE DUP1 ISZERO PUSH2 0x8D JUMPI PUSH1 0x0 DUP1 REVERT JUMPDEST POP PUSH2 0xA8 PUSH1 0x4 DUP1 CALLDATASIZE SUB DUP2 ADD SWAP1 PUSH2 0xA3 SWAP2 SWAP1 PUSH2 0x1D5 JUMP JUMPDEST PUSH2 0x126 JUMP JUMPDEST PUSH1 0x40 MLOAD PUSH2 0xB5 SWAP2 SWAP1 PUSH2 0x251 JUMP JUMPDEST PUSH1 0x40 MLOAD DUP1 SWAP2 SUB SWAP1 RETURN JUMPDEST PUSH2 0xD8 PUSH1 0x4 DUP1 CALLDATASIZE SUB DUP2 ADD SWAP1 PUSH2 0xD3 SWAP2 SWAP1 PUSH2 0x202 JUMP JUMPDEST PUSH2 0x147 JUMP JUMPDEST STOP JUMPDEST CALLVALUE DUP1 ISZERO PUSH2 0xE6 JUMPI PUSH1 0x0 DUP1 REVERT JUMPDEST POP PUSH2 0xEF PUSH2 0x1A5 JUMP JUMPDEST PUSH1 0x40 MLOAD PUSH2 0xFC SWAP2 SWAP1 PUSH2 0x251 JUMP JUMPDEST PUSH1 0x40 MLOAD DUP1 SWAP2 SUB SWAP1 RETURN JUMPDEST PUSH1 0x0 DUP2 PUSH20 0xFFFFFFFFFFFFFFFFFFFFFFFFFFFFFFFFFFFFFFFF AND BALANCE SWAP1 POP SWAP2 SWAP1 POP JUMP JUMPDEST PUSH1 0x0 DUP2 PUSH20 0xFFFFFFFFFFFFFFFFFFFFFFFFFFFFFFFFFFFFFFFF AND BALANCE SWAP1 POP SWAP2 SWAP1 POP JUMP JUMPDEST DUP2 PUSH20 0xFFFFFFFFFFFFFFFFFFFFFFFFFFFFFFFFFFFFFFFF AND PUSH2 0x8FC PUSH8 0xDE0B6B3A7640000 DUP4 PUSH2 0x175 SWAP2 SWAP1 PUSH2 0x26C JUMP JUMPDEST SWAP1 DUP2 ISZERO MUL SWAP1 PUSH1 0x40 MLOAD PUSH1 0x0 PUSH1 0x40 MLOAD DUP1 DUP4 SUB DUP2 DUP6 DUP9 DUP9 CALL SWAP4 POP POP POP POP ISZERO DUP1 ISZERO PUSH2 0x1A0 JUMPI RETURNDATASIZE PUSH1 0x0 DUP1 RETURNDATACOPY RETURNDATASIZE PUSH1 0x0 REVERT JUMPDEST POP POP POP JUMP JUMPDEST PUSH1 0x0 SLOAD DUP2 JUMP JUMPDEST PUSH1 0x0 DUP2 CALLDATALOAD SWAP1 POP PUSH2 0x1BA DUP2 PUSH2 0x336 JUMP JUMPDEST SWAP3 SWAP2 POP POP JUMP JUMPDEST PUSH1 0x0 DUP2 CALLDATALOAD SWAP1 POP PUSH2 0x1CF DUP2 PUSH2 0x34D JUMP JUMPDEST SWAP3 SWAP2 POP POP JUMP JUMPDEST PUSH1 0x0 PUSH1 0x20 DUP3 DUP5 SUB SLT ISZERO PUSH2 0x1EB JUMPI PUSH2 0x1EA PUSH2 0x331 JUMP JUMPDEST JUMPDEST PUSH1 0x0 PUSH2 0x1F9 DUP5 DUP3 DUP6 ADD PUSH2 0x1AB JUMP JUMPDEST SWAP2 POP POP SWAP3 SWAP2 POP POP JUMP JUMPDEST PUSH1 0x0 DUP1 PUSH1 0x40 DUP4 DUP6 SUB SLT ISZERO PUSH2 0x219 JUMPI PUSH2 0x218 PUSH2 0x331 JUMP JUMPDEST JUMPDEST PUSH1 0x0 PUSH2 0x227 DUP6 DUP3 DUP7 ADD PUSH2 0x1AB JUMP JUMPDEST SWAP3 POP POP PUSH1 0x20 PUSH2 0x238 DUP6 DUP3 DUP7 ADD PUSH2 0x1C0 JUMP JUMPDEST SWAP2 POP POP SWAP3 POP SWAP3 SWAP1 POP JUMP JUMPDEST PUSH2 0x24B DUP2 PUSH2 0x2F8 JUMP JUMPDEST DUP3 MSTORE POP POP JUMP JUMPDEST PUSH1 0x0 PUSH1 0x20 DUP3 ADD SWAP1 POP PUSH2 0x266 PUSH1 0x0 DUP4 ADD DUP5 PUSH2 0x242 JUMP JUMPDEST SWAP3 SWAP2 POP POP JUMP JUMPDEST PUSH1 0x0 PUSH2 0x277 DUP3 PUSH2 0x2F8 JUMP JUMPDEST SWAP2 POP PUSH2 0x282 DUP4 PUSH2 0x2F8 JUMP JUMPDEST SWAP3 POP DUP2 PUSH32 0xFFFFFFFFFFFFFFFFFFFFFFFFFFFFFFFFFFFFFFFFFFFFFFFFFFFFFFFFFFFFFFFF DIV DUP4 GT DUP3 ISZERO ISZERO AND ISZERO PUSH2 0x2BB JUMPI PUSH2 0x2BA PUSH2 0x302 JUMP JUMPDEST JUMPDEST DUP3 DUP3 MUL SWAP1 POP SWAP3 SWAP2 POP POP JUMP JUMPDEST PUSH1 0x0 PUSH2 0x2D1 DUP3 PUSH2 0x2D8 JUMP JUMPDEST SWAP1 POP SWAP2 SWAP1 POP JUMP JUMPDEST PUSH1 0x0 PUSH20 0xFFFFFFFFFFFFFFFFFFFFFFFFFFFFFFFFFFFFFFFF DUP3 AND SWAP1 POP SWAP2 SWAP1 POP JUMP JUMPDEST PUSH1 0x0 DUP2 SWAP1 POP SWAP2 SWAP1 POP JUMP JUMPDEST PUSH32 0x4E487B7100000000000000000000000000000000000000000000000000000000 PUSH1 0x0 MSTORE PUSH1 0x11 PUSH1 0x4 MSTORE PUSH1 0x24 PUSH1 0x0 REVERT JUMPDEST PUSH1 0x0 DUP1 REVERT JUMPDEST PUSH2 0x33F DUP2 PUSH2 0x2C6 JUMP JUMPDEST DUP2 EQ PUSH2 0x34A JUMPI PUSH1 0x0 DUP1 REVERT JUMPDEST POP JUMP JUMPDEST PUSH2 0x356 DUP2 PUSH2 0x2F8 JUMP JUMPDEST DUP2 EQ PUSH2 0x361 JUMPI PUSH1 0x0 DUP1 REVERT JUMPDEST POP JUMP INVALID LOG2 PUSH5 0x6970667358 0x22 SLT KECCAK256 0xCF SWAP2 0x22 0xE0 GASPRICE DIFFICULTY AND 0xE6 ADD DUP7 DUP8 PUSH14 0x93D81D59FFA9C4C811701849E216 DUP16 PUSH27 0x89BCCF4E64736F6C63430008070033000000000000000000000000 "
				},
				"gasEstimates": {
					"creation": {
						"codeDepositCost": "184400",
						"executionCost": "5232",
						"totalCost": "189632"
					},
					"external": {
						"amount()": "2473",
						"getReceiverAmount(address)": "3235",
						"getSenderAmount(address)": "3257",
						"sendAmount(address,uint256)": "infinite"
					}
				},
				"methodIdentifiers": {
					"amount()": "aa8c217c",
					"getReceiverAmount(address)": "012a2c43",
					"getSenderAmount(address)": "4128f39f",
					"sendAmount(address,uint256)": "5d461de5"
				}
			},
			"storageLayout": {
				"storage": [
					{
						"astId": 4,
						"contract": "contracts/SendMoney.sol:SendMoney",
						"label": "amount",
						"offset": 0,
						"slot": "0",
						"type": "t_uint256"
					}
				],
				"types": {
					"t_uint256": {
						"encoding": "inplace",
						"label": "uint256",
						"numberOfBytes": "32"
					}
				}
			},
			"userdoc": {
				"kind": "user",
				"methods": {},
				"version": 1
			}
		}
	}
}