{
	"data": {
		"bytecode": {
			"linkReferences": {},
			"object": "608060405260028054600160a060020a031916730fea34bce3448c9bde53e4250a09a93af4c2467317905534801561003657600080fd5b506101c8806100466000396000f30060806040526004361061006c5763ffffffff7c010000000000000000000000000000000000000000000000000000000060003504166312424e3f8114610071578063141a8dd81461008857806367e404ce146100b9578063f7260d3e146100ce578063f9609f08146100e3575b600080fd5b34801561007d57600080fd5b506100866100fd565b005b34801561009457600080fd5b5061009d610134565b60408051600160a060020a039092168252519081900360200190f35b3480156100c557600080fd5b5061009d610143565b3480156100da57600080fd5b5061009d610152565b610086600160a060020a0360043581169060243516610161565b60018054604051600160a060020a039091169160009182818181858883f19350505050158015610131573d6000803e3d6000fd5b50565b600254600160a060020a031681565b600054600160a060020a031681565b600154600160a060020a031681565b60008054600160a060020a0393841673ffffffffffffffffffffffffffffffffffffffff1991821617909155600180549290931691161790555600a165627a7a7230582003afe3f298ce5ee20bc078541d89d073aeac8cdd1cc9da68f49a80f1e03380120029",
			"opcodes": "PUSH1 0x80 PUSH1 0x40 MSTORE PUSH1 0x2 DUP1 SLOAD PUSH1 0x1 PUSH1 0xA0 PUSH1 0x2 EXP SUB NOT AND PUSH20 0xFEA34BCE3448C9BDE53E4250A09A93AF4C24673 OR SWAP1 SSTORE CALLVALUE DUP1 ISZERO PUSH2 0x36 JUMPI PUSH1 0x0 DUP1 REVERT JUMPDEST POP PUSH2 0x1C8 DUP1 PUSH2 0x46 PUSH1 0x0 CODECOPY PUSH1 0x0 RETURN STOP PUSH1 0x80 PUSH1 0x40 MSTORE PUSH1 0x4 CALLDATASIZE LT PUSH2 0x6C JUMPI PUSH4 0xFFFFFFFF PUSH29 0x100000000000000000000000000000000000000000000000000000000 PUSH1 0x0 CALLDATALOAD DIV AND PUSH4 0x12424E3F DUP2 EQ PUSH2 0x71 JUMPI DUP1 PUSH4 0x141A8DD8 EQ PUSH2 0x88 JUMPI DUP1 PUSH4 0x67E404CE EQ PUSH2 0xB9 JUMPI DUP1 PUSH4 0xF7260D3E EQ PUSH2 0xCE JUMPI DUP1 PUSH4 0xF9609F08 EQ PUSH2 0xE3 JUMPI JUMPDEST PUSH1 0x0 DUP1 REVERT JUMPDEST CALLVALUE DUP1 ISZERO PUSH2 0x7D JUMPI PUSH1 0x0 DUP1 REVERT JUMPDEST POP PUSH2 0x86 PUSH2 0xFD JUMP JUMPDEST STOP JUMPDEST CALLVALUE DUP1 ISZERO PUSH2 0x94 JUMPI PUSH1 0x0 DUP1 REVERT JUMPDEST POP PUSH2 0x9D PUSH2 0x134 JUMP JUMPDEST PUSH1 0x40 DUP1 MLOAD PUSH1 0x1 PUSH1 0xA0 PUSH1 0x2 EXP SUB SWAP1 SWAP3 AND DUP3 MSTORE MLOAD SWAP1 DUP2 SWAP1 SUB PUSH1 0x20 ADD SWAP1 RETURN JUMPDEST CALLVALUE DUP1 ISZERO PUSH2 0xC5 JUMPI PUSH1 0x0 DUP1 REVERT JUMPDEST POP PUSH2 0x9D PUSH2 0x143 JUMP JUMPDEST CALLVALUE DUP1 ISZERO PUSH2 0xDA JUMPI PUSH1 0x0 DUP1 REVERT JUMPDEST POP PUSH2 0x9D PUSH2 0x152 JUMP JUMPDEST PUSH2 0x86 PUSH1 0x1 PUSH1 0xA0 PUSH1 0x2 EXP SUB PUSH1 0x4 CALLDATALOAD DUP2 AND SWAP1 PUSH1 0x24 CALLDATALOAD AND PUSH2 0x161 JUMP JUMPDEST PUSH1 0x1 DUP1 SLOAD PUSH1 0x40 MLOAD PUSH1 0x1 PUSH1 0xA0 PUSH1 0x2 EXP SUB SWAP1 SWAP2 AND SWAP2 PUSH1 0x0 SWAP2 DUP3 DUP2 DUP2 DUP2 DUP6 DUP9 DUP4 CALL SWAP4 POP POP POP POP ISZERO DUP1 ISZERO PUSH2 0x131 JUMPI RETURNDATASIZE PUSH1 0x0 DUP1 RETURNDATACOPY RETURNDATASIZE PUSH1 0x0 REVERT JUMPDEST POP JUMP JUMPDEST PUSH1 0x2 SLOAD PUSH1 0x1 PUSH1 0xA0 PUSH1 0x2 EXP SUB AND DUP2 JUMP JUMPDEST PUSH1 0x0 SLOAD PUSH1 0x1 PUSH1 0xA0 PUSH1 0x2 EXP SUB AND DUP2 JUMP JUMPDEST PUSH1 0x1 SLOAD PUSH1 0x1 PUSH1 0xA0 PUSH1 0x2 EXP SUB AND DUP2 JUMP JUMPDEST PUSH1 0x0 DUP1 SLOAD PUSH1 0x1 PUSH1 0xA0 PUSH1 0x2 EXP SUB SWAP4 DUP5 AND PUSH20 0xFFFFFFFFFFFFFFFFFFFFFFFFFFFFFFFFFFFFFFFF NOT SWAP2 DUP3 AND OR SWAP1 SWAP2 SSTORE PUSH1 0x1 DUP1 SLOAD SWAP3 SWAP1 SWAP4 AND SWAP2 AND OR SWAP1 SSTORE JUMP STOP LOG1 PUSH6 0x627A7A723058 KECCAK256 SUB 0xaf 0xe3 CALLCODE SWAP9 0xce 0x5e 0xe2 SIGNEXTEND 0xc0 PUSH25 0x541D89D073AEAC8CDD1CC9DA68F49A80F1E033801200290000 "
		},
		"gasEstimates": {
			"creation": {
				"codeDepositCost": "91200",
				"executionCost": "20434",
				"totalCost": "111634"
			},
			"external": {
				"approve()": "infinite",
				"approver()": "559",
				"deposit(address,address)": "40831",
				"receiver()": "603",
				"sender()": "581"
			}
		},
		"methodIdentifiers": {
			"approve()": "12424e3f",
			"approver()": "141a8dd8",
			"deposit(address,address)": "f9609f08",
			"receiver()": "f7260d3e",
			"sender()": "67e404ce"
		}
	},
	"abi": [
		{
			"constant": false,
			"inputs": [],
			"name": "approve",
			"outputs": [],
			"payable": false,
			"stateMutability": "nonpayable",
			"type": "function"
		},
		{
			"constant": true,
			"inputs": [],
			"name": "approver",
			"outputs": [
				{
					"name": "",
					"type": "address"
				}
			],
			"payable": false,
			"stateMutability": "view",
			"type": "function"
		},
		{
			"constant": true,
			"inputs": [],
			"name": "sender",
			"outputs": [
				{
					"name": "",
					"type": "address"
				}
			],
			"payable": false,
			"stateMutability": "view",
			"type": "function"
		},
		{
			"constant": true,
			"inputs": [],
			"name": "receiver",
			"outputs": [
				{
					"name": "",
					"type": "address"
				}
			],
			"payable": false,
			"stateMutability": "view",
			"type": "function"
		},
		{
			"constant": false,
			"inputs": [
				{
					"name": "_sender",
					"type": "address"
				},
				{
					"name": "_receiver",
					"type": "address"
				}
			],
			"name": "deposit",
			"outputs": [],
			"payable": true,
			"stateMutability": "payable",
			"type": "function"
		}
	]
}