{
	"contracts/SendMoneyWithApproval.sol": {
		"SendMoneyWithApproval": {
			"abi": [
				{
					"payable": true,
					"stateMutability": "payable",
					"type": "fallback"
				},
				{
					"constant": true,
					"inputs": [],
					"name": "amount",
					"outputs": [
						{
							"internalType": "uint256",
							"name": "",
							"type": "uint256"
						}
					],
					"payable": false,
					"stateMutability": "view",
					"type": "function"
				},
				{
					"constant": false,
					"inputs": [],
					"name": "approve",
					"outputs": [
						{
							"internalType": "bool",
							"name": "",
							"type": "bool"
						}
					],
					"payable": true,
					"stateMutability": "payable",
					"type": "function"
				},
				{
					"constant": true,
					"inputs": [],
					"name": "approver",
					"outputs": [
						{
							"internalType": "address",
							"name": "",
							"type": "address"
						}
					],
					"payable": false,
					"stateMutability": "view",
					"type": "function"
				},
				{
					"constant": false,
					"inputs": [
						{
							"internalType": "address",
							"name": "_sender",
							"type": "address"
						},
						{
							"internalType": "address payable",
							"name": "_receiver",
							"type": "address"
						},
						{
							"internalType": "address",
							"name": "_approver",
							"type": "address"
						},
						{
							"internalType": "uint256",
							"name": "_amount",
							"type": "uint256"
						}
					],
					"name": "deposit",
					"outputs": [],
					"payable": true,
					"stateMutability": "payable",
					"type": "function"
				},
				{
					"constant": true,
					"inputs": [],
					"name": "getBalance",
					"outputs": [
						{
							"internalType": "uint256",
							"name": "",
							"type": "uint256"
						}
					],
					"payable": false,
					"stateMutability": "view",
					"type": "function"
				},
				{
					"constant": true,
					"inputs": [],
					"name": "receiver",
					"outputs": [
						{
							"internalType": "address payable",
							"name": "",
							"type": "address"
						}
					],
					"payable": false,
					"stateMutability": "view",
					"type": "function"
				},
				{
					"constant": true,
					"inputs": [],
					"name": "sender",
					"outputs": [
						{
							"internalType": "address",
							"name": "",
							"type": "address"
						}
					],
					"payable": false,
					"stateMutability": "view",
					"type": "function"
				},
				{
					"constant": true,
					"inputs": [],
					"name": "viewApprover",
					"outputs": [
						{
							"internalType": "address",
							"name": "",
							"type": "address"
						}
					],
					"payable": false,
					"stateMutability": "view",
					"type": "function"
				}
			],
			"devdoc": {
				"methods": {}
			},
			"evm": {
				"assembly": "    /* \"contracts/SendMoneyWithApproval.sol\":34:888  contract SendMoneyWithApproval\r... */\n  mstore(0x40, 0x80)\n  callvalue\n    /* \"--CODEGEN--\":8:17   */\n  dup1\n    /* \"--CODEGEN--\":5:7   */\n  iszero\n  tag_1\n  jumpi\n    /* \"--CODEGEN--\":30:31   */\n  0x00\n    /* \"--CODEGEN--\":27:28   */\n  dup1\n    /* \"--CODEGEN--\":20:32   */\n  revert\n    /* \"--CODEGEN--\":5:7   */\ntag_1:\n    /* \"contracts/SendMoneyWithApproval.sol\":34:888  contract SendMoneyWithApproval\r... */\n  pop\n  dataSize(sub_0)\n  dup1\n  dataOffset(sub_0)\n  0x00\n  codecopy\n  0x00\n  return\nstop\n\nsub_0: assembly {\n        /* \"contracts/SendMoneyWithApproval.sol\":34:888  contract SendMoneyWithApproval\r... */\n      mstore(0x40, 0x80)\n      jumpi(tag_1, lt(calldatasize, 0x04))\n      shr(0xe0, calldataload(0x00))\n      dup1\n      0x67e404ce\n      gt\n      tag_10\n      jumpi\n      dup1\n      0x67e404ce\n      eq\n      tag_6\n      jumpi\n      dup1\n      0xaa8c217c\n      eq\n      tag_7\n      jumpi\n      dup1\n      0xd93ce89c\n      eq\n      tag_8\n      jumpi\n      dup1\n      0xf7260d3e\n      eq\n      tag_9\n      jumpi\n      jump(tag_1)\n    tag_10:\n      dup1\n      0x0284c3f5\n      eq\n      tag_2\n      jumpi\n      dup1\n      0x12065fe0\n      eq\n      tag_3\n      jumpi\n      dup1\n      0x12424e3f\n      eq\n      tag_4\n      jumpi\n      dup1\n      0x141a8dd8\n      eq\n      tag_5\n      jumpi\n    tag_1:\n      stop\n        /* \"contracts/SendMoneyWithApproval.sol\":231:446  function deposit(address _sender, address payable _receiver, address _approver, uint _amount) public payable {\r... */\n    tag_2:\n      tag_1\n      0x04\n      dup1\n      calldatasize\n      sub\n        /* \"--CODEGEN--\":13:16   */\n      0x80\n        /* \"--CODEGEN--\":8:11   */\n      dup2\n        /* \"--CODEGEN--\":5:17   */\n      lt\n        /* \"--CODEGEN--\":2:4   */\n      iszero\n      tag_14\n      jumpi\n        /* \"--CODEGEN--\":30:31   */\n      0x00\n        /* \"--CODEGEN--\":27:28   */\n      dup1\n        /* \"--CODEGEN--\":20:32   */\n      revert\n        /* \"--CODEGEN--\":2:4   */\n    tag_14:\n      pop\n      sub(shl(0xa0, 0x01), 0x01)\n        /* \"contracts/SendMoneyWithApproval.sol\":231:446  function deposit(address _sender, address payable _receiver, address _approver, uint _amount) public payable {\r... */\n      dup2\n      calldataload\n      dup2\n      and\n      swap2\n      0x20\n      dup2\n      add\n      calldataload\n      dup3\n      and\n      swap2\n      0x40\n      dup3\n      add\n      calldataload\n      and\n      swap1\n      0x60\n      add\n      calldataload\n      tag_15\n      jump\t// in\n        /* \"contracts/SendMoneyWithApproval.sol\":450:563  function getBalance() public view returns(uint)\r... */\n    tag_3:\n      callvalue\n        /* \"--CODEGEN--\":8:17   */\n      dup1\n        /* \"--CODEGEN--\":5:7   */\n      iszero\n      tag_16\n      jumpi\n        /* \"--CODEGEN--\":30:31   */\n      0x00\n        /* \"--CODEGEN--\":27:28   */\n      dup1\n        /* \"--CODEGEN--\":20:32   */\n      revert\n        /* \"--CODEGEN--\":5:7   */\n    tag_16:\n        /* \"contracts/SendMoneyWithApproval.sol\":450:563  function getBalance() public view returns(uint)\r... */\n      pop\n      tag_17\n      tag_18\n      jump\t// in\n    tag_17:\n      0x40\n      dup1\n      mload\n      swap2\n      dup3\n      mstore\n      mload\n      swap1\n      dup2\n      swap1\n      sub\n      0x20\n      add\n      swap1\n      return\n        /* \"contracts/SendMoneyWithApproval.sol\":665:786  function approve() public payable returns (bool){  \r... */\n    tag_4:\n      tag_19\n      tag_20\n      jump\t// in\n    tag_19:\n      0x40\n      dup1\n      mload\n      swap2\n      iszero\n      iszero\n      dup3\n      mstore\n      mload\n      swap1\n      dup2\n      swap1\n      sub\n      0x20\n      add\n      swap1\n      return\n        /* \"contracts/SendMoneyWithApproval.sol\":139:162  address public approver */\n    tag_5:\n      callvalue\n        /* \"--CODEGEN--\":8:17   */\n      dup1\n        /* \"--CODEGEN--\":5:7   */\n      iszero\n      tag_21\n      jumpi\n        /* \"--CODEGEN--\":30:31   */\n      0x00\n        /* \"--CODEGEN--\":27:28   */\n      dup1\n        /* \"--CODEGEN--\":20:32   */\n      revert\n        /* \"--CODEGEN--\":5:7   */\n    tag_21:\n        /* \"contracts/SendMoneyWithApproval.sol\":139:162  address public approver */\n      pop\n      tag_22\n      tag_23\n      jump\t// in\n    tag_22:\n      0x40\n      dup1\n      mload\n      sub(shl(0xa0, 0x01), 0x01)\n      swap1\n      swap3\n      and\n      dup3\n      mstore\n      mload\n      swap1\n      dup2\n      swap1\n      sub\n      0x20\n      add\n      swap1\n      return\n        /* \"contracts/SendMoneyWithApproval.sol\":73:94  address public sender */\n    tag_6:\n      callvalue\n        /* \"--CODEGEN--\":8:17   */\n      dup1\n        /* \"--CODEGEN--\":5:7   */\n      iszero\n      tag_24\n      jumpi\n        /* \"--CODEGEN--\":30:31   */\n      0x00\n        /* \"--CODEGEN--\":27:28   */\n      dup1\n        /* \"--CODEGEN--\":20:32   */\n      revert\n        /* \"--CODEGEN--\":5:7   */\n    tag_24:\n        /* \"contracts/SendMoneyWithApproval.sol\":73:94  address public sender */\n      pop\n      tag_22\n      tag_26\n      jump\t// in\n        /* \"contracts/SendMoneyWithApproval.sol\":169:187  uint public amount */\n    tag_7:\n      callvalue\n        /* \"--CODEGEN--\":8:17   */\n      dup1\n        /* \"--CODEGEN--\":5:7   */\n      iszero\n      tag_27\n      jumpi\n        /* \"--CODEGEN--\":30:31   */\n      0x00\n        /* \"--CODEGEN--\":27:28   */\n      dup1\n        /* \"--CODEGEN--\":20:32   */\n      revert\n        /* \"--CODEGEN--\":5:7   */\n    tag_27:\n        /* \"contracts/SendMoneyWithApproval.sol\":169:187  uint public amount */\n      pop\n      tag_17\n      tag_29\n      jump\t// in\n        /* \"contracts/SendMoneyWithApproval.sol\":576:660  function viewApprover() external view returns(address) {\r... */\n    tag_8:\n      callvalue\n        /* \"--CODEGEN--\":8:17   */\n      dup1\n        /* \"--CODEGEN--\":5:7   */\n      iszero\n      tag_30\n      jumpi\n        /* \"--CODEGEN--\":30:31   */\n      0x00\n        /* \"--CODEGEN--\":27:28   */\n      dup1\n        /* \"--CODEGEN--\":20:32   */\n      revert\n        /* \"--CODEGEN--\":5:7   */\n    tag_30:\n        /* \"contracts/SendMoneyWithApproval.sol\":576:660  function viewApprover() external view returns(address) {\r... */\n      pop\n      tag_22\n      tag_32\n      jump\t// in\n        /* \"contracts/SendMoneyWithApproval.sol\":101:132  address payable public receiver */\n    tag_9:\n      callvalue\n        /* \"--CODEGEN--\":8:17   */\n      dup1\n        /* \"--CODEGEN--\":5:7   */\n      iszero\n      tag_33\n      jumpi\n        /* \"--CODEGEN--\":30:31   */\n      0x00\n        /* \"--CODEGEN--\":27:28   */\n      dup1\n        /* \"--CODEGEN--\":20:32   */\n      revert\n        /* \"--CODEGEN--\":5:7   */\n    tag_33:\n        /* \"contracts/SendMoneyWithApproval.sol\":101:132  address payable public receiver */\n      pop\n      tag_22\n      tag_35\n      jump\t// in\n        /* \"contracts/SendMoneyWithApproval.sol\":231:446  function deposit(address _sender, address payable _receiver, address _approver, uint _amount) public payable {\r... */\n    tag_15:\n        /* \"contracts/SendMoneyWithApproval.sol\":347:353  sender */\n      0x00\n        /* \"contracts/SendMoneyWithApproval.sol\":347:363  sender = _sender */\n      dup1\n      sload\n      not(sub(shl(0xa0, 0x01), 0x01))\n      swap1\n      dup2\n      and\n      sub(shl(0xa0, 0x01), 0x01)\n      swap7\n      dup8\n      and\n      or\n      swap1\n      swap2\n      sstore\n      0x01\n        /* \"contracts/SendMoneyWithApproval.sol\":370:390  receiver = _receiver */\n      dup1\n      sload\n      dup3\n      and\n      swap5\n      dup7\n      and\n      swap5\n      swap1\n      swap5\n      or\n      swap1\n      swap4\n      sstore\n        /* \"contracts/SendMoneyWithApproval.sol\":397:405  approver */\n      0x02\n        /* \"contracts/SendMoneyWithApproval.sol\":397:417  approver = _approver */\n      dup1\n      sload\n      swap1\n      swap4\n      and\n      swap2\n      swap1\n      swap4\n      and\n      or\n      swap1\n      sstore\n        /* \"contracts/SendMoneyWithApproval.sol\":424:430  amount */\n      0x03\n        /* \"contracts/SendMoneyWithApproval.sol\":424:440  amount = _amount */\n      sstore\n        /* \"contracts/SendMoneyWithApproval.sol\":231:446  function deposit(address _sender, address payable _receiver, address _approver, uint _amount) public payable {\r... */\n      jump\t// out\n        /* \"contracts/SendMoneyWithApproval.sol\":450:563  function getBalance() public view returns(uint)\r... */\n    tag_18:\n        /* \"contracts/SendMoneyWithApproval.sol\":535:543  receiver */\n      and(sub(shl(0xa0, 0x01), 0x01), sload(0x01))\n        /* \"contracts/SendMoneyWithApproval.sol\":527:552  address(receiver).balance */\n      balance\n        /* \"contracts/SendMoneyWithApproval.sol\":450:563  function getBalance() public view returns(uint)\r... */\n      swap1\n      jump\t// out\n        /* \"contracts/SendMoneyWithApproval.sol\":665:786  function approve() public payable returns (bool){  \r... */\n    tag_20:\n        /* \"contracts/SendMoneyWithApproval.sol\":723:731  receiver */\n      sload(0x01)\n        /* \"contracts/SendMoneyWithApproval.sol\":741:747  amount */\n      sload(0x03)\n        /* \"contracts/SendMoneyWithApproval.sol\":723:760  receiver.transfer(amount * (1 ether)) */\n      mload(0x40)\n        /* \"contracts/SendMoneyWithApproval.sol\":708:712  bool */\n      0x00\n      swap3\n      sub(shl(0xa0, 0x01), 0x01)\n        /* \"contracts/SendMoneyWithApproval.sol\":723:731  receiver */\n      and\n      swap2\n        /* \"contracts/SendMoneyWithApproval.sol\":751:758  1 ether */\n      0x0de0b6b3a7640000\n        /* \"contracts/SendMoneyWithApproval.sol\":741:759  amount * (1 ether) */\n      mul\n        /* \"contracts/SendMoneyWithApproval.sol\":723:760  receiver.transfer(amount * (1 ether)) */\n      dup1\n      iszero\n      0x08fc\n      mul\n      swap2\n        /* \"contracts/SendMoneyWithApproval.sol\":708:712  bool */\n      dup5\n        /* \"contracts/SendMoneyWithApproval.sol\":723:760  receiver.transfer(amount * (1 ether)) */\n      dup2\n        /* \"contracts/SendMoneyWithApproval.sol\":708:712  bool */\n      dup2\n        /* \"contracts/SendMoneyWithApproval.sol\":723:760  receiver.transfer(amount * (1 ether)) */\n      dup2\n        /* \"contracts/SendMoneyWithApproval.sol\":741:759  amount * (1 ether) */\n      dup6\n        /* \"contracts/SendMoneyWithApproval.sol\":723:731  receiver */\n      dup9\n        /* \"contracts/SendMoneyWithApproval.sol\":723:760  receiver.transfer(amount * (1 ether)) */\n      dup9\n      call\n      swap4\n      pop\n      pop\n      pop\n      pop\n      iszero\n        /* \"--CODEGEN--\":8:17   */\n      dup1\n        /* \"--CODEGEN--\":5:7   */\n      iszero\n      tag_39\n      jumpi\n        /* \"--CODEGEN--\":45:61   */\n      returndatasize\n        /* \"--CODEGEN--\":42:43   */\n      0x00\n        /* \"--CODEGEN--\":39:40   */\n      dup1\n        /* \"--CODEGEN--\":24:62   */\n      returndatacopy\n        /* \"--CODEGEN--\":77:93   */\n      returndatasize\n        /* \"--CODEGEN--\":74:75   */\n      0x00\n        /* \"--CODEGEN--\":67:94   */\n      revert\n        /* \"--CODEGEN--\":5:7   */\n    tag_39:\n        /* \"contracts/SendMoneyWithApproval.sol\":723:760  receiver.transfer(amount * (1 ether)) */\n      pop\n        /* \"contracts/SendMoneyWithApproval.sol\":775:779  true */\n      0x01\n        /* \"contracts/SendMoneyWithApproval.sol\":768:779  return true */\n      swap1\n      pop\n        /* \"contracts/SendMoneyWithApproval.sol\":665:786  function approve() public payable returns (bool){  \r... */\n      swap1\n      jump\t// out\n        /* \"contracts/SendMoneyWithApproval.sol\":139:162  address public approver */\n    tag_23:\n      and(sub(shl(0xa0, 0x01), 0x01), sload(0x02))\n      dup2\n      jump\t// out\n        /* \"contracts/SendMoneyWithApproval.sol\":73:94  address public sender */\n    tag_26:\n      and(sub(shl(0xa0, 0x01), 0x01), sload(0x00))\n      dup2\n      jump\t// out\n        /* \"contracts/SendMoneyWithApproval.sol\":169:187  uint public amount */\n    tag_29:\n      sload(0x03)\n      dup2\n      jump\t// out\n        /* \"contracts/SendMoneyWithApproval.sol\":576:660  function viewApprover() external view returns(address) {\r... */\n    tag_32:\n        /* \"contracts/SendMoneyWithApproval.sol\":645:653  approver */\n      and(sub(shl(0xa0, 0x01), 0x01), sload(0x02))\n        /* \"contracts/SendMoneyWithApproval.sol\":576:660  function viewApprover() external view returns(address) {\r... */\n      swap1\n      jump\t// out\n        /* \"contracts/SendMoneyWithApproval.sol\":101:132  address payable public receiver */\n    tag_35:\n      and(sub(shl(0xa0, 0x01), 0x01), sload(0x01))\n      dup2\n      jump\t// out\n\n    auxdata: 0xa265627a7a7231582079fd2820aa8ba114774f700baad7e07ce62bcbe89d56679d526a062a0aa97ba464736f6c63430005110032\n}\n",
				"bytecode": {
					"linkReferences": {},
					"object": "608060405234801561001057600080fd5b50610297806100206000396000f3fe60806040526004361061007b5760003560e01c806367e404ce1161004e57806367e404ce1461012d578063aa8c217c14610142578063d93ce89c14610157578063f7260d3e1461016c5761007b565b80630284c3f51461007d57806312065fe0146100b957806312424e3f146100e0578063141a8dd8146100fc575b005b61007b6004803603608081101561009357600080fd5b506001600160a01b03813581169160208101358216916040820135169060600135610181565b3480156100c557600080fd5b506100ce6101c3565b60408051918252519081900360200190f35b6100e86101d3565b604080519115158252519081900360200190f35b34801561010857600080fd5b50610111610220565b604080516001600160a01b039092168252519081900360200190f35b34801561013957600080fd5b5061011161022f565b34801561014e57600080fd5b506100ce61023e565b34801561016357600080fd5b50610111610244565b34801561017857600080fd5b50610111610253565b600080546001600160a01b03199081166001600160a01b0396871617909155600180548216948616949094179093556002805490931691909316179055600355565b6001546001600160a01b03163190565b6001546003546040516000926001600160a01b031691670de0b6b3a76400000280156108fc029184818181858888f19350505050158015610218573d6000803e3d6000fd5b506001905090565b6002546001600160a01b031681565b6000546001600160a01b031681565b60035481565b6002546001600160a01b031690565b6001546001600160a01b03168156fea265627a7a7231582079fd2820aa8ba114774f700baad7e07ce62bcbe89d56679d526a062a0aa97ba464736f6c63430005110032",
					"opcodes": "PUSH1 0x80 PUSH1 0x40 MSTORE CALLVALUE DUP1 ISZERO PUSH2 0x10 JUMPI PUSH1 0x0 DUP1 REVERT JUMPDEST POP PUSH2 0x297 DUP1 PUSH2 0x20 PUSH1 0x0 CODECOPY PUSH1 0x0 RETURN INVALID PUSH1 0x80 PUSH1 0x40 MSTORE PUSH1 0x4 CALLDATASIZE LT PUSH2 0x7B JUMPI PUSH1 0x0 CALLDATALOAD PUSH1 0xE0 SHR DUP1 PUSH4 0x67E404CE GT PUSH2 0x4E JUMPI DUP1 PUSH4 0x67E404CE EQ PUSH2 0x12D JUMPI DUP1 PUSH4 0xAA8C217C EQ PUSH2 0x142 JUMPI DUP1 PUSH4 0xD93CE89C EQ PUSH2 0x157 JUMPI DUP1 PUSH4 0xF7260D3E EQ PUSH2 0x16C JUMPI PUSH2 0x7B JUMP JUMPDEST DUP1 PUSH4 0x284C3F5 EQ PUSH2 0x7D JUMPI DUP1 PUSH4 0x12065FE0 EQ PUSH2 0xB9 JUMPI DUP1 PUSH4 0x12424E3F EQ PUSH2 0xE0 JUMPI DUP1 PUSH4 0x141A8DD8 EQ PUSH2 0xFC JUMPI JUMPDEST STOP JUMPDEST PUSH2 0x7B PUSH1 0x4 DUP1 CALLDATASIZE SUB PUSH1 0x80 DUP2 LT ISZERO PUSH2 0x93 JUMPI PUSH1 0x0 DUP1 REVERT JUMPDEST POP PUSH1 0x1 PUSH1 0x1 PUSH1 0xA0 SHL SUB DUP2 CALLDATALOAD DUP2 AND SWAP2 PUSH1 0x20 DUP2 ADD CALLDATALOAD DUP3 AND SWAP2 PUSH1 0x40 DUP3 ADD CALLDATALOAD AND SWAP1 PUSH1 0x60 ADD CALLDATALOAD PUSH2 0x181 JUMP JUMPDEST CALLVALUE DUP1 ISZERO PUSH2 0xC5 JUMPI PUSH1 0x0 DUP1 REVERT JUMPDEST POP PUSH2 0xCE PUSH2 0x1C3 JUMP JUMPDEST PUSH1 0x40 DUP1 MLOAD SWAP2 DUP3 MSTORE MLOAD SWAP1 DUP2 SWAP1 SUB PUSH1 0x20 ADD SWAP1 RETURN JUMPDEST PUSH2 0xE8 PUSH2 0x1D3 JUMP JUMPDEST PUSH1 0x40 DUP1 MLOAD SWAP2 ISZERO ISZERO DUP3 MSTORE MLOAD SWAP1 DUP2 SWAP1 SUB PUSH1 0x20 ADD SWAP1 RETURN JUMPDEST CALLVALUE DUP1 ISZERO PUSH2 0x108 JUMPI PUSH1 0x0 DUP1 REVERT JUMPDEST POP PUSH2 0x111 PUSH2 0x220 JUMP JUMPDEST PUSH1 0x40 DUP1 MLOAD PUSH1 0x1 PUSH1 0x1 PUSH1 0xA0 SHL SUB SWAP1 SWAP3 AND DUP3 MSTORE MLOAD SWAP1 DUP2 SWAP1 SUB PUSH1 0x20 ADD SWAP1 RETURN JUMPDEST CALLVALUE DUP1 ISZERO PUSH2 0x139 JUMPI PUSH1 0x0 DUP1 REVERT JUMPDEST POP PUSH2 0x111 PUSH2 0x22F JUMP JUMPDEST CALLVALUE DUP1 ISZERO PUSH2 0x14E JUMPI PUSH1 0x0 DUP1 REVERT JUMPDEST POP PUSH2 0xCE PUSH2 0x23E JUMP JUMPDEST CALLVALUE DUP1 ISZERO PUSH2 0x163 JUMPI PUSH1 0x0 DUP1 REVERT JUMPDEST POP PUSH2 0x111 PUSH2 0x244 JUMP JUMPDEST CALLVALUE DUP1 ISZERO PUSH2 0x178 JUMPI PUSH1 0x0 DUP1 REVERT JUMPDEST POP PUSH2 0x111 PUSH2 0x253 JUMP JUMPDEST PUSH1 0x0 DUP1 SLOAD PUSH1 0x1 PUSH1 0x1 PUSH1 0xA0 SHL SUB NOT SWAP1 DUP2 AND PUSH1 0x1 PUSH1 0x1 PUSH1 0xA0 SHL SUB SWAP7 DUP8 AND OR SWAP1 SWAP2 SSTORE PUSH1 0x1 DUP1 SLOAD DUP3 AND SWAP5 DUP7 AND SWAP5 SWAP1 SWAP5 OR SWAP1 SWAP4 SSTORE PUSH1 0x2 DUP1 SLOAD SWAP1 SWAP4 AND SWAP2 SWAP1 SWAP4 AND OR SWAP1 SSTORE PUSH1 0x3 SSTORE JUMP JUMPDEST PUSH1 0x1 SLOAD PUSH1 0x1 PUSH1 0x1 PUSH1 0xA0 SHL SUB AND BALANCE SWAP1 JUMP JUMPDEST PUSH1 0x1 SLOAD PUSH1 0x3 SLOAD PUSH1 0x40 MLOAD PUSH1 0x0 SWAP3 PUSH1 0x1 PUSH1 0x1 PUSH1 0xA0 SHL SUB AND SWAP2 PUSH8 0xDE0B6B3A7640000 MUL DUP1 ISZERO PUSH2 0x8FC MUL SWAP2 DUP5 DUP2 DUP2 DUP2 DUP6 DUP9 DUP9 CALL SWAP4 POP POP POP POP ISZERO DUP1 ISZERO PUSH2 0x218 JUMPI RETURNDATASIZE PUSH1 0x0 DUP1 RETURNDATACOPY RETURNDATASIZE PUSH1 0x0 REVERT JUMPDEST POP PUSH1 0x1 SWAP1 POP SWAP1 JUMP JUMPDEST PUSH1 0x2 SLOAD PUSH1 0x1 PUSH1 0x1 PUSH1 0xA0 SHL SUB AND DUP2 JUMP JUMPDEST PUSH1 0x0 SLOAD PUSH1 0x1 PUSH1 0x1 PUSH1 0xA0 SHL SUB AND DUP2 JUMP JUMPDEST PUSH1 0x3 SLOAD DUP2 JUMP JUMPDEST PUSH1 0x2 SLOAD PUSH1 0x1 PUSH1 0x1 PUSH1 0xA0 SHL SUB AND SWAP1 JUMP JUMPDEST PUSH1 0x1 SLOAD PUSH1 0x1 PUSH1 0x1 PUSH1 0xA0 SHL SUB AND DUP2 JUMP INVALID LOG2 PUSH6 0x627A7A723158 KECCAK256 PUSH26 0xFD2820AA8BA114774F700BAAD7E07CE62BCBE89D56679D526A06 0x2A EXP 0xA9 PUSH28 0xA464736F6C6343000511003200000000000000000000000000000000 "
				},
				"gasEstimates": {
					"creation": {
						"codeDepositCost": "132600",
						"executionCost": "177",
						"totalCost": "132777"
					},
					"external": {
						"": "163",
						"amount()": "1020",
						"approve()": "infinite",
						"approver()": "1104",
						"deposit(address,address,address,uint256)": "82779",
						"getBalance()": "1739",
						"receiver()": "1103",
						"sender()": "1037",
						"viewApprover()": "1081"
					}
				},
				"methodIdentifiers": {
					"amount()": "aa8c217c",
					"approve()": "12424e3f",
					"approver()": "141a8dd8",
					"deposit(address,address,address,uint256)": "0284c3f5",
					"getBalance()": "12065fe0",
					"receiver()": "f7260d3e",
					"sender()": "67e404ce",
					"viewApprover()": "d93ce89c"
				}
			},
			"storageLayout": {
				"storage": [
					{
						"astId": 3,
						"contract": "contracts/SendMoneyWithApproval.sol:SendMoneyWithApproval",
						"label": "sender",
						"offset": 0,
						"slot": "0",
						"type": "t_address"
					},
					{
						"astId": 5,
						"contract": "contracts/SendMoneyWithApproval.sol:SendMoneyWithApproval",
						"label": "receiver",
						"offset": 0,
						"slot": "1",
						"type": "t_address_payable"
					},
					{
						"astId": 7,
						"contract": "contracts/SendMoneyWithApproval.sol:SendMoneyWithApproval",
						"label": "approver",
						"offset": 0,
						"slot": "2",
						"type": "t_address"
					},
					{
						"astId": 9,
						"contract": "contracts/SendMoneyWithApproval.sol:SendMoneyWithApproval",
						"label": "amount",
						"offset": 0,
						"slot": "3",
						"type": "t_uint256"
					}
				],
				"types": {
					"t_address": {
						"encoding": "inplace",
						"label": "address",
						"numberOfBytes": "20"
					},
					"t_address_payable": {
						"encoding": "inplace",
						"label": "address payable",
						"numberOfBytes": "20"
					},
					"t_uint256": {
						"encoding": "inplace",
						"label": "uint256",
						"numberOfBytes": "32"
					}
				}
			},
			"userdoc": {
				"methods": {}
			}
		}
	}
}