{
	"contracts/SendMoneyWithApproval.sol": {
		"SendMoneyWithApproval": {
			"abi": [
				{
					"constant": false,
					"inputs": [],
					"name": "approve",
					"outputs": [],
					"payable": false,
					"stateMutability": "nonpayable",
					"type": "function"
				},
				{
					"constant": true,
					"inputs": [],
					"name": "approver",
					"outputs": [
						{
							"name": "",
							"type": "address"
						}
					],
					"payable": false,
					"stateMutability": "view",
					"type": "function"
				},
				{
					"constant": false,
					"inputs": [
						{
							"name": "_sender",
							"type": "address"
						},
						{
							"name": "_receiver",
							"type": "address"
						},
						{
							"name": "_approver",
							"type": "address"
						},
						{
							"name": "amount",
							"type": "int256"
						}
					],
					"name": "deposit",
					"outputs": [],
					"payable": true,
					"stateMutability": "payable",
					"type": "function"
				},
				{
					"constant": true,
					"inputs": [],
					"name": "sender",
					"outputs": [
						{
							"name": "",
							"type": "address"
						}
					],
					"payable": false,
					"stateMutability": "view",
					"type": "function"
				},
				{
					"constant": true,
					"inputs": [],
					"name": "viewApprover",
					"outputs": [
						{
							"name": "",
							"type": "address"
						}
					],
					"payable": false,
					"stateMutability": "view",
					"type": "function"
				},
				{
					"constant": true,
					"inputs": [],
					"name": "receiver",
					"outputs": [
						{
							"name": "",
							"type": "address"
						}
					],
					"payable": false,
					"stateMutability": "view",
					"type": "function"
				}
			],
			"devdoc": {
				"methods": {}
			},
			"evm": {
				"assembly": "    /* \"contracts/SendMoneyWithApproval.sol\":134:771  contract SendMoneyWithApproval\r... */\n  mstore(0x40, 0x80)\n  callvalue\n    /* \"--CODEGEN--\":8:17   */\n  dup1\n    /* \"--CODEGEN--\":5:7   */\n  iszero\n  tag_1\n  jumpi\n    /* \"--CODEGEN--\":30:31   */\n  0x0\n    /* \"--CODEGEN--\":27:28   */\n  dup1\n    /* \"--CODEGEN--\":20:32   */\n  revert\n    /* \"--CODEGEN--\":5:7   */\ntag_1:\n    /* \"contracts/SendMoneyWithApproval.sol\":134:771  contract SendMoneyWithApproval\r... */\n  pop\n  dataSize(sub_0)\n  dup1\n  dataOffset(sub_0)\n  0x0\n  codecopy\n  0x0\n  return\nstop\n\nsub_0: assembly {\n        /* \"contracts/SendMoneyWithApproval.sol\":134:771  contract SendMoneyWithApproval\r... */\n      mstore(0x40, 0x80)\n      jumpi(tag_1, lt(calldatasize, 0x4))\n      and(div(calldataload(0x0), 0x100000000000000000000000000000000000000000000000000000000), 0xffffffff)\n      0x12424e3f\n      dup2\n      eq\n      tag_2\n      jumpi\n      dup1\n      0x141a8dd8\n      eq\n      tag_3\n      jumpi\n      dup1\n      0x322e27f8\n      eq\n      tag_4\n      jumpi\n      dup1\n      0x67e404ce\n      eq\n      tag_5\n      jumpi\n      dup1\n      0xd93ce89c\n      eq\n      tag_6\n      jumpi\n      dup1\n      0xf7260d3e\n      eq\n      tag_7\n      jumpi\n    tag_1:\n      0x0\n      dup1\n      revert\n        /* \"contracts/SendMoneyWithApproval.sol\":569:671  function approve() external {\r... */\n    tag_2:\n      callvalue\n        /* \"--CODEGEN--\":8:17   */\n      dup1\n        /* \"--CODEGEN--\":5:7   */\n      iszero\n      tag_8\n      jumpi\n        /* \"--CODEGEN--\":30:31   */\n      0x0\n        /* \"--CODEGEN--\":27:28   */\n      dup1\n        /* \"--CODEGEN--\":20:32   */\n      revert\n        /* \"--CODEGEN--\":5:7   */\n    tag_8:\n        /* \"contracts/SendMoneyWithApproval.sol\":569:671  function approve() external {\r... */\n      pop\n      tag_9\n      jump(tag_10)\n    tag_9:\n      stop\n        /* \"contracts/SendMoneyWithApproval.sol\":231:254  address public approver */\n    tag_3:\n      callvalue\n        /* \"--CODEGEN--\":8:17   */\n      dup1\n        /* \"--CODEGEN--\":5:7   */\n      iszero\n      tag_11\n      jumpi\n        /* \"--CODEGEN--\":30:31   */\n      0x0\n        /* \"--CODEGEN--\":27:28   */\n      dup1\n        /* \"--CODEGEN--\":20:32   */\n      revert\n        /* \"--CODEGEN--\":5:7   */\n    tag_11:\n        /* \"contracts/SendMoneyWithApproval.sol\":231:254  address public approver */\n      pop\n      tag_12\n      jump(tag_13)\n    tag_12:\n      0x40\n      dup1\n      mload\n      sub(exp(0x2, 0xa0), 0x1)\n      swap1\n      swap3\n      and\n      dup3\n      mstore\n      mload\n      swap1\n      dup2\n      swap1\n      sub\n      0x20\n      add\n      swap1\n      return\n        /* \"contracts/SendMoneyWithApproval.sol\":261:474  function deposit(address _sender, address _receiver, address _approver, int amount) external payable {\r... */\n    tag_4:\n      tag_9\n      sub(exp(0x2, 0xa0), 0x1)\n      calldataload(0x4)\n      dup2\n      and\n      swap1\n      calldataload(0x24)\n      dup2\n      and\n      swap1\n      calldataload(0x44)\n      and\n      calldataload(0x64)\n      jump(tag_15)\n        /* \"contracts/SendMoneyWithApproval.sol\":173:194  address public sender */\n    tag_5:\n      callvalue\n        /* \"--CODEGEN--\":8:17   */\n      dup1\n        /* \"--CODEGEN--\":5:7   */\n      iszero\n      tag_16\n      jumpi\n        /* \"--CODEGEN--\":30:31   */\n      0x0\n        /* \"--CODEGEN--\":27:28   */\n      dup1\n        /* \"--CODEGEN--\":20:32   */\n      revert\n        /* \"--CODEGEN--\":5:7   */\n    tag_16:\n        /* \"contracts/SendMoneyWithApproval.sol\":173:194  address public sender */\n      pop\n      tag_12\n      jump(tag_18)\n        /* \"contracts/SendMoneyWithApproval.sol\":480:564  function viewApprover() external view returns(address) {\r... */\n    tag_6:\n      callvalue\n        /* \"--CODEGEN--\":8:17   */\n      dup1\n        /* \"--CODEGEN--\":5:7   */\n      iszero\n      tag_19\n      jumpi\n        /* \"--CODEGEN--\":30:31   */\n      0x0\n        /* \"--CODEGEN--\":27:28   */\n      dup1\n        /* \"--CODEGEN--\":20:32   */\n      revert\n        /* \"--CODEGEN--\":5:7   */\n    tag_19:\n        /* \"contracts/SendMoneyWithApproval.sol\":480:564  function viewApprover() external view returns(address) {\r... */\n      pop\n      tag_12\n      jump(tag_21)\n        /* \"contracts/SendMoneyWithApproval.sol\":201:224  address public receiver */\n    tag_7:\n      callvalue\n        /* \"--CODEGEN--\":8:17   */\n      dup1\n        /* \"--CODEGEN--\":5:7   */\n      iszero\n      tag_22\n      jumpi\n        /* \"--CODEGEN--\":30:31   */\n      0x0\n        /* \"--CODEGEN--\":27:28   */\n      dup1\n        /* \"--CODEGEN--\":20:32   */\n      revert\n        /* \"--CODEGEN--\":5:7   */\n    tag_22:\n        /* \"contracts/SendMoneyWithApproval.sol\":201:224  address public receiver */\n      pop\n      tag_12\n      jump(tag_24)\n        /* \"contracts/SendMoneyWithApproval.sol\":569:671  function approve() external {\r... */\n    tag_10:\n        /* \"contracts/SendMoneyWithApproval.sol\":626:634  approver */\n      and(sub(exp(0x2, 0xa0), 0x1), sload(0x2))\n        /* \"contracts/SendMoneyWithApproval.sol\":612:622  msg.sender */\n      caller\n        /* \"contracts/SendMoneyWithApproval.sol\":612:634  msg.sender == approver */\n      eq\n        /* \"contracts/SendMoneyWithApproval.sol\":604:635  require(msg.sender == approver) */\n      tag_26\n      jumpi\n      0x0\n      dup1\n      revert\n    tag_26:\n        /* \"contracts/SendMoneyWithApproval.sol\":643:651  receiver */\n      0x1\n      dup1\n      sload\n        /* \"contracts/SendMoneyWithApproval.sol\":642:664  (receiver).transfer(1) */\n      mload(0x40)\n      sub(exp(0x2, 0xa0), 0x1)\n        /* \"contracts/SendMoneyWithApproval.sol\":643:651  receiver */\n      swap1\n      swap2\n      and\n      swap2\n      0x0\n      swap2\n      dup3\n        /* \"contracts/SendMoneyWithApproval.sol\":642:664  (receiver).transfer(1) */\n      dup2\n        /* \"contracts/SendMoneyWithApproval.sol\":643:651  receiver */\n      dup2\n        /* \"contracts/SendMoneyWithApproval.sol\":642:664  (receiver).transfer(1) */\n      dup2\n        /* \"contracts/SendMoneyWithApproval.sol\":643:651  receiver */\n      dup6\n      dup9\n      dup4\n        /* \"contracts/SendMoneyWithApproval.sol\":642:664  (receiver).transfer(1) */\n      call\n      swap4\n      pop\n      pop\n      pop\n      pop\n      iszero\n        /* \"--CODEGEN--\":8:17   */\n      dup1\n        /* \"--CODEGEN--\":5:7   */\n      iszero\n      tag_27\n      jumpi\n        /* \"--CODEGEN--\":45:61   */\n      returndatasize\n        /* \"--CODEGEN--\":42:43   */\n      0x0\n        /* \"--CODEGEN--\":39:40   */\n      dup1\n        /* \"--CODEGEN--\":24:62   */\n      returndatacopy\n        /* \"--CODEGEN--\":77:93   */\n      returndatasize\n        /* \"--CODEGEN--\":74:75   */\n      0x0\n        /* \"--CODEGEN--\":67:94   */\n      revert\n        /* \"--CODEGEN--\":5:7   */\n    tag_27:\n        /* \"contracts/SendMoneyWithApproval.sol\":642:664  (receiver).transfer(1) */\n      pop\n        /* \"contracts/SendMoneyWithApproval.sol\":569:671  function approve() external {\r... */\n      jump\t// out\n        /* \"contracts/SendMoneyWithApproval.sol\":231:254  address public approver */\n    tag_13:\n      and(sub(exp(0x2, 0xa0), 0x1), sload(0x2))\n      dup2\n      jump\t// out\n        /* \"contracts/SendMoneyWithApproval.sol\":261:474  function deposit(address _sender, address _receiver, address _approver, int amount) external payable {\r... */\n    tag_15:\n        /* \"contracts/SendMoneyWithApproval.sol\":389:390  0 */\n      0x0\n        /* \"contracts/SendMoneyWithApproval.sol\":377:386  msg.value */\n      callvalue\n        /* \"contracts/SendMoneyWithApproval.sol\":377:390  msg.value > 0 */\n      gt\n        /* \"contracts/SendMoneyWithApproval.sol\":369:391  require(msg.value > 0) */\n      tag_29\n      jumpi\n      0x0\n      dup1\n      revert\n    tag_29:\n      pop\n        /* \"contracts/SendMoneyWithApproval.sol\":398:404  sender */\n      0x0\n        /* \"contracts/SendMoneyWithApproval.sol\":398:414  sender = _sender */\n      dup1\n      sload\n      sub(exp(0x2, 0xa0), 0x1)\n      swap5\n      dup6\n      and\n      not(0xffffffffffffffffffffffffffffffffffffffff)\n      swap2\n      dup3\n      and\n      or\n      swap1\n      swap2\n      sstore\n      0x1\n        /* \"contracts/SendMoneyWithApproval.sol\":421:441  receiver = _receiver */\n      dup1\n      sload\n      swap4\n      dup6\n      and\n      swap4\n      dup3\n      and\n      swap4\n      swap1\n      swap4\n      or\n      swap1\n      swap3\n      sstore\n        /* \"contracts/SendMoneyWithApproval.sol\":448:456  approver */\n      0x2\n        /* \"contracts/SendMoneyWithApproval.sol\":448:468  approver = _approver */\n      dup1\n      sload\n      swap2\n      swap1\n      swap4\n      and\n      swap2\n      and\n      or\n      swap1\n      sstore\n        /* \"contracts/SendMoneyWithApproval.sol\":261:474  function deposit(address _sender, address _receiver, address _approver, int amount) external payable {\r... */\n      jump\t// out\n        /* \"contracts/SendMoneyWithApproval.sol\":173:194  address public sender */\n    tag_18:\n      and(sub(exp(0x2, 0xa0), 0x1), sload(0x0))\n      dup2\n      jump\t// out\n        /* \"contracts/SendMoneyWithApproval.sol\":480:564  function viewApprover() external view returns(address) {\r... */\n    tag_21:\n        /* \"contracts/SendMoneyWithApproval.sol\":549:557  approver */\n      and(sub(exp(0x2, 0xa0), 0x1), sload(0x2))\n        /* \"contracts/SendMoneyWithApproval.sol\":480:564  function viewApprover() external view returns(address) {\r... */\n      swap1\n      jump\t// out\n        /* \"contracts/SendMoneyWithApproval.sol\":201:224  address public receiver */\n    tag_24:\n      and(sub(exp(0x2, 0xa0), 0x1), sload(0x1))\n      dup2\n      jump\t// out\n\n    auxdata: 0xa165627a7a723058209e605b6f773fbf43a2239d6115b4cca8a23bbd589b9fbc47c873fb5ff50b73fa0029\n}\n",
				"bytecode": {
					"linkReferences": {},
					"object": "608060405234801561001057600080fd5b50610236806100206000396000f3006080604052600436106100775763ffffffff7c010000000000000000000000000000000000000000000000000000000060003504166312424e3f811461007c578063141a8dd814610093578063322e27f8146100c457806367e404ce146100e7578063d93ce89c146100fc578063f7260d3e14610111575b600080fd5b34801561008857600080fd5b50610091610126565b005b34801561009f57600080fd5b506100a8610174565b60408051600160a060020a039092168252519081900360200190f35b610091600160a060020a0360043581169060243581169060443516606435610183565b3480156100f357600080fd5b506100a86101dd565b34801561010857600080fd5b506100a86101ec565b34801561011d57600080fd5b506100a86101fb565b600254600160a060020a0316331461013d57600080fd5b60018054604051600160a060020a039091169160009182818181858883f19350505050158015610171573d6000803e3d6000fd5b50565b600254600160a060020a031681565b6000341161019057600080fd5b5060008054600160a060020a0394851673ffffffffffffffffffffffffffffffffffffffff1991821617909155600180549385169382169390931790925560028054919093169116179055565b600054600160a060020a031681565b600254600160a060020a031690565b600154600160a060020a0316815600a165627a7a723058209e605b6f773fbf43a2239d6115b4cca8a23bbd589b9fbc47c873fb5ff50b73fa0029",
					"opcodes": "PUSH1 0x80 PUSH1 0x40 MSTORE CALLVALUE DUP1 ISZERO PUSH2 0x10 JUMPI PUSH1 0x0 DUP1 REVERT JUMPDEST POP PUSH2 0x236 DUP1 PUSH2 0x20 PUSH1 0x0 CODECOPY PUSH1 0x0 RETURN STOP PUSH1 0x80 PUSH1 0x40 MSTORE PUSH1 0x4 CALLDATASIZE LT PUSH2 0x77 JUMPI PUSH4 0xFFFFFFFF PUSH29 0x100000000000000000000000000000000000000000000000000000000 PUSH1 0x0 CALLDATALOAD DIV AND PUSH4 0x12424E3F DUP2 EQ PUSH2 0x7C JUMPI DUP1 PUSH4 0x141A8DD8 EQ PUSH2 0x93 JUMPI DUP1 PUSH4 0x322E27F8 EQ PUSH2 0xC4 JUMPI DUP1 PUSH4 0x67E404CE EQ PUSH2 0xE7 JUMPI DUP1 PUSH4 0xD93CE89C EQ PUSH2 0xFC JUMPI DUP1 PUSH4 0xF7260D3E EQ PUSH2 0x111 JUMPI JUMPDEST PUSH1 0x0 DUP1 REVERT JUMPDEST CALLVALUE DUP1 ISZERO PUSH2 0x88 JUMPI PUSH1 0x0 DUP1 REVERT JUMPDEST POP PUSH2 0x91 PUSH2 0x126 JUMP JUMPDEST STOP JUMPDEST CALLVALUE DUP1 ISZERO PUSH2 0x9F JUMPI PUSH1 0x0 DUP1 REVERT JUMPDEST POP PUSH2 0xA8 PUSH2 0x174 JUMP JUMPDEST PUSH1 0x40 DUP1 MLOAD PUSH1 0x1 PUSH1 0xA0 PUSH1 0x2 EXP SUB SWAP1 SWAP3 AND DUP3 MSTORE MLOAD SWAP1 DUP2 SWAP1 SUB PUSH1 0x20 ADD SWAP1 RETURN JUMPDEST PUSH2 0x91 PUSH1 0x1 PUSH1 0xA0 PUSH1 0x2 EXP SUB PUSH1 0x4 CALLDATALOAD DUP2 AND SWAP1 PUSH1 0x24 CALLDATALOAD DUP2 AND SWAP1 PUSH1 0x44 CALLDATALOAD AND PUSH1 0x64 CALLDATALOAD PUSH2 0x183 JUMP JUMPDEST CALLVALUE DUP1 ISZERO PUSH2 0xF3 JUMPI PUSH1 0x0 DUP1 REVERT JUMPDEST POP PUSH2 0xA8 PUSH2 0x1DD JUMP JUMPDEST CALLVALUE DUP1 ISZERO PUSH2 0x108 JUMPI PUSH1 0x0 DUP1 REVERT JUMPDEST POP PUSH2 0xA8 PUSH2 0x1EC JUMP JUMPDEST CALLVALUE DUP1 ISZERO PUSH2 0x11D JUMPI PUSH1 0x0 DUP1 REVERT JUMPDEST POP PUSH2 0xA8 PUSH2 0x1FB JUMP JUMPDEST PUSH1 0x2 SLOAD PUSH1 0x1 PUSH1 0xA0 PUSH1 0x2 EXP SUB AND CALLER EQ PUSH2 0x13D JUMPI PUSH1 0x0 DUP1 REVERT JUMPDEST PUSH1 0x1 DUP1 SLOAD PUSH1 0x40 MLOAD PUSH1 0x1 PUSH1 0xA0 PUSH1 0x2 EXP SUB SWAP1 SWAP2 AND SWAP2 PUSH1 0x0 SWAP2 DUP3 DUP2 DUP2 DUP2 DUP6 DUP9 DUP4 CALL SWAP4 POP POP POP POP ISZERO DUP1 ISZERO PUSH2 0x171 JUMPI RETURNDATASIZE PUSH1 0x0 DUP1 RETURNDATACOPY RETURNDATASIZE PUSH1 0x0 REVERT JUMPDEST POP JUMP JUMPDEST PUSH1 0x2 SLOAD PUSH1 0x1 PUSH1 0xA0 PUSH1 0x2 EXP SUB AND DUP2 JUMP JUMPDEST PUSH1 0x0 CALLVALUE GT PUSH2 0x190 JUMPI PUSH1 0x0 DUP1 REVERT JUMPDEST POP PUSH1 0x0 DUP1 SLOAD PUSH1 0x1 PUSH1 0xA0 PUSH1 0x2 EXP SUB SWAP5 DUP6 AND PUSH20 0xFFFFFFFFFFFFFFFFFFFFFFFFFFFFFFFFFFFFFFFF NOT SWAP2 DUP3 AND OR SWAP1 SWAP2 SSTORE PUSH1 0x1 DUP1 SLOAD SWAP4 DUP6 AND SWAP4 DUP3 AND SWAP4 SWAP1 SWAP4 OR SWAP1 SWAP3 SSTORE PUSH1 0x2 DUP1 SLOAD SWAP2 SWAP1 SWAP4 AND SWAP2 AND OR SWAP1 SSTORE JUMP JUMPDEST PUSH1 0x0 SLOAD PUSH1 0x1 PUSH1 0xA0 PUSH1 0x2 EXP SUB AND DUP2 JUMP JUMPDEST PUSH1 0x2 SLOAD PUSH1 0x1 PUSH1 0xA0 PUSH1 0x2 EXP SUB AND SWAP1 JUMP JUMPDEST PUSH1 0x1 SLOAD PUSH1 0x1 PUSH1 0xA0 PUSH1 0x2 EXP SUB AND DUP2 JUMP STOP LOG1 PUSH6 0x627A7A723058 KECCAK256 SWAP15 PUSH1 0x5B PUSH16 0x773FBF43A2239D6115B4CCA8A23BBD58 SWAP12 SWAP16 0xbc 0x47 0xc8 PUSH20 0xFB5FF50B73FA0029000000000000000000000000 "
				},
				"gasEstimates": {
					"creation": {
						"codeDepositCost": "113200",
						"executionCost": "159",
						"totalCost": "113359"
					},
					"external": {
						"approve()": "infinite",
						"approver()": "559",
						"deposit(address,address,address,int256)": "61074",
						"receiver()": "647",
						"sender()": "603",
						"viewApprover()": "625"
					}
				},
				"methodIdentifiers": {
					"approve()": "12424e3f",
					"approver()": "141a8dd8",
					"deposit(address,address,address,int256)": "322e27f8",
					"receiver()": "f7260d3e",
					"sender()": "67e404ce",
					"viewApprover()": "d93ce89c"
				}
			},
			"userdoc": {
				"methods": {}
			}
		}
	}
}