{
	"contracts/SendMoney.sol": {
		"SendMoney": {
			"abi": [
				{
					"constant": false,
					"inputs": [],
					"name": "sendAmount",
					"outputs": [],
					"payable": true,
					"stateMutability": "payable",
					"type": "function"
				},
				{
					"constant": true,
					"inputs": [],
					"name": "receiver",
					"outputs": [
						{
							"name": "",
							"type": "address"
						}
					],
					"payable": false,
					"stateMutability": "view",
					"type": "function"
				}
			],
			"devdoc": {
				"methods": {}
			},
			"evm": {
				"assembly": "    /* \"contracts/SendMoney.sol\":134:321  contract SendMoney\r... */\n  mstore(0x40, 0x80)\n    /* \"contracts/SendMoney.sol\":163:232  address public receiver =  0x6B39c13d692098414FB49A89efDa79F88199200B */\n  0x0\n  dup1\n  sload\n  not(sub(exp(0x2, 0xa0), 0x1))\n  and\n    /* \"contracts/SendMoney.sol\":190:232  0x6B39c13d692098414FB49A89efDa79F88199200B */\n  0x6b39c13d692098414fb49a89efda79f88199200b\n    /* \"contracts/SendMoney.sol\":163:232  address public receiver =  0x6B39c13d692098414FB49A89efDa79F88199200B */\n  or\n  swap1\n  sstore\n    /* \"contracts/SendMoney.sol\":134:321  contract SendMoney\r... */\n  callvalue\n    /* \"--CODEGEN--\":5:7   */\n  dup1\n  iszero\n  tag_1\n  jumpi\n    /* \"--CODEGEN--\":30:31   */\n  0x0\n    /* \"--CODEGEN--\":27:28   */\n  dup1\n    /* \"--CODEGEN--\":20:32   */\n  revert\n    /* \"--CODEGEN--\":5:7   */\ntag_1:\n    /* \"contracts/SendMoney.sol\":134:321  contract SendMoney\r... */\n  pop\n  dataSize(sub_0)\n  dup1\n  dataOffset(sub_0)\n  0x0\n  codecopy\n  0x0\n  return\nstop\n\nsub_0: assembly {\n        /* \"contracts/SendMoney.sol\":134:321  contract SendMoney\r... */\n      mstore(0x40, 0x80)\n      jumpi(tag_1, lt(calldatasize, 0x4))\n      and(div(calldataload(0x0), 0x100000000000000000000000000000000000000000000000000000000), 0xffffffff)\n      0x8b2b3d8b\n      dup2\n      eq\n      tag_2\n      jumpi\n      dup1\n      0xf7260d3e\n      eq\n      tag_3\n      jumpi\n    tag_1:\n      0x0\n      dup1\n      revert\n        /* \"contracts/SendMoney.sol\":239:314  function sendAmount() external payable {  \r... */\n    tag_2:\n      tag_4\n      jump(tag_5)\n    tag_4:\n      stop\n        /* \"contracts/SendMoney.sol\":163:232  address public receiver =  0x6B39c13d692098414FB49A89efDa79F88199200B */\n    tag_3:\n      callvalue\n        /* \"--CODEGEN--\":8:17   */\n      dup1\n        /* \"--CODEGEN--\":5:7   */\n      iszero\n      tag_6\n      jumpi\n        /* \"--CODEGEN--\":30:31   */\n      0x0\n        /* \"--CODEGEN--\":27:28   */\n      dup1\n        /* \"--CODEGEN--\":20:32   */\n      revert\n        /* \"--CODEGEN--\":5:7   */\n    tag_6:\n        /* \"contracts/SendMoney.sol\":163:232  address public receiver =  0x6B39c13d692098414FB49A89efDa79F88199200B */\n      pop\n      tag_7\n      jump(tag_8)\n    tag_7:\n      0x40\n      dup1\n      mload\n      0xffffffffffffffffffffffffffffffffffffffff\n      swap1\n      swap3\n      and\n      dup3\n      mstore\n      mload\n      swap1\n      dup2\n      swap1\n      sub\n      0x20\n      add\n      swap1\n      return\n        /* \"contracts/SendMoney.sol\":239:314  function sendAmount() external payable {  \r... */\n    tag_5:\n        /* \"contracts/SendMoney.sol\":288:296  receiver */\n      0x0\n      dup1\n      sload\n        /* \"contracts/SendMoney.sol\":288:308  receiver.transfer(1) */\n      mload(0x40)\n        /* \"contracts/SendMoney.sol\":288:296  receiver */\n      0xffffffffffffffffffffffffffffffffffffffff\n      swap1\n      swap2\n      and\n      swap2\n      swap1\n      0x1\n      swap1\n      dup3\n        /* \"contracts/SendMoney.sol\":288:308  receiver.transfer(1) */\n      dup2\n        /* \"contracts/SendMoney.sol\":288:296  receiver */\n      dup2\n        /* \"contracts/SendMoney.sol\":288:308  receiver.transfer(1) */\n      dup2\n        /* \"contracts/SendMoney.sol\":288:296  receiver */\n      dup6\n      dup9\n      dup4\n        /* \"contracts/SendMoney.sol\":288:308  receiver.transfer(1) */\n      call\n      swap4\n      pop\n      pop\n      pop\n      pop\n      iszero\n        /* \"--CODEGEN--\":8:17   */\n      dup1\n        /* \"--CODEGEN--\":5:7   */\n      iszero\n      tag_10\n      jumpi\n        /* \"--CODEGEN--\":45:61   */\n      returndatasize\n        /* \"--CODEGEN--\":42:43   */\n      0x0\n        /* \"--CODEGEN--\":39:40   */\n      dup1\n        /* \"--CODEGEN--\":24:62   */\n      returndatacopy\n        /* \"--CODEGEN--\":77:93   */\n      returndatasize\n        /* \"--CODEGEN--\":74:75   */\n      0x0\n        /* \"--CODEGEN--\":67:94   */\n      revert\n        /* \"--CODEGEN--\":5:7   */\n    tag_10:\n        /* \"contracts/SendMoney.sol\":288:308  receiver.transfer(1) */\n      pop\n        /* \"contracts/SendMoney.sol\":239:314  function sendAmount() external payable {  \r... */\n      jump\t// out\n        /* \"contracts/SendMoney.sol\":163:232  address public receiver =  0x6B39c13d692098414FB49A89efDa79F88199200B */\n    tag_8:\n      and(0xffffffffffffffffffffffffffffffffffffffff, sload(0x0))\n      dup2\n      jump\t// out\n\n    auxdata: 0xa165627a7a72305820a5d898408e0fa5874192af51851bc83352cfca8276062aea34808fbf89068cca0029\n}\n",
				"bytecode": {
					"linkReferences": {},
					"object": "608060405260008054600160a060020a031916736b39c13d692098414fb49a89efda79f88199200b17905534801561003657600080fd5b5061011c806100466000396000f30060806040526004361060485763ffffffff7c01000000000000000000000000000000000000000000000000000000006000350416638b2b3d8b8114604d578063f7260d3e146055575b600080fd5b60536090565b005b348015606057600080fd5b50606760d4565b6040805173ffffffffffffffffffffffffffffffffffffffff9092168252519081900360200190f35b6000805460405173ffffffffffffffffffffffffffffffffffffffff909116919060019082818181858883f1935050505015801560d1573d6000803e3d6000fd5b50565b60005473ffffffffffffffffffffffffffffffffffffffff16815600a165627a7a72305820a5d898408e0fa5874192af51851bc83352cfca8276062aea34808fbf89068cca0029",
					"opcodes": "PUSH1 0x80 PUSH1 0x40 MSTORE PUSH1 0x0 DUP1 SLOAD PUSH1 0x1 PUSH1 0xA0 PUSH1 0x2 EXP SUB NOT AND PUSH20 0x6B39C13D692098414FB49A89EFDA79F88199200B OR SWAP1 SSTORE CALLVALUE DUP1 ISZERO PUSH2 0x36 JUMPI PUSH1 0x0 DUP1 REVERT JUMPDEST POP PUSH2 0x11C DUP1 PUSH2 0x46 PUSH1 0x0 CODECOPY PUSH1 0x0 RETURN STOP PUSH1 0x80 PUSH1 0x40 MSTORE PUSH1 0x4 CALLDATASIZE LT PUSH1 0x48 JUMPI PUSH4 0xFFFFFFFF PUSH29 0x100000000000000000000000000000000000000000000000000000000 PUSH1 0x0 CALLDATALOAD DIV AND PUSH4 0x8B2B3D8B DUP2 EQ PUSH1 0x4D JUMPI DUP1 PUSH4 0xF7260D3E EQ PUSH1 0x55 JUMPI JUMPDEST PUSH1 0x0 DUP1 REVERT JUMPDEST PUSH1 0x53 PUSH1 0x90 JUMP JUMPDEST STOP JUMPDEST CALLVALUE DUP1 ISZERO PUSH1 0x60 JUMPI PUSH1 0x0 DUP1 REVERT JUMPDEST POP PUSH1 0x67 PUSH1 0xD4 JUMP JUMPDEST PUSH1 0x40 DUP1 MLOAD PUSH20 0xFFFFFFFFFFFFFFFFFFFFFFFFFFFFFFFFFFFFFFFF SWAP1 SWAP3 AND DUP3 MSTORE MLOAD SWAP1 DUP2 SWAP1 SUB PUSH1 0x20 ADD SWAP1 RETURN JUMPDEST PUSH1 0x0 DUP1 SLOAD PUSH1 0x40 MLOAD PUSH20 0xFFFFFFFFFFFFFFFFFFFFFFFFFFFFFFFFFFFFFFFF SWAP1 SWAP2 AND SWAP2 SWAP1 PUSH1 0x1 SWAP1 DUP3 DUP2 DUP2 DUP2 DUP6 DUP9 DUP4 CALL SWAP4 POP POP POP POP ISZERO DUP1 ISZERO PUSH1 0xD1 JUMPI RETURNDATASIZE PUSH1 0x0 DUP1 RETURNDATACOPY RETURNDATASIZE PUSH1 0x0 REVERT JUMPDEST POP JUMP JUMPDEST PUSH1 0x0 SLOAD PUSH20 0xFFFFFFFFFFFFFFFFFFFFFFFFFFFFFFFFFFFFFFFF AND DUP2 JUMP STOP LOG1 PUSH6 0x627A7A723058 KECCAK256 0xa5 0xd8 SWAP9 BLOCKHASH DUP15 0xf 0xa5 DUP8 COINBASE SWAP3 0xaf MLOAD DUP6 SHL 0xc8 CALLER MSTORE 0xcf 0xca DUP3 PUSH23 0x62AEA34808FBF89068CCA002900000000000000000000 "
				},
				"gasEstimates": {
					"creation": {
						"codeDepositCost": "56800",
						"executionCost": "20398",
						"totalCost": "77198"
					},
					"external": {
						"receiver()": "421",
						"sendAmount()": "infinite"
					}
				},
				"methodIdentifiers": {
					"receiver()": "f7260d3e",
					"sendAmount()": "8b2b3d8b"
				}
			},
			"userdoc": {
				"methods": {}
			}
		}
	}
}