{
	"contracts/TestTransfer.sol": {
		"MyFirstContract": {
			"abi": [
				{
					"payable": true,
					"stateMutability": "payable",
					"type": "fallback"
				},
				{
					"constant": true,
					"inputs": [],
					"name": "getBalance",
					"outputs": [
						{
							"internalType": "uint256",
							"name": "",
							"type": "uint256"
						}
					],
					"payable": false,
					"stateMutability": "view",
					"type": "function"
				},
				{
					"constant": true,
					"inputs": [],
					"name": "receiver",
					"outputs": [
						{
							"internalType": "address payable",
							"name": "",
							"type": "address"
						}
					],
					"payable": false,
					"stateMutability": "view",
					"type": "function"
				},
				{
					"constant": false,
					"inputs": [
						{
							"internalType": "address payable",
							"name": "_To",
							"type": "address"
						}
					],
					"name": "send",
					"outputs": [
						{
							"internalType": "bool",
							"name": "",
							"type": "bool"
						}
					],
					"payable": true,
					"stateMutability": "payable",
					"type": "function"
				}
			],
			"devdoc": {
				"methods": {}
			},
			"evm": {
				"assembly": "    /* \"contracts/TestTransfer.sol\":93:489  contract MyFirstContract\r... */\n  mstore(0x40, 0x80)\n  callvalue\n    /* \"--CODEGEN--\":8:17   */\n  dup1\n    /* \"--CODEGEN--\":5:7   */\n  iszero\n  tag_1\n  jumpi\n    /* \"--CODEGEN--\":30:31   */\n  0x00\n    /* \"--CODEGEN--\":27:28   */\n  dup1\n    /* \"--CODEGEN--\":20:32   */\n  revert\n    /* \"--CODEGEN--\":5:7   */\ntag_1:\n    /* \"contracts/TestTransfer.sol\":93:489  contract MyFirstContract\r... */\n  pop\n  dataSize(sub_0)\n  dup1\n  dataOffset(sub_0)\n  0x00\n  codecopy\n  0x00\n  return\nstop\n\nsub_0: assembly {\n        /* \"contracts/TestTransfer.sol\":93:489  contract MyFirstContract\r... */\n      mstore(0x40, 0x80)\n      jumpi(tag_1, lt(calldatasize, 0x04))\n      shr(0xe0, calldataload(0x00))\n      dup1\n      0x12065fe0\n      eq\n      tag_2\n      jumpi\n      dup1\n      0x3e58c58c\n      eq\n      tag_3\n      jumpi\n      dup1\n      0xf7260d3e\n      eq\n      tag_4\n      jumpi\n    tag_1:\n      stop\n        /* \"contracts/TestTransfer.sol\":205:317  function getBalance() public view returns(uint)\r... */\n    tag_2:\n      callvalue\n        /* \"--CODEGEN--\":8:17   */\n      dup1\n        /* \"--CODEGEN--\":5:7   */\n      iszero\n      tag_7\n      jumpi\n        /* \"--CODEGEN--\":30:31   */\n      0x00\n        /* \"--CODEGEN--\":27:28   */\n      dup1\n        /* \"--CODEGEN--\":20:32   */\n      revert\n        /* \"--CODEGEN--\":5:7   */\n    tag_7:\n        /* \"contracts/TestTransfer.sol\":205:317  function getBalance() public view returns(uint)\r... */\n      pop\n      tag_8\n      tag_9\n      jump\t// in\n    tag_8:\n      0x40\n      dup1\n      mload\n      swap2\n      dup3\n      mstore\n      mload\n      swap1\n      dup2\n      swap1\n      sub\n      0x20\n      add\n      swap1\n      return\n        /* \"contracts/TestTransfer.sol\":333:486  function send(address payable _To )public payable returns (bool)\r... */\n    tag_3:\n      tag_10\n      0x04\n      dup1\n      calldatasize\n      sub\n        /* \"--CODEGEN--\":13:15   */\n      0x20\n        /* \"--CODEGEN--\":8:11   */\n      dup2\n        /* \"--CODEGEN--\":5:16   */\n      lt\n        /* \"--CODEGEN--\":2:4   */\n      iszero\n      tag_11\n      jumpi\n        /* \"--CODEGEN--\":29:30   */\n      0x00\n        /* \"--CODEGEN--\":26:27   */\n      dup1\n        /* \"--CODEGEN--\":19:31   */\n      revert\n        /* \"--CODEGEN--\":2:4   */\n    tag_11:\n      pop\n        /* \"contracts/TestTransfer.sol\":333:486  function send(address payable _To )public payable returns (bool)\r... */\n      calldataload\n      sub(shl(0xa0, 0x01), 0x01)\n      and\n      tag_12\n      jump\t// in\n    tag_10:\n      0x40\n      dup1\n      mload\n      swap2\n      iszero\n      iszero\n      dup3\n      mstore\n      mload\n      swap1\n      dup2\n      swap1\n      sub\n      0x20\n      add\n      swap1\n      return\n        /* \"contracts/TestTransfer.sol\":126:157  address payable public receiver */\n    tag_4:\n      callvalue\n        /* \"--CODEGEN--\":8:17   */\n      dup1\n        /* \"--CODEGEN--\":5:7   */\n      iszero\n      tag_13\n      jumpi\n        /* \"--CODEGEN--\":30:31   */\n      0x00\n        /* \"--CODEGEN--\":27:28   */\n      dup1\n        /* \"--CODEGEN--\":20:32   */\n      revert\n        /* \"--CODEGEN--\":5:7   */\n    tag_13:\n        /* \"contracts/TestTransfer.sol\":126:157  address payable public receiver */\n      pop\n      tag_14\n      tag_15\n      jump\t// in\n    tag_14:\n      0x40\n      dup1\n      mload\n      sub(shl(0xa0, 0x01), 0x01)\n      swap1\n      swap3\n      and\n      dup3\n      mstore\n      mload\n      swap1\n      dup2\n      swap1\n      sub\n      0x20\n      add\n      swap1\n      return\n        /* \"contracts/TestTransfer.sol\":205:317  function getBalance() public view returns(uint)\r... */\n    tag_9:\n        /* \"contracts/TestTransfer.sol\":284:305  address(this).balance */\n      selfbalance\n        /* \"contracts/TestTransfer.sol\":205:317  function getBalance() public view returns(uint)\r... */\n      swap1\n      jump\t// out\n        /* \"contracts/TestTransfer.sol\":333:486  function send(address payable _To )public payable returns (bool)\r... */\n    tag_12:\n        /* \"contracts/TestTransfer.sol\":392:396  bool */\n      0x00\n        /* \"contracts/TestTransfer.sol\":414:428  receiver = _To */\n      dup1\n      sload\n      sub(shl(0xa0, 0x01), 0x01)\n      dup4\n      and\n      not(sub(shl(0xa0, 0x01), 0x01))\n      swap1\n      swap2\n      and\n      dup2\n      or\n      dup3\n      sstore\n        /* \"contracts/TestTransfer.sol\":436:459  _To.transfer(msg.value) */\n      mload(0x40)\n        /* \"contracts/TestTransfer.sol\":449:458  msg.value */\n      callvalue\n        /* \"contracts/TestTransfer.sol\":436:459  _To.transfer(msg.value) */\n      dup1\n      iszero\n      0x08fc\n      mul\n      swap2\n        /* \"contracts/TestTransfer.sol\":392:396  bool */\n      dup5\n        /* \"contracts/TestTransfer.sol\":436:459  _To.transfer(msg.value) */\n      dup2\n        /* \"contracts/TestTransfer.sol\":392:396  bool */\n      dup2\n        /* \"contracts/TestTransfer.sol\":436:459  _To.transfer(msg.value) */\n      dup2\n        /* \"contracts/TestTransfer.sol\":449:458  msg.value */\n      dup6\n        /* \"contracts/TestTransfer.sol\":414:428  receiver = _To */\n      dup9\n        /* \"contracts/TestTransfer.sol\":436:459  _To.transfer(msg.value) */\n      dup9\n      call\n      swap4\n      pop\n      pop\n      pop\n      pop\n      iszero\n        /* \"--CODEGEN--\":8:17   */\n      dup1\n        /* \"--CODEGEN--\":5:7   */\n      iszero\n      tag_18\n      jumpi\n        /* \"--CODEGEN--\":45:61   */\n      returndatasize\n        /* \"--CODEGEN--\":42:43   */\n      0x00\n        /* \"--CODEGEN--\":39:40   */\n      dup1\n        /* \"--CODEGEN--\":24:62   */\n      returndatacopy\n        /* \"--CODEGEN--\":77:93   */\n      returndatasize\n        /* \"--CODEGEN--\":74:75   */\n      0x00\n        /* \"--CODEGEN--\":67:94   */\n      revert\n        /* \"--CODEGEN--\":5:7   */\n    tag_18:\n      pop\n        /* \"contracts/TestTransfer.sol\":474:478  true */\n      0x01\n      swap3\n        /* \"contracts/TestTransfer.sol\":333:486  function send(address payable _To )public payable returns (bool)\r... */\n      swap2\n      pop\n      pop\n      jump\t// out\n        /* \"contracts/TestTransfer.sol\":126:157  address payable public receiver */\n    tag_15:\n      and(sub(shl(0xa0, 0x01), 0x01), sload(0x00))\n      dup2\n      jump\t// out\n\n    auxdata: 0xa265627a7a72315820822a60a47bf735127d3df6568532f8706789c41229dada122757f862b16f6c7564736f6c63430005110032\n}\n",
				"bytecode": {
					"linkReferences": {},
					"object": "608060405234801561001057600080fd5b50610160806100206000396000f3fe6080604052600436106100345760003560e01c806312065fe0146100365780633e58c58c1461005d578063f7260d3e14610097575b005b34801561004257600080fd5b5061004b6100c8565b60408051918252519081900360200190f35b6100836004803603602081101561007357600080fd5b50356001600160a01b03166100cc565b604080519115158252519081900360200190f35b3480156100a357600080fd5b506100ac61011c565b604080516001600160a01b039092168252519081900360200190f35b4790565b600080546001600160a01b0383166001600160a01b0319909116811782556040513480156108fc029184818181858888f19350505050158015610113573d6000803e3d6000fd5b50600192915050565b6000546001600160a01b03168156fea265627a7a72315820822a60a47bf735127d3df6568532f8706789c41229dada122757f862b16f6c7564736f6c63430005110032",
					"opcodes": "PUSH1 0x80 PUSH1 0x40 MSTORE CALLVALUE DUP1 ISZERO PUSH2 0x10 JUMPI PUSH1 0x0 DUP1 REVERT JUMPDEST POP PUSH2 0x160 DUP1 PUSH2 0x20 PUSH1 0x0 CODECOPY PUSH1 0x0 RETURN INVALID PUSH1 0x80 PUSH1 0x40 MSTORE PUSH1 0x4 CALLDATASIZE LT PUSH2 0x34 JUMPI PUSH1 0x0 CALLDATALOAD PUSH1 0xE0 SHR DUP1 PUSH4 0x12065FE0 EQ PUSH2 0x36 JUMPI DUP1 PUSH4 0x3E58C58C EQ PUSH2 0x5D JUMPI DUP1 PUSH4 0xF7260D3E EQ PUSH2 0x97 JUMPI JUMPDEST STOP JUMPDEST CALLVALUE DUP1 ISZERO PUSH2 0x42 JUMPI PUSH1 0x0 DUP1 REVERT JUMPDEST POP PUSH2 0x4B PUSH2 0xC8 JUMP JUMPDEST PUSH1 0x40 DUP1 MLOAD SWAP2 DUP3 MSTORE MLOAD SWAP1 DUP2 SWAP1 SUB PUSH1 0x20 ADD SWAP1 RETURN JUMPDEST PUSH2 0x83 PUSH1 0x4 DUP1 CALLDATASIZE SUB PUSH1 0x20 DUP2 LT ISZERO PUSH2 0x73 JUMPI PUSH1 0x0 DUP1 REVERT JUMPDEST POP CALLDATALOAD PUSH1 0x1 PUSH1 0x1 PUSH1 0xA0 SHL SUB AND PUSH2 0xCC JUMP JUMPDEST PUSH1 0x40 DUP1 MLOAD SWAP2 ISZERO ISZERO DUP3 MSTORE MLOAD SWAP1 DUP2 SWAP1 SUB PUSH1 0x20 ADD SWAP1 RETURN JUMPDEST CALLVALUE DUP1 ISZERO PUSH2 0xA3 JUMPI PUSH1 0x0 DUP1 REVERT JUMPDEST POP PUSH2 0xAC PUSH2 0x11C JUMP JUMPDEST PUSH1 0x40 DUP1 MLOAD PUSH1 0x1 PUSH1 0x1 PUSH1 0xA0 SHL SUB SWAP1 SWAP3 AND DUP3 MSTORE MLOAD SWAP1 DUP2 SWAP1 SUB PUSH1 0x20 ADD SWAP1 RETURN JUMPDEST SELFBALANCE SWAP1 JUMP JUMPDEST PUSH1 0x0 DUP1 SLOAD PUSH1 0x1 PUSH1 0x1 PUSH1 0xA0 SHL SUB DUP4 AND PUSH1 0x1 PUSH1 0x1 PUSH1 0xA0 SHL SUB NOT SWAP1 SWAP2 AND DUP2 OR DUP3 SSTORE PUSH1 0x40 MLOAD CALLVALUE DUP1 ISZERO PUSH2 0x8FC MUL SWAP2 DUP5 DUP2 DUP2 DUP2 DUP6 DUP9 DUP9 CALL SWAP4 POP POP POP POP ISZERO DUP1 ISZERO PUSH2 0x113 JUMPI RETURNDATASIZE PUSH1 0x0 DUP1 RETURNDATACOPY RETURNDATASIZE PUSH1 0x0 REVERT JUMPDEST POP PUSH1 0x1 SWAP3 SWAP2 POP POP JUMP JUMPDEST PUSH1 0x0 SLOAD PUSH1 0x1 PUSH1 0x1 PUSH1 0xA0 SHL SUB AND DUP2 JUMP INVALID LOG2 PUSH6 0x627A7A723158 KECCAK256 DUP3 0x2A PUSH1 0xA4 PUSH28 0xF735127D3DF6568532F8706789C41229DADA122757F862B16F6C7564 PUSH20 0x6F6C634300051100320000000000000000000000 "
				},
				"gasEstimates": {
					"creation": {
						"codeDepositCost": "70400",
						"executionCost": "117",
						"totalCost": "70517"
					},
					"external": {
						"": "118",
						"getBalance()": "178",
						"receiver()": "1059",
						"send(address)": "infinite"
					}
				},
				"methodIdentifiers": {
					"getBalance()": "12065fe0",
					"receiver()": "f7260d3e",
					"send(address)": "3e58c58c"
				}
			},
			"storageLayout": {
				"storage": [
					{
						"astId": 3,
						"contract": "contracts/TestTransfer.sol:MyFirstContract",
						"label": "receiver",
						"offset": 0,
						"slot": "0",
						"type": "t_address_payable"
					}
				],
				"types": {
					"t_address_payable": {
						"encoding": "inplace",
						"label": "address payable",
						"numberOfBytes": "20"
					}
				}
			},
			"userdoc": {
				"methods": {}
			}
		}
	}
}