{
	"contracts/SendMoneyWithApproval.sol": {
		"SendMoneyWithApproval": {
			"abi": [
				{
					"constant": false,
					"inputs": [],
					"name": "approve",
					"outputs": [],
					"payable": false,
					"stateMutability": "nonpayable",
					"type": "function"
				},
				{
					"constant": true,
					"inputs": [],
					"name": "approver",
					"outputs": [
						{
							"name": "",
							"type": "address"
						}
					],
					"payable": false,
					"stateMutability": "view",
					"type": "function"
				},
				{
					"constant": false,
					"inputs": [
						{
							"name": "_sender",
							"type": "address"
						},
						{
							"name": "_receiver",
							"type": "address"
						},
						{
							"name": "_approver",
							"type": "address"
						},
						{
							"name": "amount",
							"type": "int256"
						}
					],
					"name": "deposit",
					"outputs": [],
					"payable": true,
					"stateMutability": "payable",
					"type": "function"
				},
				{
					"constant": true,
					"inputs": [],
					"name": "sender",
					"outputs": [
						{
							"name": "",
							"type": "address"
						}
					],
					"payable": false,
					"stateMutability": "view",
					"type": "function"
				},
				{
					"constant": true,
					"inputs": [],
					"name": "amount",
					"outputs": [
						{
							"name": "",
							"type": "int256"
						}
					],
					"payable": false,
					"stateMutability": "view",
					"type": "function"
				},
				{
					"constant": true,
					"inputs": [],
					"name": "viewApprover",
					"outputs": [
						{
							"name": "",
							"type": "address"
						}
					],
					"payable": false,
					"stateMutability": "view",
					"type": "function"
				},
				{
					"constant": true,
					"inputs": [],
					"name": "receiver",
					"outputs": [
						{
							"name": "",
							"type": "address"
						}
					],
					"payable": false,
					"stateMutability": "view",
					"type": "function"
				}
			],
			"devdoc": {
				"methods": {}
			},
			"evm": {
				"assembly": "    /* \"contracts/SendMoneyWithApproval.sol\":134:795  contract SendMoneyWithApproval\r... */\n  mstore(0x40, 0x80)\n  callvalue\n    /* \"--CODEGEN--\":8:17   */\n  dup1\n    /* \"--CODEGEN--\":5:7   */\n  iszero\n  tag_1\n  jumpi\n    /* \"--CODEGEN--\":30:31   */\n  0x0\n    /* \"--CODEGEN--\":27:28   */\n  dup1\n    /* \"--CODEGEN--\":20:32   */\n  revert\n    /* \"--CODEGEN--\":5:7   */\ntag_1:\n    /* \"contracts/SendMoneyWithApproval.sol\":134:795  contract SendMoneyWithApproval\r... */\n  pop\n  dataSize(sub_0)\n  dup1\n  dataOffset(sub_0)\n  0x0\n  codecopy\n  0x0\n  return\nstop\n\nsub_0: assembly {\n        /* \"contracts/SendMoneyWithApproval.sol\":134:795  contract SendMoneyWithApproval\r... */\n      mstore(0x40, 0x80)\n      jumpi(tag_1, lt(calldatasize, 0x4))\n      and(div(calldataload(0x0), 0x100000000000000000000000000000000000000000000000000000000), 0xffffffff)\n      0x12424e3f\n      dup2\n      eq\n      tag_2\n      jumpi\n      dup1\n      0x141a8dd8\n      eq\n      tag_3\n      jumpi\n      dup1\n      0x322e27f8\n      eq\n      tag_4\n      jumpi\n      dup1\n      0x67e404ce\n      eq\n      tag_5\n      jumpi\n      dup1\n      0xaa8c217c\n      eq\n      tag_6\n      jumpi\n      dup1\n      0xd93ce89c\n      eq\n      tag_7\n      jumpi\n      dup1\n      0xf7260d3e\n      eq\n      tag_8\n      jumpi\n    tag_1:\n      0x0\n      dup1\n      revert\n        /* \"contracts/SendMoneyWithApproval.sol\":593:695  function approve() external {\r... */\n    tag_2:\n      callvalue\n        /* \"--CODEGEN--\":8:17   */\n      dup1\n        /* \"--CODEGEN--\":5:7   */\n      iszero\n      tag_9\n      jumpi\n        /* \"--CODEGEN--\":30:31   */\n      0x0\n        /* \"--CODEGEN--\":27:28   */\n      dup1\n        /* \"--CODEGEN--\":20:32   */\n      revert\n        /* \"--CODEGEN--\":5:7   */\n    tag_9:\n        /* \"contracts/SendMoneyWithApproval.sol\":593:695  function approve() external {\r... */\n      pop\n      tag_10\n      jump(tag_11)\n    tag_10:\n      stop\n        /* \"contracts/SendMoneyWithApproval.sol\":231:254  address public approver */\n    tag_3:\n      callvalue\n        /* \"--CODEGEN--\":8:17   */\n      dup1\n        /* \"--CODEGEN--\":5:7   */\n      iszero\n      tag_12\n      jumpi\n        /* \"--CODEGEN--\":30:31   */\n      0x0\n        /* \"--CODEGEN--\":27:28   */\n      dup1\n        /* \"--CODEGEN--\":20:32   */\n      revert\n        /* \"--CODEGEN--\":5:7   */\n    tag_12:\n        /* \"contracts/SendMoneyWithApproval.sol\":231:254  address public approver */\n      pop\n      tag_13\n      jump(tag_14)\n    tag_13:\n      0x40\n      dup1\n      mload\n      sub(exp(0x2, 0xa0), 0x1)\n      swap1\n      swap3\n      and\n      dup3\n      mstore\n      mload\n      swap1\n      dup2\n      swap1\n      sub\n      0x20\n      add\n      swap1\n      return\n        /* \"contracts/SendMoneyWithApproval.sol\":285:498  function deposit(address _sender, address _receiver, address _approver, int amount) external payable {\r... */\n    tag_4:\n      tag_10\n      sub(exp(0x2, 0xa0), 0x1)\n      calldataload(0x4)\n      dup2\n      and\n      swap1\n      calldataload(0x24)\n      dup2\n      and\n      swap1\n      calldataload(0x44)\n      and\n      calldataload(0x64)\n      jump(tag_16)\n        /* \"contracts/SendMoneyWithApproval.sol\":173:194  address public sender */\n    tag_5:\n      callvalue\n        /* \"--CODEGEN--\":8:17   */\n      dup1\n        /* \"--CODEGEN--\":5:7   */\n      iszero\n      tag_17\n      jumpi\n        /* \"--CODEGEN--\":30:31   */\n      0x0\n        /* \"--CODEGEN--\":27:28   */\n      dup1\n        /* \"--CODEGEN--\":20:32   */\n      revert\n        /* \"--CODEGEN--\":5:7   */\n    tag_17:\n        /* \"contracts/SendMoneyWithApproval.sol\":173:194  address public sender */\n      pop\n      tag_13\n      jump(tag_19)\n        /* \"contracts/SendMoneyWithApproval.sol\":261:278  int public amount */\n    tag_6:\n      callvalue\n        /* \"--CODEGEN--\":8:17   */\n      dup1\n        /* \"--CODEGEN--\":5:7   */\n      iszero\n      tag_20\n      jumpi\n        /* \"--CODEGEN--\":30:31   */\n      0x0\n        /* \"--CODEGEN--\":27:28   */\n      dup1\n        /* \"--CODEGEN--\":20:32   */\n      revert\n        /* \"--CODEGEN--\":5:7   */\n    tag_20:\n        /* \"contracts/SendMoneyWithApproval.sol\":261:278  int public amount */\n      pop\n      tag_21\n      jump(tag_22)\n    tag_21:\n      0x40\n      dup1\n      mload\n      swap2\n      dup3\n      mstore\n      mload\n      swap1\n      dup2\n      swap1\n      sub\n      0x20\n      add\n      swap1\n      return\n        /* \"contracts/SendMoneyWithApproval.sol\":504:588  function viewApprover() external view returns(address) {\r... */\n    tag_7:\n      callvalue\n        /* \"--CODEGEN--\":8:17   */\n      dup1\n        /* \"--CODEGEN--\":5:7   */\n      iszero\n      tag_23\n      jumpi\n        /* \"--CODEGEN--\":30:31   */\n      0x0\n        /* \"--CODEGEN--\":27:28   */\n      dup1\n        /* \"--CODEGEN--\":20:32   */\n      revert\n        /* \"--CODEGEN--\":5:7   */\n    tag_23:\n        /* \"contracts/SendMoneyWithApproval.sol\":504:588  function viewApprover() external view returns(address) {\r... */\n      pop\n      tag_13\n      jump(tag_25)\n        /* \"contracts/SendMoneyWithApproval.sol\":201:224  address public receiver */\n    tag_8:\n      callvalue\n        /* \"--CODEGEN--\":8:17   */\n      dup1\n        /* \"--CODEGEN--\":5:7   */\n      iszero\n      tag_26\n      jumpi\n        /* \"--CODEGEN--\":30:31   */\n      0x0\n        /* \"--CODEGEN--\":27:28   */\n      dup1\n        /* \"--CODEGEN--\":20:32   */\n      revert\n        /* \"--CODEGEN--\":5:7   */\n    tag_26:\n        /* \"contracts/SendMoneyWithApproval.sol\":201:224  address public receiver */\n      pop\n      tag_13\n      jump(tag_28)\n        /* \"contracts/SendMoneyWithApproval.sol\":593:695  function approve() external {\r... */\n    tag_11:\n        /* \"contracts/SendMoneyWithApproval.sol\":650:658  approver */\n      and(sub(exp(0x2, 0xa0), 0x1), sload(0x2))\n        /* \"contracts/SendMoneyWithApproval.sol\":636:646  msg.sender */\n      caller\n        /* \"contracts/SendMoneyWithApproval.sol\":636:658  msg.sender == approver */\n      eq\n        /* \"contracts/SendMoneyWithApproval.sol\":628:659  require(msg.sender == approver) */\n      tag_30\n      jumpi\n      0x0\n      dup1\n      revert\n    tag_30:\n        /* \"contracts/SendMoneyWithApproval.sol\":667:675  receiver */\n      0x1\n      dup1\n      sload\n        /* \"contracts/SendMoneyWithApproval.sol\":666:688  (receiver).transfer(1) */\n      mload(0x40)\n      sub(exp(0x2, 0xa0), 0x1)\n        /* \"contracts/SendMoneyWithApproval.sol\":667:675  receiver */\n      swap1\n      swap2\n      and\n      swap2\n      0x0\n      swap2\n      dup3\n        /* \"contracts/SendMoneyWithApproval.sol\":666:688  (receiver).transfer(1) */\n      dup2\n        /* \"contracts/SendMoneyWithApproval.sol\":667:675  receiver */\n      dup2\n        /* \"contracts/SendMoneyWithApproval.sol\":666:688  (receiver).transfer(1) */\n      dup2\n        /* \"contracts/SendMoneyWithApproval.sol\":667:675  receiver */\n      dup6\n      dup9\n      dup4\n        /* \"contracts/SendMoneyWithApproval.sol\":666:688  (receiver).transfer(1) */\n      call\n      swap4\n      pop\n      pop\n      pop\n      pop\n      iszero\n        /* \"--CODEGEN--\":8:17   */\n      dup1\n        /* \"--CODEGEN--\":5:7   */\n      iszero\n      tag_31\n      jumpi\n        /* \"--CODEGEN--\":45:61   */\n      returndatasize\n        /* \"--CODEGEN--\":42:43   */\n      0x0\n        /* \"--CODEGEN--\":39:40   */\n      dup1\n        /* \"--CODEGEN--\":24:62   */\n      returndatacopy\n        /* \"--CODEGEN--\":77:93   */\n      returndatasize\n        /* \"--CODEGEN--\":74:75   */\n      0x0\n        /* \"--CODEGEN--\":67:94   */\n      revert\n        /* \"--CODEGEN--\":5:7   */\n    tag_31:\n        /* \"contracts/SendMoneyWithApproval.sol\":666:688  (receiver).transfer(1) */\n      pop\n        /* \"contracts/SendMoneyWithApproval.sol\":593:695  function approve() external {\r... */\n      jump\t// out\n        /* \"contracts/SendMoneyWithApproval.sol\":231:254  address public approver */\n    tag_14:\n      and(sub(exp(0x2, 0xa0), 0x1), sload(0x2))\n      dup2\n      jump\t// out\n        /* \"contracts/SendMoneyWithApproval.sol\":285:498  function deposit(address _sender, address _receiver, address _approver, int amount) external payable {\r... */\n    tag_16:\n        /* \"contracts/SendMoneyWithApproval.sol\":413:414  0 */\n      0x0\n        /* \"contracts/SendMoneyWithApproval.sol\":401:410  msg.value */\n      callvalue\n        /* \"contracts/SendMoneyWithApproval.sol\":401:414  msg.value > 0 */\n      gt\n        /* \"contracts/SendMoneyWithApproval.sol\":393:415  require(msg.value > 0) */\n      tag_33\n      jumpi\n      0x0\n      dup1\n      revert\n    tag_33:\n      pop\n        /* \"contracts/SendMoneyWithApproval.sol\":422:428  sender */\n      0x0\n        /* \"contracts/SendMoneyWithApproval.sol\":422:438  sender = _sender */\n      dup1\n      sload\n      sub(exp(0x2, 0xa0), 0x1)\n      swap5\n      dup6\n      and\n      not(0xffffffffffffffffffffffffffffffffffffffff)\n      swap2\n      dup3\n      and\n      or\n      swap1\n      swap2\n      sstore\n      0x1\n        /* \"contracts/SendMoneyWithApproval.sol\":445:465  receiver = _receiver */\n      dup1\n      sload\n      swap4\n      dup6\n      and\n      swap4\n      dup3\n      and\n      swap4\n      swap1\n      swap4\n      or\n      swap1\n      swap3\n      sstore\n        /* \"contracts/SendMoneyWithApproval.sol\":472:480  approver */\n      0x2\n        /* \"contracts/SendMoneyWithApproval.sol\":472:492  approver = _approver */\n      dup1\n      sload\n      swap2\n      swap1\n      swap4\n      and\n      swap2\n      and\n      or\n      swap1\n      sstore\n        /* \"contracts/SendMoneyWithApproval.sol\":285:498  function deposit(address _sender, address _receiver, address _approver, int amount) external payable {\r... */\n      jump\t// out\n        /* \"contracts/SendMoneyWithApproval.sol\":173:194  address public sender */\n    tag_19:\n      and(sub(exp(0x2, 0xa0), 0x1), sload(0x0))\n      dup2\n      jump\t// out\n        /* \"contracts/SendMoneyWithApproval.sol\":261:278  int public amount */\n    tag_22:\n      sload(0x3)\n      dup2\n      jump\t// out\n        /* \"contracts/SendMoneyWithApproval.sol\":504:588  function viewApprover() external view returns(address) {\r... */\n    tag_25:\n        /* \"contracts/SendMoneyWithApproval.sol\":573:581  approver */\n      and(sub(exp(0x2, 0xa0), 0x1), sload(0x2))\n        /* \"contracts/SendMoneyWithApproval.sol\":504:588  function viewApprover() external view returns(address) {\r... */\n      swap1\n      jump\t// out\n        /* \"contracts/SendMoneyWithApproval.sol\":201:224  address public receiver */\n    tag_28:\n      and(sub(exp(0x2, 0xa0), 0x1), sload(0x1))\n      dup2\n      jump\t// out\n\n    auxdata: 0xa165627a7a72305820fea6b5bb2c6d220cd43125bed2745bee0e08e9e9118d83b77bc762f41f4868870029\n}\n",
				"bytecode": {
					"linkReferences": {},
					"object": "608060405234801561001057600080fd5b5061026e806100206000396000f3006080604052600436106100825763ffffffff7c010000000000000000000000000000000000000000000000000000000060003504166312424e3f8114610087578063141a8dd81461009e578063322e27f8146100cf57806367e404ce146100f2578063aa8c217c14610107578063d93ce89c1461012e578063f7260d3e14610143575b600080fd5b34801561009357600080fd5b5061009c610158565b005b3480156100aa57600080fd5b506100b36101a6565b60408051600160a060020a039092168252519081900360200190f35b61009c600160a060020a03600435811690602435811690604435166064356101b5565b3480156100fe57600080fd5b506100b361020f565b34801561011357600080fd5b5061011c61021e565b60408051918252519081900360200190f35b34801561013a57600080fd5b506100b3610224565b34801561014f57600080fd5b506100b3610233565b600254600160a060020a0316331461016f57600080fd5b60018054604051600160a060020a039091169160009182818181858883f193505050501580156101a3573d6000803e3d6000fd5b50565b600254600160a060020a031681565b600034116101c257600080fd5b5060008054600160a060020a0394851673ffffffffffffffffffffffffffffffffffffffff1991821617909155600180549385169382169390931790925560028054919093169116179055565b600054600160a060020a031681565b60035481565b600254600160a060020a031690565b600154600160a060020a0316815600a165627a7a72305820fea6b5bb2c6d220cd43125bed2745bee0e08e9e9118d83b77bc762f41f4868870029",
					"opcodes": "PUSH1 0x80 PUSH1 0x40 MSTORE CALLVALUE DUP1 ISZERO PUSH2 0x10 JUMPI PUSH1 0x0 DUP1 REVERT JUMPDEST POP PUSH2 0x26E DUP1 PUSH2 0x20 PUSH1 0x0 CODECOPY PUSH1 0x0 RETURN STOP PUSH1 0x80 PUSH1 0x40 MSTORE PUSH1 0x4 CALLDATASIZE LT PUSH2 0x82 JUMPI PUSH4 0xFFFFFFFF PUSH29 0x100000000000000000000000000000000000000000000000000000000 PUSH1 0x0 CALLDATALOAD DIV AND PUSH4 0x12424E3F DUP2 EQ PUSH2 0x87 JUMPI DUP1 PUSH4 0x141A8DD8 EQ PUSH2 0x9E JUMPI DUP1 PUSH4 0x322E27F8 EQ PUSH2 0xCF JUMPI DUP1 PUSH4 0x67E404CE EQ PUSH2 0xF2 JUMPI DUP1 PUSH4 0xAA8C217C EQ PUSH2 0x107 JUMPI DUP1 PUSH4 0xD93CE89C EQ PUSH2 0x12E JUMPI DUP1 PUSH4 0xF7260D3E EQ PUSH2 0x143 JUMPI JUMPDEST PUSH1 0x0 DUP1 REVERT JUMPDEST CALLVALUE DUP1 ISZERO PUSH2 0x93 JUMPI PUSH1 0x0 DUP1 REVERT JUMPDEST POP PUSH2 0x9C PUSH2 0x158 JUMP JUMPDEST STOP JUMPDEST CALLVALUE DUP1 ISZERO PUSH2 0xAA JUMPI PUSH1 0x0 DUP1 REVERT JUMPDEST POP PUSH2 0xB3 PUSH2 0x1A6 JUMP JUMPDEST PUSH1 0x40 DUP1 MLOAD PUSH1 0x1 PUSH1 0xA0 PUSH1 0x2 EXP SUB SWAP1 SWAP3 AND DUP3 MSTORE MLOAD SWAP1 DUP2 SWAP1 SUB PUSH1 0x20 ADD SWAP1 RETURN JUMPDEST PUSH2 0x9C PUSH1 0x1 PUSH1 0xA0 PUSH1 0x2 EXP SUB PUSH1 0x4 CALLDATALOAD DUP2 AND SWAP1 PUSH1 0x24 CALLDATALOAD DUP2 AND SWAP1 PUSH1 0x44 CALLDATALOAD AND PUSH1 0x64 CALLDATALOAD PUSH2 0x1B5 JUMP JUMPDEST CALLVALUE DUP1 ISZERO PUSH2 0xFE JUMPI PUSH1 0x0 DUP1 REVERT JUMPDEST POP PUSH2 0xB3 PUSH2 0x20F JUMP JUMPDEST CALLVALUE DUP1 ISZERO PUSH2 0x113 JUMPI PUSH1 0x0 DUP1 REVERT JUMPDEST POP PUSH2 0x11C PUSH2 0x21E JUMP JUMPDEST PUSH1 0x40 DUP1 MLOAD SWAP2 DUP3 MSTORE MLOAD SWAP1 DUP2 SWAP1 SUB PUSH1 0x20 ADD SWAP1 RETURN JUMPDEST CALLVALUE DUP1 ISZERO PUSH2 0x13A JUMPI PUSH1 0x0 DUP1 REVERT JUMPDEST POP PUSH2 0xB3 PUSH2 0x224 JUMP JUMPDEST CALLVALUE DUP1 ISZERO PUSH2 0x14F JUMPI PUSH1 0x0 DUP1 REVERT JUMPDEST POP PUSH2 0xB3 PUSH2 0x233 JUMP JUMPDEST PUSH1 0x2 SLOAD PUSH1 0x1 PUSH1 0xA0 PUSH1 0x2 EXP SUB AND CALLER EQ PUSH2 0x16F JUMPI PUSH1 0x0 DUP1 REVERT JUMPDEST PUSH1 0x1 DUP1 SLOAD PUSH1 0x40 MLOAD PUSH1 0x1 PUSH1 0xA0 PUSH1 0x2 EXP SUB SWAP1 SWAP2 AND SWAP2 PUSH1 0x0 SWAP2 DUP3 DUP2 DUP2 DUP2 DUP6 DUP9 DUP4 CALL SWAP4 POP POP POP POP ISZERO DUP1 ISZERO PUSH2 0x1A3 JUMPI RETURNDATASIZE PUSH1 0x0 DUP1 RETURNDATACOPY RETURNDATASIZE PUSH1 0x0 REVERT JUMPDEST POP JUMP JUMPDEST PUSH1 0x2 SLOAD PUSH1 0x1 PUSH1 0xA0 PUSH1 0x2 EXP SUB AND DUP2 JUMP JUMPDEST PUSH1 0x0 CALLVALUE GT PUSH2 0x1C2 JUMPI PUSH1 0x0 DUP1 REVERT JUMPDEST POP PUSH1 0x0 DUP1 SLOAD PUSH1 0x1 PUSH1 0xA0 PUSH1 0x2 EXP SUB SWAP5 DUP6 AND PUSH20 0xFFFFFFFFFFFFFFFFFFFFFFFFFFFFFFFFFFFFFFFF NOT SWAP2 DUP3 AND OR SWAP1 SWAP2 SSTORE PUSH1 0x1 DUP1 SLOAD SWAP4 DUP6 AND SWAP4 DUP3 AND SWAP4 SWAP1 SWAP4 OR SWAP1 SWAP3 SSTORE PUSH1 0x2 DUP1 SLOAD SWAP2 SWAP1 SWAP4 AND SWAP2 AND OR SWAP1 SSTORE JUMP JUMPDEST PUSH1 0x0 SLOAD PUSH1 0x1 PUSH1 0xA0 PUSH1 0x2 EXP SUB AND DUP2 JUMP JUMPDEST PUSH1 0x3 SLOAD DUP2 JUMP JUMPDEST PUSH1 0x2 SLOAD PUSH1 0x1 PUSH1 0xA0 PUSH1 0x2 EXP SUB AND SWAP1 JUMP JUMPDEST PUSH1 0x1 SLOAD PUSH1 0x1 PUSH1 0xA0 PUSH1 0x2 EXP SUB AND DUP2 JUMP STOP LOG1 PUSH6 0x627A7A723058 KECCAK256 INVALID 0xa6 0xb5 0xbb 0x2c PUSH14 0x220CD43125BED2745BEE0E08E9E9 GT DUP14 DUP4 0xb7 PUSH28 0xC762F41F486887002900000000000000000000000000000000000000 "
				},
				"gasEstimates": {
					"creation": {
						"codeDepositCost": "124400",
						"executionCost": "171",
						"totalCost": "124571"
					},
					"external": {
						"amount()": "472",
						"approve()": "infinite",
						"approver()": "559",
						"deposit(address,address,address,int256)": "61074",
						"receiver()": "669",
						"sender()": "603",
						"viewApprover()": "647"
					}
				},
				"methodIdentifiers": {
					"amount()": "aa8c217c",
					"approve()": "12424e3f",
					"approver()": "141a8dd8",
					"deposit(address,address,address,int256)": "322e27f8",
					"receiver()": "f7260d3e",
					"sender()": "67e404ce",
					"viewApprover()": "d93ce89c"
				}
			},
			"userdoc": {
				"methods": {}
			}
		}
	}
}