{
	"contracts/SendMoneyWithApproval.sol": {
		"SendMoneyWithApproval": {
			"abi": [
				{
					"payable": true,
					"stateMutability": "payable",
					"type": "fallback"
				},
				{
					"constant": true,
					"inputs": [],
					"name": "amount",
					"outputs": [
						{
							"internalType": "uint256",
							"name": "",
							"type": "uint256"
						}
					],
					"payable": false,
					"stateMutability": "view",
					"type": "function"
				},
				{
					"constant": false,
					"inputs": [],
					"name": "approve",
					"outputs": [],
					"payable": false,
					"stateMutability": "nonpayable",
					"type": "function"
				},
				{
					"constant": true,
					"inputs": [],
					"name": "approver",
					"outputs": [
						{
							"internalType": "address",
							"name": "",
							"type": "address"
						}
					],
					"payable": false,
					"stateMutability": "view",
					"type": "function"
				},
				{
					"constant": false,
					"inputs": [
						{
							"internalType": "address",
							"name": "_sender",
							"type": "address"
						},
						{
							"internalType": "address payable",
							"name": "_receiver",
							"type": "address"
						},
						{
							"internalType": "address",
							"name": "_approver",
							"type": "address"
						},
						{
							"internalType": "uint256",
							"name": "_amount",
							"type": "uint256"
						}
					],
					"name": "deposit",
					"outputs": [],
					"payable": true,
					"stateMutability": "payable",
					"type": "function"
				},
				{
					"constant": true,
					"inputs": [],
					"name": "getBalance",
					"outputs": [
						{
							"internalType": "uint256",
							"name": "",
							"type": "uint256"
						}
					],
					"payable": false,
					"stateMutability": "view",
					"type": "function"
				},
				{
					"constant": true,
					"inputs": [],
					"name": "receiver",
					"outputs": [
						{
							"internalType": "address payable",
							"name": "",
							"type": "address"
						}
					],
					"payable": false,
					"stateMutability": "view",
					"type": "function"
				},
				{
					"constant": true,
					"inputs": [],
					"name": "sender",
					"outputs": [
						{
							"internalType": "address",
							"name": "",
							"type": "address"
						}
					],
					"payable": false,
					"stateMutability": "view",
					"type": "function"
				},
				{
					"constant": true,
					"inputs": [],
					"name": "viewApprover",
					"outputs": [
						{
							"internalType": "address",
							"name": "",
							"type": "address"
						}
					],
					"payable": false,
					"stateMutability": "view",
					"type": "function"
				}
			],
			"devdoc": {
				"methods": {}
			},
			"evm": {
				"assembly": "    /* \"contracts/SendMoneyWithApproval.sol\":26:841  contract SendMoneyWithApproval\r... */\n  mstore(0x40, 0x80)\n  callvalue\n    /* \"--CODEGEN--\":8:17   */\n  dup1\n    /* \"--CODEGEN--\":5:7   */\n  iszero\n  tag_1\n  jumpi\n    /* \"--CODEGEN--\":30:31   */\n  0x00\n    /* \"--CODEGEN--\":27:28   */\n  dup1\n    /* \"--CODEGEN--\":20:32   */\n  revert\n    /* \"--CODEGEN--\":5:7   */\ntag_1:\n    /* \"contracts/SendMoneyWithApproval.sol\":26:841  contract SendMoneyWithApproval\r... */\n  pop\n  dataSize(sub_0)\n  dup1\n  dataOffset(sub_0)\n  0x00\n  codecopy\n  0x00\n  return\nstop\n\nsub_0: assembly {\n        /* \"contracts/SendMoneyWithApproval.sol\":26:841  contract SendMoneyWithApproval\r... */\n      mstore(0x40, 0x80)\n      jumpi(tag_1, lt(calldatasize, 0x04))\n      shr(0xe0, calldataload(0x00))\n      dup1\n      0x67e404ce\n      gt\n      tag_10\n      jumpi\n      dup1\n      0x67e404ce\n      eq\n      tag_6\n      jumpi\n      dup1\n      0xaa8c217c\n      eq\n      tag_7\n      jumpi\n      dup1\n      0xd93ce89c\n      eq\n      tag_8\n      jumpi\n      dup1\n      0xf7260d3e\n      eq\n      tag_9\n      jumpi\n      jump(tag_1)\n    tag_10:\n      dup1\n      0x0284c3f5\n      eq\n      tag_2\n      jumpi\n      dup1\n      0x12065fe0\n      eq\n      tag_3\n      jumpi\n      dup1\n      0x12424e3f\n      eq\n      tag_4\n      jumpi\n      dup1\n      0x141a8dd8\n      eq\n      tag_5\n      jumpi\n    tag_1:\n      stop\n        /* \"contracts/SendMoneyWithApproval.sol\":223:438  function deposit(address _sender, address payable _receiver, address _approver, uint _amount) public payable {\r... */\n    tag_2:\n      tag_1\n      0x04\n      dup1\n      calldatasize\n      sub\n        /* \"--CODEGEN--\":13:16   */\n      0x80\n        /* \"--CODEGEN--\":8:11   */\n      dup2\n        /* \"--CODEGEN--\":5:17   */\n      lt\n        /* \"--CODEGEN--\":2:4   */\n      iszero\n      tag_14\n      jumpi\n        /* \"--CODEGEN--\":30:31   */\n      0x00\n        /* \"--CODEGEN--\":27:28   */\n      dup1\n        /* \"--CODEGEN--\":20:32   */\n      revert\n        /* \"--CODEGEN--\":2:4   */\n    tag_14:\n      pop\n      sub(shl(0xa0, 0x01), 0x01)\n        /* \"contracts/SendMoneyWithApproval.sol\":223:438  function deposit(address _sender, address payable _receiver, address _approver, uint _amount) public payable {\r... */\n      dup2\n      calldataload\n      dup2\n      and\n      swap2\n      0x20\n      dup2\n      add\n      calldataload\n      dup3\n      and\n      swap2\n      0x40\n      dup3\n      add\n      calldataload\n      and\n      swap1\n      0x60\n      add\n      calldataload\n      tag_15\n      jump\t// in\n        /* \"contracts/SendMoneyWithApproval.sol\":442:555  function getBalance() public view returns(uint)\r... */\n    tag_3:\n      callvalue\n        /* \"--CODEGEN--\":8:17   */\n      dup1\n        /* \"--CODEGEN--\":5:7   */\n      iszero\n      tag_16\n      jumpi\n        /* \"--CODEGEN--\":30:31   */\n      0x00\n        /* \"--CODEGEN--\":27:28   */\n      dup1\n        /* \"--CODEGEN--\":20:32   */\n      revert\n        /* \"--CODEGEN--\":5:7   */\n    tag_16:\n        /* \"contracts/SendMoneyWithApproval.sol\":442:555  function getBalance() public view returns(uint)\r... */\n      pop\n      tag_17\n      tag_18\n      jump\t// in\n    tag_17:\n      0x40\n      dup1\n      mload\n      swap2\n      dup3\n      mstore\n      mload\n      swap1\n      dup2\n      swap1\n      sub\n      0x20\n      add\n      swap1\n      return\n        /* \"contracts/SendMoneyWithApproval.sol\":657:739  function approve() external {  \r... */\n    tag_4:\n      callvalue\n        /* \"--CODEGEN--\":8:17   */\n      dup1\n        /* \"--CODEGEN--\":5:7   */\n      iszero\n      tag_19\n      jumpi\n        /* \"--CODEGEN--\":30:31   */\n      0x00\n        /* \"--CODEGEN--\":27:28   */\n      dup1\n        /* \"--CODEGEN--\":20:32   */\n      revert\n        /* \"--CODEGEN--\":5:7   */\n    tag_19:\n        /* \"contracts/SendMoneyWithApproval.sol\":657:739  function approve() external {  \r... */\n      pop\n      tag_1\n      tag_21\n      jump\t// in\n        /* \"contracts/SendMoneyWithApproval.sol\":131:154  address public approver */\n    tag_5:\n      callvalue\n        /* \"--CODEGEN--\":8:17   */\n      dup1\n        /* \"--CODEGEN--\":5:7   */\n      iszero\n      tag_22\n      jumpi\n        /* \"--CODEGEN--\":30:31   */\n      0x00\n        /* \"--CODEGEN--\":27:28   */\n      dup1\n        /* \"--CODEGEN--\":20:32   */\n      revert\n        /* \"--CODEGEN--\":5:7   */\n    tag_22:\n        /* \"contracts/SendMoneyWithApproval.sol\":131:154  address public approver */\n      pop\n      tag_23\n      tag_24\n      jump\t// in\n    tag_23:\n      0x40\n      dup1\n      mload\n      sub(shl(0xa0, 0x01), 0x01)\n      swap1\n      swap3\n      and\n      dup3\n      mstore\n      mload\n      swap1\n      dup2\n      swap1\n      sub\n      0x20\n      add\n      swap1\n      return\n        /* \"contracts/SendMoneyWithApproval.sol\":65:86  address public sender */\n    tag_6:\n      callvalue\n        /* \"--CODEGEN--\":8:17   */\n      dup1\n        /* \"--CODEGEN--\":5:7   */\n      iszero\n      tag_25\n      jumpi\n        /* \"--CODEGEN--\":30:31   */\n      0x00\n        /* \"--CODEGEN--\":27:28   */\n      dup1\n        /* \"--CODEGEN--\":20:32   */\n      revert\n        /* \"--CODEGEN--\":5:7   */\n    tag_25:\n        /* \"contracts/SendMoneyWithApproval.sol\":65:86  address public sender */\n      pop\n      tag_23\n      tag_27\n      jump\t// in\n        /* \"contracts/SendMoneyWithApproval.sol\":161:179  uint public amount */\n    tag_7:\n      callvalue\n        /* \"--CODEGEN--\":8:17   */\n      dup1\n        /* \"--CODEGEN--\":5:7   */\n      iszero\n      tag_28\n      jumpi\n        /* \"--CODEGEN--\":30:31   */\n      0x00\n        /* \"--CODEGEN--\":27:28   */\n      dup1\n        /* \"--CODEGEN--\":20:32   */\n      revert\n        /* \"--CODEGEN--\":5:7   */\n    tag_28:\n        /* \"contracts/SendMoneyWithApproval.sol\":161:179  uint public amount */\n      pop\n      tag_17\n      tag_30\n      jump\t// in\n        /* \"contracts/SendMoneyWithApproval.sol\":568:652  function viewApprover() external view returns(address) {\r... */\n    tag_8:\n      callvalue\n        /* \"--CODEGEN--\":8:17   */\n      dup1\n        /* \"--CODEGEN--\":5:7   */\n      iszero\n      tag_31\n      jumpi\n        /* \"--CODEGEN--\":30:31   */\n      0x00\n        /* \"--CODEGEN--\":27:28   */\n      dup1\n        /* \"--CODEGEN--\":20:32   */\n      revert\n        /* \"--CODEGEN--\":5:7   */\n    tag_31:\n        /* \"contracts/SendMoneyWithApproval.sol\":568:652  function viewApprover() external view returns(address) {\r... */\n      pop\n      tag_23\n      tag_33\n      jump\t// in\n        /* \"contracts/SendMoneyWithApproval.sol\":93:124  address payable public receiver */\n    tag_9:\n      callvalue\n        /* \"--CODEGEN--\":8:17   */\n      dup1\n        /* \"--CODEGEN--\":5:7   */\n      iszero\n      tag_34\n      jumpi\n        /* \"--CODEGEN--\":30:31   */\n      0x00\n        /* \"--CODEGEN--\":27:28   */\n      dup1\n        /* \"--CODEGEN--\":20:32   */\n      revert\n        /* \"--CODEGEN--\":5:7   */\n    tag_34:\n        /* \"contracts/SendMoneyWithApproval.sol\":93:124  address payable public receiver */\n      pop\n      tag_23\n      tag_36\n      jump\t// in\n        /* \"contracts/SendMoneyWithApproval.sol\":223:438  function deposit(address _sender, address payable _receiver, address _approver, uint _amount) public payable {\r... */\n    tag_15:\n        /* \"contracts/SendMoneyWithApproval.sol\":339:345  sender */\n      0x00\n        /* \"contracts/SendMoneyWithApproval.sol\":339:355  sender = _sender */\n      dup1\n      sload\n      not(sub(shl(0xa0, 0x01), 0x01))\n      swap1\n      dup2\n      and\n      sub(shl(0xa0, 0x01), 0x01)\n      swap7\n      dup8\n      and\n      or\n      swap1\n      swap2\n      sstore\n      0x01\n        /* \"contracts/SendMoneyWithApproval.sol\":362:382  receiver = _receiver */\n      dup1\n      sload\n      dup3\n      and\n      swap5\n      dup7\n      and\n      swap5\n      swap1\n      swap5\n      or\n      swap1\n      swap4\n      sstore\n        /* \"contracts/SendMoneyWithApproval.sol\":389:397  approver */\n      0x02\n        /* \"contracts/SendMoneyWithApproval.sol\":389:409  approver = _approver */\n      dup1\n      sload\n      swap1\n      swap4\n      and\n      swap2\n      swap1\n      swap4\n      and\n      or\n      swap1\n      sstore\n        /* \"contracts/SendMoneyWithApproval.sol\":416:422  amount */\n      0x03\n        /* \"contracts/SendMoneyWithApproval.sol\":416:432  amount = _amount */\n      sstore\n        /* \"contracts/SendMoneyWithApproval.sol\":223:438  function deposit(address _sender, address payable _receiver, address _approver, uint _amount) public payable {\r... */\n      jump\t// out\n        /* \"contracts/SendMoneyWithApproval.sol\":442:555  function getBalance() public view returns(uint)\r... */\n    tag_18:\n        /* \"contracts/SendMoneyWithApproval.sol\":527:535  receiver */\n      and(sub(shl(0xa0, 0x01), 0x01), sload(0x01))\n        /* \"contracts/SendMoneyWithApproval.sol\":519:544  address(receiver).balance */\n      balance\n        /* \"contracts/SendMoneyWithApproval.sol\":442:555  function getBalance() public view returns(uint)\r... */\n      swap1\n      jump\t// out\n        /* \"contracts/SendMoneyWithApproval.sol\":657:739  function approve() external {  \r... */\n    tag_21:\n        /* \"contracts/SendMoneyWithApproval.sol\":695:703  receiver */\n      sload(0x01)\n        /* \"contracts/SendMoneyWithApproval.sol\":713:719  amount */\n      sload(0x03)\n        /* \"contracts/SendMoneyWithApproval.sol\":695:732  receiver.transfer(amount * (1 ether)) */\n      mload(0x40)\n      sub(shl(0xa0, 0x01), 0x01)\n        /* \"contracts/SendMoneyWithApproval.sol\":695:703  receiver */\n      swap1\n      swap3\n      and\n      swap2\n        /* \"contracts/SendMoneyWithApproval.sol\":723:730  1 ether */\n      0x0de0b6b3a7640000\n        /* \"contracts/SendMoneyWithApproval.sol\":713:731  amount * (1 ether) */\n      swap1\n      swap2\n      mul\n        /* \"contracts/SendMoneyWithApproval.sol\":695:732  receiver.transfer(amount * (1 ether)) */\n      dup1\n      iszero\n      0x08fc\n      mul\n      swap2\n        /* \"contracts/SendMoneyWithApproval.sol\":695:703  receiver */\n      0x00\n        /* \"contracts/SendMoneyWithApproval.sol\":695:732  receiver.transfer(amount * (1 ether)) */\n      dup2\n        /* \"contracts/SendMoneyWithApproval.sol\":695:703  receiver */\n      dup2\n        /* \"contracts/SendMoneyWithApproval.sol\":695:732  receiver.transfer(amount * (1 ether)) */\n      dup2\n        /* \"contracts/SendMoneyWithApproval.sol\":713:731  amount * (1 ether) */\n      dup6\n        /* \"contracts/SendMoneyWithApproval.sol\":695:703  receiver */\n      dup9\n        /* \"contracts/SendMoneyWithApproval.sol\":695:732  receiver.transfer(amount * (1 ether)) */\n      dup9\n      call\n      swap4\n      pop\n      pop\n      pop\n      pop\n      iszero\n        /* \"--CODEGEN--\":8:17   */\n      dup1\n        /* \"--CODEGEN--\":5:7   */\n      iszero\n      tag_40\n      jumpi\n        /* \"--CODEGEN--\":45:61   */\n      returndatasize\n        /* \"--CODEGEN--\":42:43   */\n      0x00\n        /* \"--CODEGEN--\":39:40   */\n      dup1\n        /* \"--CODEGEN--\":24:62   */\n      returndatacopy\n        /* \"--CODEGEN--\":77:93   */\n      returndatasize\n        /* \"--CODEGEN--\":74:75   */\n      0x00\n        /* \"--CODEGEN--\":67:94   */\n      revert\n        /* \"--CODEGEN--\":5:7   */\n    tag_40:\n        /* \"contracts/SendMoneyWithApproval.sol\":695:732  receiver.transfer(amount * (1 ether)) */\n      pop\n        /* \"contracts/SendMoneyWithApproval.sol\":657:739  function approve() external {  \r... */\n      jump\t// out\n        /* \"contracts/SendMoneyWithApproval.sol\":131:154  address public approver */\n    tag_24:\n      and(sub(shl(0xa0, 0x01), 0x01), sload(0x02))\n      dup2\n      jump\t// out\n        /* \"contracts/SendMoneyWithApproval.sol\":65:86  address public sender */\n    tag_27:\n      and(sub(shl(0xa0, 0x01), 0x01), sload(0x00))\n      dup2\n      jump\t// out\n        /* \"contracts/SendMoneyWithApproval.sol\":161:179  uint public amount */\n    tag_30:\n      sload(0x03)\n      dup2\n      jump\t// out\n        /* \"contracts/SendMoneyWithApproval.sol\":568:652  function viewApprover() external view returns(address) {\r... */\n    tag_33:\n        /* \"contracts/SendMoneyWithApproval.sol\":637:645  approver */\n      and(sub(shl(0xa0, 0x01), 0x01), sload(0x02))\n        /* \"contracts/SendMoneyWithApproval.sol\":568:652  function viewApprover() external view returns(address) {\r... */\n      swap1\n      jump\t// out\n        /* \"contracts/SendMoneyWithApproval.sol\":93:124  address payable public receiver */\n    tag_36:\n      and(sub(shl(0xa0, 0x01), 0x01), sload(0x01))\n      dup2\n      jump\t// out\n\n    auxdata: 0xa265627a7a72315820325903032329d9017caa01ed48a5141b027c1538bf8e212e1646f98d16bb18b064736f6c63430005110032\n}\n",
				"bytecode": {
					"linkReferences": {},
					"object": "608060405234801561001057600080fd5b5061028d806100206000396000f3fe60806040526004361061007b5760003560e01c806367e404ce1161004e57806367e404ce14610126578063aa8c217c1461013b578063d93ce89c14610150578063f7260d3e146101655761007b565b80630284c3f51461007d57806312065fe0146100b957806312424e3f146100e0578063141a8dd8146100f5575b005b61007b6004803603608081101561009357600080fd5b506001600160a01b0381358116916020810135821691604082013516906060013561017a565b3480156100c557600080fd5b506100ce6101bc565b60408051918252519081900360200190f35b3480156100ec57600080fd5b5061007b6101cc565b34801561010157600080fd5b5061010a610216565b604080516001600160a01b039092168252519081900360200190f35b34801561013257600080fd5b5061010a610225565b34801561014757600080fd5b506100ce610234565b34801561015c57600080fd5b5061010a61023a565b34801561017157600080fd5b5061010a610249565b600080546001600160a01b03199081166001600160a01b0396871617909155600180548216948616949094179093556002805490931691909316179055600355565b6001546001600160a01b03163190565b6001546003546040516001600160a01b0390921691670de0b6b3a764000090910280156108fc02916000818181858888f19350505050158015610213573d6000803e3d6000fd5b50565b6002546001600160a01b031681565b6000546001600160a01b031681565b60035481565b6002546001600160a01b031690565b6001546001600160a01b03168156fea265627a7a72315820325903032329d9017caa01ed48a5141b027c1538bf8e212e1646f98d16bb18b064736f6c63430005110032",
					"opcodes": "PUSH1 0x80 PUSH1 0x40 MSTORE CALLVALUE DUP1 ISZERO PUSH2 0x10 JUMPI PUSH1 0x0 DUP1 REVERT JUMPDEST POP PUSH2 0x28D DUP1 PUSH2 0x20 PUSH1 0x0 CODECOPY PUSH1 0x0 RETURN INVALID PUSH1 0x80 PUSH1 0x40 MSTORE PUSH1 0x4 CALLDATASIZE LT PUSH2 0x7B JUMPI PUSH1 0x0 CALLDATALOAD PUSH1 0xE0 SHR DUP1 PUSH4 0x67E404CE GT PUSH2 0x4E JUMPI DUP1 PUSH4 0x67E404CE EQ PUSH2 0x126 JUMPI DUP1 PUSH4 0xAA8C217C EQ PUSH2 0x13B JUMPI DUP1 PUSH4 0xD93CE89C EQ PUSH2 0x150 JUMPI DUP1 PUSH4 0xF7260D3E EQ PUSH2 0x165 JUMPI PUSH2 0x7B JUMP JUMPDEST DUP1 PUSH4 0x284C3F5 EQ PUSH2 0x7D JUMPI DUP1 PUSH4 0x12065FE0 EQ PUSH2 0xB9 JUMPI DUP1 PUSH4 0x12424E3F EQ PUSH2 0xE0 JUMPI DUP1 PUSH4 0x141A8DD8 EQ PUSH2 0xF5 JUMPI JUMPDEST STOP JUMPDEST PUSH2 0x7B PUSH1 0x4 DUP1 CALLDATASIZE SUB PUSH1 0x80 DUP2 LT ISZERO PUSH2 0x93 JUMPI PUSH1 0x0 DUP1 REVERT JUMPDEST POP PUSH1 0x1 PUSH1 0x1 PUSH1 0xA0 SHL SUB DUP2 CALLDATALOAD DUP2 AND SWAP2 PUSH1 0x20 DUP2 ADD CALLDATALOAD DUP3 AND SWAP2 PUSH1 0x40 DUP3 ADD CALLDATALOAD AND SWAP1 PUSH1 0x60 ADD CALLDATALOAD PUSH2 0x17A JUMP JUMPDEST CALLVALUE DUP1 ISZERO PUSH2 0xC5 JUMPI PUSH1 0x0 DUP1 REVERT JUMPDEST POP PUSH2 0xCE PUSH2 0x1BC JUMP JUMPDEST PUSH1 0x40 DUP1 MLOAD SWAP2 DUP3 MSTORE MLOAD SWAP1 DUP2 SWAP1 SUB PUSH1 0x20 ADD SWAP1 RETURN JUMPDEST CALLVALUE DUP1 ISZERO PUSH2 0xEC JUMPI PUSH1 0x0 DUP1 REVERT JUMPDEST POP PUSH2 0x7B PUSH2 0x1CC JUMP JUMPDEST CALLVALUE DUP1 ISZERO PUSH2 0x101 JUMPI PUSH1 0x0 DUP1 REVERT JUMPDEST POP PUSH2 0x10A PUSH2 0x216 JUMP JUMPDEST PUSH1 0x40 DUP1 MLOAD PUSH1 0x1 PUSH1 0x1 PUSH1 0xA0 SHL SUB SWAP1 SWAP3 AND DUP3 MSTORE MLOAD SWAP1 DUP2 SWAP1 SUB PUSH1 0x20 ADD SWAP1 RETURN JUMPDEST CALLVALUE DUP1 ISZERO PUSH2 0x132 JUMPI PUSH1 0x0 DUP1 REVERT JUMPDEST POP PUSH2 0x10A PUSH2 0x225 JUMP JUMPDEST CALLVALUE DUP1 ISZERO PUSH2 0x147 JUMPI PUSH1 0x0 DUP1 REVERT JUMPDEST POP PUSH2 0xCE PUSH2 0x234 JUMP JUMPDEST CALLVALUE DUP1 ISZERO PUSH2 0x15C JUMPI PUSH1 0x0 DUP1 REVERT JUMPDEST POP PUSH2 0x10A PUSH2 0x23A JUMP JUMPDEST CALLVALUE DUP1 ISZERO PUSH2 0x171 JUMPI PUSH1 0x0 DUP1 REVERT JUMPDEST POP PUSH2 0x10A PUSH2 0x249 JUMP JUMPDEST PUSH1 0x0 DUP1 SLOAD PUSH1 0x1 PUSH1 0x1 PUSH1 0xA0 SHL SUB NOT SWAP1 DUP2 AND PUSH1 0x1 PUSH1 0x1 PUSH1 0xA0 SHL SUB SWAP7 DUP8 AND OR SWAP1 SWAP2 SSTORE PUSH1 0x1 DUP1 SLOAD DUP3 AND SWAP5 DUP7 AND SWAP5 SWAP1 SWAP5 OR SWAP1 SWAP4 SSTORE PUSH1 0x2 DUP1 SLOAD SWAP1 SWAP4 AND SWAP2 SWAP1 SWAP4 AND OR SWAP1 SSTORE PUSH1 0x3 SSTORE JUMP JUMPDEST PUSH1 0x1 SLOAD PUSH1 0x1 PUSH1 0x1 PUSH1 0xA0 SHL SUB AND BALANCE SWAP1 JUMP JUMPDEST PUSH1 0x1 SLOAD PUSH1 0x3 SLOAD PUSH1 0x40 MLOAD PUSH1 0x1 PUSH1 0x1 PUSH1 0xA0 SHL SUB SWAP1 SWAP3 AND SWAP2 PUSH8 0xDE0B6B3A7640000 SWAP1 SWAP2 MUL DUP1 ISZERO PUSH2 0x8FC MUL SWAP2 PUSH1 0x0 DUP2 DUP2 DUP2 DUP6 DUP9 DUP9 CALL SWAP4 POP POP POP POP ISZERO DUP1 ISZERO PUSH2 0x213 JUMPI RETURNDATASIZE PUSH1 0x0 DUP1 RETURNDATACOPY RETURNDATASIZE PUSH1 0x0 REVERT JUMPDEST POP JUMP JUMPDEST PUSH1 0x2 SLOAD PUSH1 0x1 PUSH1 0x1 PUSH1 0xA0 SHL SUB AND DUP2 JUMP JUMPDEST PUSH1 0x0 SLOAD PUSH1 0x1 PUSH1 0x1 PUSH1 0xA0 SHL SUB AND DUP2 JUMP JUMPDEST PUSH1 0x3 SLOAD DUP2 JUMP JUMPDEST PUSH1 0x2 SLOAD PUSH1 0x1 PUSH1 0x1 PUSH1 0xA0 SHL SUB AND SWAP1 JUMP JUMPDEST PUSH1 0x1 SLOAD PUSH1 0x1 PUSH1 0x1 PUSH1 0xA0 SHL SUB AND DUP2 JUMP INVALID LOG2 PUSH6 0x627A7A723158 KECCAK256 ORIGIN MSIZE SUB SUB 0x23 0x29 0xD9 ADD PUSH29 0xAA01ED48A5141B027C1538BF8E212E1646F98D16BB18B064736F6C6343 STOP SDIV GT STOP ORIGIN "
				},
				"gasEstimates": {
					"creation": {
						"codeDepositCost": "130600",
						"executionCost": "177",
						"totalCost": "130777"
					},
					"external": {
						"": "163",
						"amount()": "1020",
						"approve()": "infinite",
						"approver()": "1104",
						"deposit(address,address,address,uint256)": "82779",
						"getBalance()": "1739",
						"receiver()": "1103",
						"sender()": "1037",
						"viewApprover()": "1081"
					}
				},
				"methodIdentifiers": {
					"amount()": "aa8c217c",
					"approve()": "12424e3f",
					"approver()": "141a8dd8",
					"deposit(address,address,address,uint256)": "0284c3f5",
					"getBalance()": "12065fe0",
					"receiver()": "f7260d3e",
					"sender()": "67e404ce",
					"viewApprover()": "d93ce89c"
				}
			},
			"storageLayout": {
				"storage": [
					{
						"astId": 3,
						"contract": "contracts/SendMoneyWithApproval.sol:SendMoneyWithApproval",
						"label": "sender",
						"offset": 0,
						"slot": "0",
						"type": "t_address"
					},
					{
						"astId": 5,
						"contract": "contracts/SendMoneyWithApproval.sol:SendMoneyWithApproval",
						"label": "receiver",
						"offset": 0,
						"slot": "1",
						"type": "t_address_payable"
					},
					{
						"astId": 7,
						"contract": "contracts/SendMoneyWithApproval.sol:SendMoneyWithApproval",
						"label": "approver",
						"offset": 0,
						"slot": "2",
						"type": "t_address"
					},
					{
						"astId": 9,
						"contract": "contracts/SendMoneyWithApproval.sol:SendMoneyWithApproval",
						"label": "amount",
						"offset": 0,
						"slot": "3",
						"type": "t_uint256"
					}
				],
				"types": {
					"t_address": {
						"encoding": "inplace",
						"label": "address",
						"numberOfBytes": "20"
					},
					"t_address_payable": {
						"encoding": "inplace",
						"label": "address payable",
						"numberOfBytes": "20"
					},
					"t_uint256": {
						"encoding": "inplace",
						"label": "uint256",
						"numberOfBytes": "32"
					}
				}
			},
			"userdoc": {
				"methods": {}
			}
		}
	}
}