{
	"contracts/SendMoneyWithApproval.sol": {
		"SendMoneyWithApproval": {
			"abi": [
				{
					"constant": false,
					"inputs": [
						{
							"name": "_sender",
							"type": "address"
						},
						{
							"name": "_receiver",
							"type": "address"
						},
						{
							"name": "_approver",
							"type": "address"
						},
						{
							"name": "_amount",
							"type": "uint256"
						}
					],
					"name": "deposit",
					"outputs": [],
					"payable": false,
					"stateMutability": "nonpayable",
					"type": "function"
				},
				{
					"constant": false,
					"inputs": [],
					"name": "approve",
					"outputs": [],
					"payable": false,
					"stateMutability": "nonpayable",
					"type": "function"
				},
				{
					"constant": true,
					"inputs": [],
					"name": "approver",
					"outputs": [
						{
							"name": "",
							"type": "address"
						}
					],
					"payable": false,
					"stateMutability": "view",
					"type": "function"
				},
				{
					"constant": false,
					"inputs": [
						{
							"name": "_addr",
							"type": "address"
						}
					],
					"name": "send",
					"outputs": [
						{
							"name": "",
							"type": "bool"
						}
					],
					"payable": true,
					"stateMutability": "payable",
					"type": "function"
				},
				{
					"constant": true,
					"inputs": [],
					"name": "sender",
					"outputs": [
						{
							"name": "",
							"type": "address"
						}
					],
					"payable": false,
					"stateMutability": "view",
					"type": "function"
				},
				{
					"constant": true,
					"inputs": [],
					"name": "amount",
					"outputs": [
						{
							"name": "",
							"type": "uint256"
						}
					],
					"payable": false,
					"stateMutability": "view",
					"type": "function"
				},
				{
					"constant": true,
					"inputs": [],
					"name": "viewApprover",
					"outputs": [
						{
							"name": "",
							"type": "address"
						}
					],
					"payable": false,
					"stateMutability": "view",
					"type": "function"
				},
				{
					"constant": true,
					"inputs": [],
					"name": "receiver",
					"outputs": [
						{
							"name": "",
							"type": "address"
						}
					],
					"payable": false,
					"stateMutability": "view",
					"type": "function"
				}
			],
			"devdoc": {
				"methods": {}
			},
			"evm": {
				"assembly": "    /* \"contracts/SendMoneyWithApproval.sol\":134:904  contract SendMoneyWithApproval\r... */\n  mstore(0x40, 0x80)\n  callvalue\n    /* \"--CODEGEN--\":8:17   */\n  dup1\n    /* \"--CODEGEN--\":5:7   */\n  iszero\n  tag_1\n  jumpi\n    /* \"--CODEGEN--\":30:31   */\n  0x0\n    /* \"--CODEGEN--\":27:28   */\n  dup1\n    /* \"--CODEGEN--\":20:32   */\n  revert\n    /* \"--CODEGEN--\":5:7   */\ntag_1:\n    /* \"contracts/SendMoneyWithApproval.sol\":134:904  contract SendMoneyWithApproval\r... */\n  pop\n  dataSize(sub_0)\n  dup1\n  dataOffset(sub_0)\n  0x0\n  codecopy\n  0x0\n  return\nstop\n\nsub_0: assembly {\n        /* \"contracts/SendMoneyWithApproval.sol\":134:904  contract SendMoneyWithApproval\r... */\n      mstore(0x40, 0x80)\n      jumpi(tag_1, lt(calldatasize, 0x4))\n      and(div(calldataload(0x0), 0x100000000000000000000000000000000000000000000000000000000), 0xffffffff)\n      0x284c3f5\n      dup2\n      eq\n      tag_2\n      jumpi\n      dup1\n      0x12424e3f\n      eq\n      tag_3\n      jumpi\n      dup1\n      0x141a8dd8\n      eq\n      tag_4\n      jumpi\n      dup1\n      0x3e58c58c\n      eq\n      tag_5\n      jumpi\n      dup1\n      0x67e404ce\n      eq\n      tag_6\n      jumpi\n      dup1\n      0xaa8c217c\n      eq\n      tag_7\n      jumpi\n      dup1\n      0xd93ce89c\n      eq\n      tag_8\n      jumpi\n      dup1\n      0xf7260d3e\n      eq\n      tag_9\n      jumpi\n    tag_1:\n      0x0\n      dup1\n      revert\n        /* \"contracts/SendMoneyWithApproval.sol\":286:478  function deposit(address _sender, address _receiver, address _approver, uint _amount) {\r... */\n    tag_2:\n      callvalue\n        /* \"--CODEGEN--\":8:17   */\n      dup1\n        /* \"--CODEGEN--\":5:7   */\n      iszero\n      tag_10\n      jumpi\n        /* \"--CODEGEN--\":30:31   */\n      0x0\n        /* \"--CODEGEN--\":27:28   */\n      dup1\n        /* \"--CODEGEN--\":20:32   */\n      revert\n        /* \"--CODEGEN--\":5:7   */\n    tag_10:\n      pop\n        /* \"contracts/SendMoneyWithApproval.sol\":286:478  function deposit(address _sender, address _receiver, address _approver, uint _amount) {\r... */\n      tag_11\n      sub(exp(0x2, 0xa0), 0x1)\n      calldataload(0x4)\n      dup2\n      and\n      swap1\n      calldataload(0x24)\n      dup2\n      and\n      swap1\n      calldataload(0x44)\n      and\n      calldataload(0x64)\n      jump(tag_12)\n    tag_11:\n      stop\n        /* \"contracts/SendMoneyWithApproval.sol\":573:657  function approve() external {  \r... */\n    tag_3:\n      callvalue\n        /* \"--CODEGEN--\":8:17   */\n      dup1\n        /* \"--CODEGEN--\":5:7   */\n      iszero\n      tag_13\n      jumpi\n        /* \"--CODEGEN--\":30:31   */\n      0x0\n        /* \"--CODEGEN--\":27:28   */\n      dup1\n        /* \"--CODEGEN--\":20:32   */\n      revert\n        /* \"--CODEGEN--\":5:7   */\n    tag_13:\n        /* \"contracts/SendMoneyWithApproval.sol\":573:657  function approve() external {  \r... */\n      pop\n      tag_11\n      jump(tag_15)\n        /* \"contracts/SendMoneyWithApproval.sol\":231:254  address public approver */\n    tag_4:\n      callvalue\n        /* \"--CODEGEN--\":8:17   */\n      dup1\n        /* \"--CODEGEN--\":5:7   */\n      iszero\n      tag_16\n      jumpi\n        /* \"--CODEGEN--\":30:31   */\n      0x0\n        /* \"--CODEGEN--\":27:28   */\n      dup1\n        /* \"--CODEGEN--\":20:32   */\n      revert\n        /* \"--CODEGEN--\":5:7   */\n    tag_16:\n        /* \"contracts/SendMoneyWithApproval.sol\":231:254  address public approver */\n      pop\n      tag_17\n      jump(tag_18)\n    tag_17:\n      0x40\n      dup1\n      mload\n      sub(exp(0x2, 0xa0), 0x1)\n      swap1\n      swap3\n      and\n      dup3\n      mstore\n      mload\n      swap1\n      dup2\n      swap1\n      sub\n      0x20\n      add\n      swap1\n      return\n        /* \"contracts/SendMoneyWithApproval.sol\":666:804  function send(address _addr) payable public  returns (bool){\r... */\n    tag_5:\n      tag_19\n      and(calldataload(0x4), sub(exp(0x2, 0xa0), 0x1))\n      jump(tag_20)\n    tag_19:\n      0x40\n      dup1\n      mload\n      swap2\n      iszero\n      iszero\n      dup3\n      mstore\n      mload\n      swap1\n      dup2\n      swap1\n      sub\n      0x20\n      add\n      swap1\n      return\n        /* \"contracts/SendMoneyWithApproval.sol\":173:194  address public sender */\n    tag_6:\n      callvalue\n        /* \"--CODEGEN--\":8:17   */\n      dup1\n        /* \"--CODEGEN--\":5:7   */\n      iszero\n      tag_21\n      jumpi\n        /* \"--CODEGEN--\":30:31   */\n      0x0\n        /* \"--CODEGEN--\":27:28   */\n      dup1\n        /* \"--CODEGEN--\":20:32   */\n      revert\n        /* \"--CODEGEN--\":5:7   */\n    tag_21:\n        /* \"contracts/SendMoneyWithApproval.sol\":173:194  address public sender */\n      pop\n      tag_17\n      jump(tag_23)\n        /* \"contracts/SendMoneyWithApproval.sol\":261:279  uint public amount */\n    tag_7:\n      callvalue\n        /* \"--CODEGEN--\":8:17   */\n      dup1\n        /* \"--CODEGEN--\":5:7   */\n      iszero\n      tag_24\n      jumpi\n        /* \"--CODEGEN--\":30:31   */\n      0x0\n        /* \"--CODEGEN--\":27:28   */\n      dup1\n        /* \"--CODEGEN--\":20:32   */\n      revert\n        /* \"--CODEGEN--\":5:7   */\n    tag_24:\n        /* \"contracts/SendMoneyWithApproval.sol\":261:279  uint public amount */\n      pop\n      tag_25\n      jump(tag_26)\n    tag_25:\n      0x40\n      dup1\n      mload\n      swap2\n      dup3\n      mstore\n      mload\n      swap1\n      dup2\n      swap1\n      sub\n      0x20\n      add\n      swap1\n      return\n        /* \"contracts/SendMoneyWithApproval.sol\":484:568  function viewApprover() external view returns(address) {\r... */\n    tag_8:\n      callvalue\n        /* \"--CODEGEN--\":8:17   */\n      dup1\n        /* \"--CODEGEN--\":5:7   */\n      iszero\n      tag_27\n      jumpi\n        /* \"--CODEGEN--\":30:31   */\n      0x0\n        /* \"--CODEGEN--\":27:28   */\n      dup1\n        /* \"--CODEGEN--\":20:32   */\n      revert\n        /* \"--CODEGEN--\":5:7   */\n    tag_27:\n        /* \"contracts/SendMoneyWithApproval.sol\":484:568  function viewApprover() external view returns(address) {\r... */\n      pop\n      tag_17\n      jump(tag_29)\n        /* \"contracts/SendMoneyWithApproval.sol\":201:224  address public receiver */\n    tag_9:\n      callvalue\n        /* \"--CODEGEN--\":8:17   */\n      dup1\n        /* \"--CODEGEN--\":5:7   */\n      iszero\n      tag_30\n      jumpi\n        /* \"--CODEGEN--\":30:31   */\n      0x0\n        /* \"--CODEGEN--\":27:28   */\n      dup1\n        /* \"--CODEGEN--\":20:32   */\n      revert\n        /* \"--CODEGEN--\":5:7   */\n    tag_30:\n        /* \"contracts/SendMoneyWithApproval.sol\":201:224  address public receiver */\n      pop\n      tag_17\n      jump(tag_32)\n        /* \"contracts/SendMoneyWithApproval.sol\":286:478  function deposit(address _sender, address _receiver, address _approver, uint _amount) {\r... */\n    tag_12:\n        /* \"contracts/SendMoneyWithApproval.sol\":379:385  sender */\n      0x0\n        /* \"contracts/SendMoneyWithApproval.sol\":379:395  sender = _sender */\n      dup1\n      sload\n      not(0xffffffffffffffffffffffffffffffffffffffff)\n      swap1\n      dup2\n      and\n      sub(exp(0x2, 0xa0), 0x1)\n      swap7\n      dup8\n      and\n      or\n      swap1\n      swap2\n      sstore\n      0x1\n        /* \"contracts/SendMoneyWithApproval.sol\":402:422  receiver = _receiver */\n      dup1\n      sload\n      dup3\n      and\n      swap5\n      dup7\n      and\n      swap5\n      swap1\n      swap5\n      or\n      swap1\n      swap4\n      sstore\n        /* \"contracts/SendMoneyWithApproval.sol\":429:437  approver */\n      0x2\n        /* \"contracts/SendMoneyWithApproval.sol\":429:449  approver = _approver */\n      dup1\n      sload\n      swap1\n      swap4\n      and\n      swap2\n      swap1\n      swap4\n      and\n      or\n      swap1\n      sstore\n        /* \"contracts/SendMoneyWithApproval.sol\":456:462  amount */\n      0x3\n        /* \"contracts/SendMoneyWithApproval.sol\":456:472  amount = _amount */\n      sstore\n        /* \"contracts/SendMoneyWithApproval.sol\":286:478  function deposit(address _sender, address _receiver, address _approver, uint _amount) {\r... */\n      jump\t// out\n        /* \"contracts/SendMoneyWithApproval.sol\":573:657  function approve() external {  \r... */\n    tag_15:\n        /* \"contracts/SendMoneyWithApproval.sol\":612:620  receiver */\n      sload(0x1)\n        /* \"contracts/SendMoneyWithApproval.sol\":631:637  amount */\n      sload(0x3)\n        /* \"contracts/SendMoneyWithApproval.sol\":611:650  (receiver).transfer(amount * (1 ether)) */\n      mload(0x40)\n      sub(exp(0x2, 0xa0), 0x1)\n        /* \"contracts/SendMoneyWithApproval.sol\":612:620  receiver */\n      swap1\n      swap3\n      and\n      swap2\n        /* \"contracts/SendMoneyWithApproval.sol\":641:648  1 ether */\n      0xde0b6b3a7640000\n        /* \"contracts/SendMoneyWithApproval.sol\":631:649  amount * (1 ether) */\n      swap1\n      swap2\n      mul\n        /* \"contracts/SendMoneyWithApproval.sol\":611:650  (receiver).transfer(amount * (1 ether)) */\n      dup1\n      iszero\n      0x8fc\n      mul\n      swap2\n        /* \"contracts/SendMoneyWithApproval.sol\":612:620  receiver */\n      0x0\n        /* \"contracts/SendMoneyWithApproval.sol\":611:650  (receiver).transfer(amount * (1 ether)) */\n      dup2\n        /* \"contracts/SendMoneyWithApproval.sol\":612:620  receiver */\n      dup2\n        /* \"contracts/SendMoneyWithApproval.sol\":611:650  (receiver).transfer(amount * (1 ether)) */\n      dup2\n        /* \"contracts/SendMoneyWithApproval.sol\":631:649  amount * (1 ether) */\n      dup6\n        /* \"contracts/SendMoneyWithApproval.sol\":612:620  receiver */\n      dup9\n        /* \"contracts/SendMoneyWithApproval.sol\":611:650  (receiver).transfer(amount * (1 ether)) */\n      dup9\n      call\n      swap4\n      pop\n      pop\n      pop\n      pop\n      iszero\n        /* \"--CODEGEN--\":8:17   */\n      dup1\n        /* \"--CODEGEN--\":5:7   */\n      iszero\n      tag_35\n      jumpi\n        /* \"--CODEGEN--\":45:61   */\n      returndatasize\n        /* \"--CODEGEN--\":42:43   */\n      0x0\n        /* \"--CODEGEN--\":39:40   */\n      dup1\n        /* \"--CODEGEN--\":24:62   */\n      returndatacopy\n        /* \"--CODEGEN--\":77:93   */\n      returndatasize\n        /* \"--CODEGEN--\":74:75   */\n      0x0\n        /* \"--CODEGEN--\":67:94   */\n      revert\n        /* \"--CODEGEN--\":5:7   */\n    tag_35:\n        /* \"contracts/SendMoneyWithApproval.sol\":611:650  (receiver).transfer(amount * (1 ether)) */\n      pop\n        /* \"contracts/SendMoneyWithApproval.sol\":573:657  function approve() external {  \r... */\n      jump\t// out\n        /* \"contracts/SendMoneyWithApproval.sol\":231:254  address public approver */\n    tag_18:\n      and(sub(exp(0x2, 0xa0), 0x1), sload(0x2))\n      dup2\n      jump\t// out\n        /* \"contracts/SendMoneyWithApproval.sol\":666:804  function send(address _addr) payable public  returns (bool){\r... */\n    tag_20:\n        /* \"contracts/SendMoneyWithApproval.sol\":720:724  bool */\n      0x0\n        /* \"contracts/SendMoneyWithApproval.sol\":738:743  _addr */\n      dup2\n      sub(exp(0x2, 0xa0), 0x1)\n        /* \"contracts/SendMoneyWithApproval.sol\":738:752  _addr.transfer */\n      and\n        /* \"contracts/SendMoneyWithApproval.sol\":738:772  _addr.transfer(amount * (1 ether)) */\n      0x8fc\n        /* \"contracts/SendMoneyWithApproval.sol\":753:759  amount */\n      sload(0x3)\n        /* \"contracts/SendMoneyWithApproval.sol\":763:770  1 ether */\n      0xde0b6b3a7640000\n        /* \"contracts/SendMoneyWithApproval.sol\":753:771  amount * (1 ether) */\n      mul\n        /* \"contracts/SendMoneyWithApproval.sol\":738:772  _addr.transfer(amount * (1 ether)) */\n      swap1\n      dup2\n      iszero\n      mul\n      swap1\n      mload(0x40)\n      0x0\n      mload(0x40)\n      dup1\n      dup4\n      sub\n      dup2\n      dup6\n      dup9\n      dup9\n      call\n      swap4\n      pop\n      pop\n      pop\n      pop\n      iszero\n        /* \"--CODEGEN--\":8:17   */\n      dup1\n        /* \"--CODEGEN--\":5:7   */\n      iszero\n      tag_37\n      jumpi\n        /* \"--CODEGEN--\":45:61   */\n      returndatasize\n        /* \"--CODEGEN--\":42:43   */\n      0x0\n        /* \"--CODEGEN--\":39:40   */\n      dup1\n        /* \"--CODEGEN--\":24:62   */\n      returndatacopy\n        /* \"--CODEGEN--\":77:93   */\n      returndatasize\n        /* \"--CODEGEN--\":74:75   */\n      0x0\n        /* \"--CODEGEN--\":67:94   */\n      revert\n        /* \"--CODEGEN--\":5:7   */\n    tag_37:\n      pop\n        /* \"contracts/SendMoneyWithApproval.sol\":792:796  true */\n      0x1\n      swap3\n        /* \"contracts/SendMoneyWithApproval.sol\":666:804  function send(address _addr) payable public  returns (bool){\r... */\n      swap2\n      pop\n      pop\n      jump\t// out\n        /* \"contracts/SendMoneyWithApproval.sol\":173:194  address public sender */\n    tag_23:\n      and(sub(exp(0x2, 0xa0), 0x1), sload(0x0))\n      dup2\n      jump\t// out\n        /* \"contracts/SendMoneyWithApproval.sol\":261:279  uint public amount */\n    tag_26:\n      sload(0x3)\n      dup2\n      jump\t// out\n        /* \"contracts/SendMoneyWithApproval.sol\":484:568  function viewApprover() external view returns(address) {\r... */\n    tag_29:\n        /* \"contracts/SendMoneyWithApproval.sol\":553:561  approver */\n      and(sub(exp(0x2, 0xa0), 0x1), sload(0x2))\n        /* \"contracts/SendMoneyWithApproval.sol\":484:568  function viewApprover() external view returns(address) {\r... */\n      swap1\n      jump\t// out\n        /* \"contracts/SendMoneyWithApproval.sol\":201:224  address public receiver */\n    tag_32:\n      and(sub(exp(0x2, 0xa0), 0x1), sload(0x1))\n      dup2\n      jump\t// out\n\n    auxdata: 0xa165627a7a72305820ff15e0385ea0422d056aff80ee1782cbd42bb4c51f401e19a9f7b0e4e04a78730029\n}\n",
				"bytecode": {
					"linkReferences": {},
					"object": "608060405234801561001057600080fd5b506102ef806100206000396000f30060806040526004361061008d5763ffffffff7c01000000000000000000000000000000000000000000000000000000006000350416630284c3f5811461009257806312424e3f146100c4578063141a8dd8146100d95780633e58c58c1461010a57806367e404ce14610132578063aa8c217c14610147578063d93ce89c1461016e578063f7260d3e14610183575b600080fd5b34801561009e57600080fd5b506100c2600160a060020a0360043581169060243581169060443516606435610198565b005b3480156100d057600080fd5b506100c26101e7565b3480156100e557600080fd5b506100ee610231565b60408051600160a060020a039092168252519081900360200190f35b61011e600160a060020a0360043516610240565b604080519115158252519081900360200190f35b34801561013e57600080fd5b506100ee610290565b34801561015357600080fd5b5061015c61029f565b60408051918252519081900360200190f35b34801561017a57600080fd5b506100ee6102a5565b34801561018f57600080fd5b506100ee6102b4565b6000805473ffffffffffffffffffffffffffffffffffffffff19908116600160a060020a0396871617909155600180548216948616949094179093556002805490931691909316179055600355565b600154600354604051600160a060020a0390921691670de0b6b3a764000090910280156108fc02916000818181858888f1935050505015801561022e573d6000803e3d6000fd5b50565b600254600160a060020a031681565b600081600160a060020a03166108fc600354670de0b6b3a7640000029081150290604051600060405180830381858888f19350505050158015610287573d6000803e3d6000fd5b50600192915050565b600054600160a060020a031681565b60035481565b600254600160a060020a031690565b600154600160a060020a0316815600a165627a7a72305820ff15e0385ea0422d056aff80ee1782cbd42bb4c51f401e19a9f7b0e4e04a78730029",
					"opcodes": "PUSH1 0x80 PUSH1 0x40 MSTORE CALLVALUE DUP1 ISZERO PUSH2 0x10 JUMPI PUSH1 0x0 DUP1 REVERT JUMPDEST POP PUSH2 0x2EF DUP1 PUSH2 0x20 PUSH1 0x0 CODECOPY PUSH1 0x0 RETURN STOP PUSH1 0x80 PUSH1 0x40 MSTORE PUSH1 0x4 CALLDATASIZE LT PUSH2 0x8D JUMPI PUSH4 0xFFFFFFFF PUSH29 0x100000000000000000000000000000000000000000000000000000000 PUSH1 0x0 CALLDATALOAD DIV AND PUSH4 0x284C3F5 DUP2 EQ PUSH2 0x92 JUMPI DUP1 PUSH4 0x12424E3F EQ PUSH2 0xC4 JUMPI DUP1 PUSH4 0x141A8DD8 EQ PUSH2 0xD9 JUMPI DUP1 PUSH4 0x3E58C58C EQ PUSH2 0x10A JUMPI DUP1 PUSH4 0x67E404CE EQ PUSH2 0x132 JUMPI DUP1 PUSH4 0xAA8C217C EQ PUSH2 0x147 JUMPI DUP1 PUSH4 0xD93CE89C EQ PUSH2 0x16E JUMPI DUP1 PUSH4 0xF7260D3E EQ PUSH2 0x183 JUMPI JUMPDEST PUSH1 0x0 DUP1 REVERT JUMPDEST CALLVALUE DUP1 ISZERO PUSH2 0x9E JUMPI PUSH1 0x0 DUP1 REVERT JUMPDEST POP PUSH2 0xC2 PUSH1 0x1 PUSH1 0xA0 PUSH1 0x2 EXP SUB PUSH1 0x4 CALLDATALOAD DUP2 AND SWAP1 PUSH1 0x24 CALLDATALOAD DUP2 AND SWAP1 PUSH1 0x44 CALLDATALOAD AND PUSH1 0x64 CALLDATALOAD PUSH2 0x198 JUMP JUMPDEST STOP JUMPDEST CALLVALUE DUP1 ISZERO PUSH2 0xD0 JUMPI PUSH1 0x0 DUP1 REVERT JUMPDEST POP PUSH2 0xC2 PUSH2 0x1E7 JUMP JUMPDEST CALLVALUE DUP1 ISZERO PUSH2 0xE5 JUMPI PUSH1 0x0 DUP1 REVERT JUMPDEST POP PUSH2 0xEE PUSH2 0x231 JUMP JUMPDEST PUSH1 0x40 DUP1 MLOAD PUSH1 0x1 PUSH1 0xA0 PUSH1 0x2 EXP SUB SWAP1 SWAP3 AND DUP3 MSTORE MLOAD SWAP1 DUP2 SWAP1 SUB PUSH1 0x20 ADD SWAP1 RETURN JUMPDEST PUSH2 0x11E PUSH1 0x1 PUSH1 0xA0 PUSH1 0x2 EXP SUB PUSH1 0x4 CALLDATALOAD AND PUSH2 0x240 JUMP JUMPDEST PUSH1 0x40 DUP1 MLOAD SWAP2 ISZERO ISZERO DUP3 MSTORE MLOAD SWAP1 DUP2 SWAP1 SUB PUSH1 0x20 ADD SWAP1 RETURN JUMPDEST CALLVALUE DUP1 ISZERO PUSH2 0x13E JUMPI PUSH1 0x0 DUP1 REVERT JUMPDEST POP PUSH2 0xEE PUSH2 0x290 JUMP JUMPDEST CALLVALUE DUP1 ISZERO PUSH2 0x153 JUMPI PUSH1 0x0 DUP1 REVERT JUMPDEST POP PUSH2 0x15C PUSH2 0x29F JUMP JUMPDEST PUSH1 0x40 DUP1 MLOAD SWAP2 DUP3 MSTORE MLOAD SWAP1 DUP2 SWAP1 SUB PUSH1 0x20 ADD SWAP1 RETURN JUMPDEST CALLVALUE DUP1 ISZERO PUSH2 0x17A JUMPI PUSH1 0x0 DUP1 REVERT JUMPDEST POP PUSH2 0xEE PUSH2 0x2A5 JUMP JUMPDEST CALLVALUE DUP1 ISZERO PUSH2 0x18F JUMPI PUSH1 0x0 DUP1 REVERT JUMPDEST POP PUSH2 0xEE PUSH2 0x2B4 JUMP JUMPDEST PUSH1 0x0 DUP1 SLOAD PUSH20 0xFFFFFFFFFFFFFFFFFFFFFFFFFFFFFFFFFFFFFFFF NOT SWAP1 DUP2 AND PUSH1 0x1 PUSH1 0xA0 PUSH1 0x2 EXP SUB SWAP7 DUP8 AND OR SWAP1 SWAP2 SSTORE PUSH1 0x1 DUP1 SLOAD DUP3 AND SWAP5 DUP7 AND SWAP5 SWAP1 SWAP5 OR SWAP1 SWAP4 SSTORE PUSH1 0x2 DUP1 SLOAD SWAP1 SWAP4 AND SWAP2 SWAP1 SWAP4 AND OR SWAP1 SSTORE PUSH1 0x3 SSTORE JUMP JUMPDEST PUSH1 0x1 SLOAD PUSH1 0x3 SLOAD PUSH1 0x40 MLOAD PUSH1 0x1 PUSH1 0xA0 PUSH1 0x2 EXP SUB SWAP1 SWAP3 AND SWAP2 PUSH8 0xDE0B6B3A7640000 SWAP1 SWAP2 MUL DUP1 ISZERO PUSH2 0x8FC MUL SWAP2 PUSH1 0x0 DUP2 DUP2 DUP2 DUP6 DUP9 DUP9 CALL SWAP4 POP POP POP POP ISZERO DUP1 ISZERO PUSH2 0x22E JUMPI RETURNDATASIZE PUSH1 0x0 DUP1 RETURNDATACOPY RETURNDATASIZE PUSH1 0x0 REVERT JUMPDEST POP JUMP JUMPDEST PUSH1 0x2 SLOAD PUSH1 0x1 PUSH1 0xA0 PUSH1 0x2 EXP SUB AND DUP2 JUMP JUMPDEST PUSH1 0x0 DUP2 PUSH1 0x1 PUSH1 0xA0 PUSH1 0x2 EXP SUB AND PUSH2 0x8FC PUSH1 0x3 SLOAD PUSH8 0xDE0B6B3A7640000 MUL SWAP1 DUP2 ISZERO MUL SWAP1 PUSH1 0x40 MLOAD PUSH1 0x0 PUSH1 0x40 MLOAD DUP1 DUP4 SUB DUP2 DUP6 DUP9 DUP9 CALL SWAP4 POP POP POP POP ISZERO DUP1 ISZERO PUSH2 0x287 JUMPI RETURNDATASIZE PUSH1 0x0 DUP1 RETURNDATACOPY RETURNDATASIZE PUSH1 0x0 REVERT JUMPDEST POP PUSH1 0x1 SWAP3 SWAP2 POP POP JUMP JUMPDEST PUSH1 0x0 SLOAD PUSH1 0x1 PUSH1 0xA0 PUSH1 0x2 EXP SUB AND DUP2 JUMP JUMPDEST PUSH1 0x3 SLOAD DUP2 JUMP JUMPDEST PUSH1 0x2 SLOAD PUSH1 0x1 PUSH1 0xA0 PUSH1 0x2 EXP SUB AND SWAP1 JUMP JUMPDEST PUSH1 0x1 SLOAD PUSH1 0x1 PUSH1 0xA0 PUSH1 0x2 EXP SUB AND DUP2 JUMP STOP LOG1 PUSH6 0x627A7A723058 KECCAK256 SELFDESTRUCT ISZERO 0xe0 CODESIZE 0x5e LOG0 TIMESTAMP 0x2d SDIV PUSH11 0xFF80EE1782CBD42BB4C51F BLOCKHASH 0x1e NOT 0xa9 0xf7 0xb0 0xe4 0xe0 0x4a PUSH25 0x73002900000000000000000000000000000000000000000000 "
				},
				"gasEstimates": {
					"creation": {
						"codeDepositCost": "150200",
						"executionCost": "196",
						"totalCost": "150396"
					},
					"external": {
						"amount()": "494",
						"approve()": "infinite",
						"approver()": "581",
						"deposit(address,address,address,uint256)": "81033",
						"receiver()": "691",
						"send(address)": "infinite",
						"sender()": "625",
						"viewApprover()": "669"
					}
				},
				"methodIdentifiers": {
					"amount()": "aa8c217c",
					"approve()": "12424e3f",
					"approver()": "141a8dd8",
					"deposit(address,address,address,uint256)": "0284c3f5",
					"receiver()": "f7260d3e",
					"send(address)": "3e58c58c",
					"sender()": "67e404ce",
					"viewApprover()": "d93ce89c"
				}
			},
			"userdoc": {
				"methods": {}
			}
		}
	}
}