{
	"contracts/SendMoneyWithApproval.sol": {
		"SendMoneyWithApproval": {
			"abi": [
				{
					"constant": false,
					"inputs": [
						{
							"name": "_sender",
							"type": "address"
						},
						{
							"name": "_receiver",
							"type": "address"
						},
						{
							"name": "_approver",
							"type": "address"
						},
						{
							"name": "_amount",
							"type": "uint256"
						}
					],
					"name": "deposit",
					"outputs": [],
					"payable": true,
					"stateMutability": "payable",
					"type": "function"
				},
				{
					"constant": false,
					"inputs": [],
					"name": "approve",
					"outputs": [],
					"payable": false,
					"stateMutability": "nonpayable",
					"type": "function"
				},
				{
					"constant": true,
					"inputs": [],
					"name": "approver",
					"outputs": [
						{
							"name": "",
							"type": "address"
						}
					],
					"payable": false,
					"stateMutability": "view",
					"type": "function"
				},
				{
					"constant": true,
					"inputs": [],
					"name": "sender",
					"outputs": [
						{
							"name": "",
							"type": "address"
						}
					],
					"payable": false,
					"stateMutability": "view",
					"type": "function"
				},
				{
					"constant": true,
					"inputs": [],
					"name": "amount",
					"outputs": [
						{
							"name": "",
							"type": "uint256"
						}
					],
					"payable": false,
					"stateMutability": "view",
					"type": "function"
				},
				{
					"constant": true,
					"inputs": [],
					"name": "viewApprover",
					"outputs": [
						{
							"name": "",
							"type": "address"
						}
					],
					"payable": false,
					"stateMutability": "view",
					"type": "function"
				},
				{
					"constant": true,
					"inputs": [],
					"name": "receiver",
					"outputs": [
						{
							"name": "",
							"type": "address"
						}
					],
					"payable": false,
					"stateMutability": "view",
					"type": "function"
				}
			],
			"devdoc": {
				"methods": {}
			},
			"evm": {
				"assembly": "    /* \"contracts/SendMoneyWithApproval.sol\":134:826  contract SendMoneyWithApproval\r... */\n  mstore(0x40, 0x80)\n  callvalue\n    /* \"--CODEGEN--\":8:17   */\n  dup1\n    /* \"--CODEGEN--\":5:7   */\n  iszero\n  tag_1\n  jumpi\n    /* \"--CODEGEN--\":30:31   */\n  0x0\n    /* \"--CODEGEN--\":27:28   */\n  dup1\n    /* \"--CODEGEN--\":20:32   */\n  revert\n    /* \"--CODEGEN--\":5:7   */\ntag_1:\n    /* \"contracts/SendMoneyWithApproval.sol\":134:826  contract SendMoneyWithApproval\r... */\n  pop\n  dataSize(sub_0)\n  dup1\n  dataOffset(sub_0)\n  0x0\n  codecopy\n  0x0\n  return\nstop\n\nsub_0: assembly {\n        /* \"contracts/SendMoneyWithApproval.sol\":134:826  contract SendMoneyWithApproval\r... */\n      mstore(0x40, 0x80)\n      jumpi(tag_1, lt(calldatasize, 0x4))\n      and(div(calldataload(0x0), 0x100000000000000000000000000000000000000000000000000000000), 0xffffffff)\n      0x284c3f5\n      dup2\n      eq\n      tag_2\n      jumpi\n      dup1\n      0x12424e3f\n      eq\n      tag_3\n      jumpi\n      dup1\n      0x141a8dd8\n      eq\n      tag_4\n      jumpi\n      dup1\n      0x67e404ce\n      eq\n      tag_5\n      jumpi\n      dup1\n      0xaa8c217c\n      eq\n      tag_6\n      jumpi\n      dup1\n      0xd93ce89c\n      eq\n      tag_7\n      jumpi\n      dup1\n      0xf7260d3e\n      eq\n      tag_8\n      jumpi\n    tag_1:\n      0x0\n      dup1\n      revert\n        /* \"contracts/SendMoneyWithApproval.sol\":286:524  function deposit(address _sender, address _receiver, address _approver, uint _amount) external payable {\r... */\n    tag_2:\n      tag_9\n      sub(exp(0x2, 0xa0), 0x1)\n      calldataload(0x4)\n      dup2\n      and\n      swap1\n      calldataload(0x24)\n      dup2\n      and\n      swap1\n      calldataload(0x44)\n      and\n      calldataload(0x64)\n      jump(tag_10)\n    tag_9:\n      stop\n        /* \"contracts/SendMoneyWithApproval.sol\":619:726  function approve() external {\r... */\n    tag_3:\n      callvalue\n        /* \"--CODEGEN--\":8:17   */\n      dup1\n        /* \"--CODEGEN--\":5:7   */\n      iszero\n      tag_11\n      jumpi\n        /* \"--CODEGEN--\":30:31   */\n      0x0\n        /* \"--CODEGEN--\":27:28   */\n      dup1\n        /* \"--CODEGEN--\":20:32   */\n      revert\n        /* \"--CODEGEN--\":5:7   */\n    tag_11:\n        /* \"contracts/SendMoneyWithApproval.sol\":619:726  function approve() external {\r... */\n      pop\n      tag_9\n      jump(tag_13)\n        /* \"contracts/SendMoneyWithApproval.sol\":231:254  address public approver */\n    tag_4:\n      callvalue\n        /* \"--CODEGEN--\":8:17   */\n      dup1\n        /* \"--CODEGEN--\":5:7   */\n      iszero\n      tag_14\n      jumpi\n        /* \"--CODEGEN--\":30:31   */\n      0x0\n        /* \"--CODEGEN--\":27:28   */\n      dup1\n        /* \"--CODEGEN--\":20:32   */\n      revert\n        /* \"--CODEGEN--\":5:7   */\n    tag_14:\n        /* \"contracts/SendMoneyWithApproval.sol\":231:254  address public approver */\n      pop\n      tag_15\n      jump(tag_16)\n    tag_15:\n      0x40\n      dup1\n      mload\n      sub(exp(0x2, 0xa0), 0x1)\n      swap1\n      swap3\n      and\n      dup3\n      mstore\n      mload\n      swap1\n      dup2\n      swap1\n      sub\n      0x20\n      add\n      swap1\n      return\n        /* \"contracts/SendMoneyWithApproval.sol\":173:194  address public sender */\n    tag_5:\n      callvalue\n        /* \"--CODEGEN--\":8:17   */\n      dup1\n        /* \"--CODEGEN--\":5:7   */\n      iszero\n      tag_17\n      jumpi\n        /* \"--CODEGEN--\":30:31   */\n      0x0\n        /* \"--CODEGEN--\":27:28   */\n      dup1\n        /* \"--CODEGEN--\":20:32   */\n      revert\n        /* \"--CODEGEN--\":5:7   */\n    tag_17:\n        /* \"contracts/SendMoneyWithApproval.sol\":173:194  address public sender */\n      pop\n      tag_15\n      jump(tag_19)\n        /* \"contracts/SendMoneyWithApproval.sol\":261:279  uint public amount */\n    tag_6:\n      callvalue\n        /* \"--CODEGEN--\":8:17   */\n      dup1\n        /* \"--CODEGEN--\":5:7   */\n      iszero\n      tag_20\n      jumpi\n        /* \"--CODEGEN--\":30:31   */\n      0x0\n        /* \"--CODEGEN--\":27:28   */\n      dup1\n        /* \"--CODEGEN--\":20:32   */\n      revert\n        /* \"--CODEGEN--\":5:7   */\n    tag_20:\n        /* \"contracts/SendMoneyWithApproval.sol\":261:279  uint public amount */\n      pop\n      tag_21\n      jump(tag_22)\n    tag_21:\n      0x40\n      dup1\n      mload\n      swap2\n      dup3\n      mstore\n      mload\n      swap1\n      dup2\n      swap1\n      sub\n      0x20\n      add\n      swap1\n      return\n        /* \"contracts/SendMoneyWithApproval.sol\":530:614  function viewApprover() external view returns(address) {\r... */\n    tag_7:\n      callvalue\n        /* \"--CODEGEN--\":8:17   */\n      dup1\n        /* \"--CODEGEN--\":5:7   */\n      iszero\n      tag_23\n      jumpi\n        /* \"--CODEGEN--\":30:31   */\n      0x0\n        /* \"--CODEGEN--\":27:28   */\n      dup1\n        /* \"--CODEGEN--\":20:32   */\n      revert\n        /* \"--CODEGEN--\":5:7   */\n    tag_23:\n        /* \"contracts/SendMoneyWithApproval.sol\":530:614  function viewApprover() external view returns(address) {\r... */\n      pop\n      tag_15\n      jump(tag_25)\n        /* \"contracts/SendMoneyWithApproval.sol\":201:224  address public receiver */\n    tag_8:\n      callvalue\n        /* \"--CODEGEN--\":8:17   */\n      dup1\n        /* \"--CODEGEN--\":5:7   */\n      iszero\n      tag_26\n      jumpi\n        /* \"--CODEGEN--\":30:31   */\n      0x0\n        /* \"--CODEGEN--\":27:28   */\n      dup1\n        /* \"--CODEGEN--\":20:32   */\n      revert\n        /* \"--CODEGEN--\":5:7   */\n    tag_26:\n        /* \"contracts/SendMoneyWithApproval.sol\":201:224  address public receiver */\n      pop\n      tag_15\n      jump(tag_28)\n        /* \"contracts/SendMoneyWithApproval.sol\":286:524  function deposit(address _sender, address _receiver, address _approver, uint _amount) external payable {\r... */\n    tag_10:\n        /* \"contracts/SendMoneyWithApproval.sol\":416:417  0 */\n      0x0\n        /* \"contracts/SendMoneyWithApproval.sol\":404:413  msg.value */\n      callvalue\n        /* \"contracts/SendMoneyWithApproval.sol\":404:417  msg.value > 0 */\n      gt\n        /* \"contracts/SendMoneyWithApproval.sol\":396:418  require(msg.value > 0) */\n      tag_30\n      jumpi\n      0x0\n      dup1\n      revert\n    tag_30:\n        /* \"contracts/SendMoneyWithApproval.sol\":425:431  sender */\n      0x0\n        /* \"contracts/SendMoneyWithApproval.sol\":425:441  sender = _sender */\n      dup1\n      sload\n      not(0xffffffffffffffffffffffffffffffffffffffff)\n      swap1\n      dup2\n      and\n      sub(exp(0x2, 0xa0), 0x1)\n      swap7\n      dup8\n      and\n      or\n      swap1\n      swap2\n      sstore\n      0x1\n        /* \"contracts/SendMoneyWithApproval.sol\":448:468  receiver = _receiver */\n      dup1\n      sload\n      dup3\n      and\n      swap5\n      dup7\n      and\n      swap5\n      swap1\n      swap5\n      or\n      swap1\n      swap4\n      sstore\n        /* \"contracts/SendMoneyWithApproval.sol\":475:483  approver */\n      0x2\n        /* \"contracts/SendMoneyWithApproval.sol\":475:495  approver = _approver */\n      dup1\n      sload\n      swap1\n      swap4\n      and\n      swap2\n      swap1\n      swap4\n      and\n      or\n      swap1\n      sstore\n        /* \"contracts/SendMoneyWithApproval.sol\":502:508  amount */\n      0x3\n        /* \"contracts/SendMoneyWithApproval.sol\":502:518  amount = _amount */\n      sstore\n        /* \"contracts/SendMoneyWithApproval.sol\":286:524  function deposit(address _sender, address _receiver, address _approver, uint _amount) external payable {\r... */\n      jump\t// out\n        /* \"contracts/SendMoneyWithApproval.sol\":619:726  function approve() external {\r... */\n    tag_13:\n        /* \"contracts/SendMoneyWithApproval.sol\":676:684  approver */\n      and(sub(exp(0x2, 0xa0), 0x1), sload(0x2))\n        /* \"contracts/SendMoneyWithApproval.sol\":662:672  msg.sender */\n      caller\n        /* \"contracts/SendMoneyWithApproval.sol\":662:684  msg.sender == approver */\n      eq\n        /* \"contracts/SendMoneyWithApproval.sol\":654:685  require(msg.sender == approver) */\n      tag_32\n      jumpi\n      0x0\n      dup1\n      revert\n    tag_32:\n        /* \"contracts/SendMoneyWithApproval.sol\":693:701  receiver */\n      sload(0x1)\n        /* \"contracts/SendMoneyWithApproval.sol\":712:718  amount */\n      sload(0x3)\n        /* \"contracts/SendMoneyWithApproval.sol\":692:719  (receiver).transfer(amount) */\n      mload(0x40)\n      sub(exp(0x2, 0xa0), 0x1)\n        /* \"contracts/SendMoneyWithApproval.sol\":693:701  receiver */\n      swap1\n      swap3\n      and\n      swap2\n        /* \"contracts/SendMoneyWithApproval.sol\":692:719  (receiver).transfer(amount) */\n      dup2\n      iszero\n      0x8fc\n      mul\n      swap2\n        /* \"contracts/SendMoneyWithApproval.sol\":712:718  amount */\n      swap1\n        /* \"contracts/SendMoneyWithApproval.sol\":693:701  receiver */\n      0x0\n        /* \"contracts/SendMoneyWithApproval.sol\":692:719  (receiver).transfer(amount) */\n      dup2\n        /* \"contracts/SendMoneyWithApproval.sol\":693:701  receiver */\n      dup2\n        /* \"contracts/SendMoneyWithApproval.sol\":692:719  (receiver).transfer(amount) */\n      dup2\n        /* \"contracts/SendMoneyWithApproval.sol\":712:718  amount */\n      dup6\n        /* \"contracts/SendMoneyWithApproval.sol\":693:701  receiver */\n      dup9\n        /* \"contracts/SendMoneyWithApproval.sol\":692:719  (receiver).transfer(amount) */\n      dup9\n      call\n      swap4\n      pop\n      pop\n      pop\n      pop\n      iszero\n        /* \"--CODEGEN--\":8:17   */\n      dup1\n        /* \"--CODEGEN--\":5:7   */\n      iszero\n      tag_33\n      jumpi\n        /* \"--CODEGEN--\":45:61   */\n      returndatasize\n        /* \"--CODEGEN--\":42:43   */\n      0x0\n        /* \"--CODEGEN--\":39:40   */\n      dup1\n        /* \"--CODEGEN--\":24:62   */\n      returndatacopy\n        /* \"--CODEGEN--\":77:93   */\n      returndatasize\n        /* \"--CODEGEN--\":74:75   */\n      0x0\n        /* \"--CODEGEN--\":67:94   */\n      revert\n        /* \"--CODEGEN--\":5:7   */\n    tag_33:\n        /* \"contracts/SendMoneyWithApproval.sol\":692:719  (receiver).transfer(amount) */\n      pop\n        /* \"contracts/SendMoneyWithApproval.sol\":619:726  function approve() external {\r... */\n      jump\t// out\n        /* \"contracts/SendMoneyWithApproval.sol\":231:254  address public approver */\n    tag_16:\n      and(sub(exp(0x2, 0xa0), 0x1), sload(0x2))\n      dup2\n      jump\t// out\n        /* \"contracts/SendMoneyWithApproval.sol\":173:194  address public sender */\n    tag_19:\n      and(sub(exp(0x2, 0xa0), 0x1), sload(0x0))\n      dup2\n      jump\t// out\n        /* \"contracts/SendMoneyWithApproval.sol\":261:279  uint public amount */\n    tag_22:\n      sload(0x3)\n      dup2\n      jump\t// out\n        /* \"contracts/SendMoneyWithApproval.sol\":530:614  function viewApprover() external view returns(address) {\r... */\n    tag_25:\n        /* \"contracts/SendMoneyWithApproval.sol\":599:607  approver */\n      and(sub(exp(0x2, 0xa0), 0x1), sload(0x2))\n        /* \"contracts/SendMoneyWithApproval.sol\":530:614  function viewApprover() external view returns(address) {\r... */\n      swap1\n      jump\t// out\n        /* \"contracts/SendMoneyWithApproval.sol\":201:224  address public receiver */\n    tag_28:\n      and(sub(exp(0x2, 0xa0), 0x1), sload(0x1))\n      dup2\n      jump\t// out\n\n    auxdata: 0xa165627a7a723058205e5792ec1e801067b8d7f8411726fc162b97665eea4f81addce22106658021910029\n}\n",
				"bytecode": {
					"linkReferences": {},
					"object": "608060405234801561001057600080fd5b50610278806100206000396000f3006080604052600436106100825763ffffffff7c01000000000000000000000000000000000000000000000000000000006000350416630284c3f5811461008757806312424e3f146100ac578063141a8dd8146100c157806367e404ce146100f2578063aa8c217c14610107578063d93ce89c1461012e578063f7260d3e14610143575b600080fd5b6100aa600160a060020a0360043581169060243581169060443516606435610158565b005b3480156100b857600080fd5b506100aa6101b4565b3480156100cd57600080fd5b506100d661020a565b60408051600160a060020a039092168252519081900360200190f35b3480156100fe57600080fd5b506100d6610219565b34801561011357600080fd5b5061011c610228565b60408051918252519081900360200190f35b34801561013a57600080fd5b506100d661022e565b34801561014f57600080fd5b506100d661023d565b6000341161016557600080fd5b6000805473ffffffffffffffffffffffffffffffffffffffff19908116600160a060020a0396871617909155600180548216948616949094179093556002805490931691909316179055600355565b600254600160a060020a031633146101cb57600080fd5b600154600354604051600160a060020a039092169181156108fc0291906000818181858888f19350505050158015610207573d6000803e3d6000fd5b50565b600254600160a060020a031681565b600054600160a060020a031681565b60035481565b600254600160a060020a031690565b600154600160a060020a0316815600a165627a7a723058205e5792ec1e801067b8d7f8411726fc162b97665eea4f81addce22106658021910029",
					"opcodes": "PUSH1 0x80 PUSH1 0x40 MSTORE CALLVALUE DUP1 ISZERO PUSH2 0x10 JUMPI PUSH1 0x0 DUP1 REVERT JUMPDEST POP PUSH2 0x278 DUP1 PUSH2 0x20 PUSH1 0x0 CODECOPY PUSH1 0x0 RETURN STOP PUSH1 0x80 PUSH1 0x40 MSTORE PUSH1 0x4 CALLDATASIZE LT PUSH2 0x82 JUMPI PUSH4 0xFFFFFFFF PUSH29 0x100000000000000000000000000000000000000000000000000000000 PUSH1 0x0 CALLDATALOAD DIV AND PUSH4 0x284C3F5 DUP2 EQ PUSH2 0x87 JUMPI DUP1 PUSH4 0x12424E3F EQ PUSH2 0xAC JUMPI DUP1 PUSH4 0x141A8DD8 EQ PUSH2 0xC1 JUMPI DUP1 PUSH4 0x67E404CE EQ PUSH2 0xF2 JUMPI DUP1 PUSH4 0xAA8C217C EQ PUSH2 0x107 JUMPI DUP1 PUSH4 0xD93CE89C EQ PUSH2 0x12E JUMPI DUP1 PUSH4 0xF7260D3E EQ PUSH2 0x143 JUMPI JUMPDEST PUSH1 0x0 DUP1 REVERT JUMPDEST PUSH2 0xAA PUSH1 0x1 PUSH1 0xA0 PUSH1 0x2 EXP SUB PUSH1 0x4 CALLDATALOAD DUP2 AND SWAP1 PUSH1 0x24 CALLDATALOAD DUP2 AND SWAP1 PUSH1 0x44 CALLDATALOAD AND PUSH1 0x64 CALLDATALOAD PUSH2 0x158 JUMP JUMPDEST STOP JUMPDEST CALLVALUE DUP1 ISZERO PUSH2 0xB8 JUMPI PUSH1 0x0 DUP1 REVERT JUMPDEST POP PUSH2 0xAA PUSH2 0x1B4 JUMP JUMPDEST CALLVALUE DUP1 ISZERO PUSH2 0xCD JUMPI PUSH1 0x0 DUP1 REVERT JUMPDEST POP PUSH2 0xD6 PUSH2 0x20A JUMP JUMPDEST PUSH1 0x40 DUP1 MLOAD PUSH1 0x1 PUSH1 0xA0 PUSH1 0x2 EXP SUB SWAP1 SWAP3 AND DUP3 MSTORE MLOAD SWAP1 DUP2 SWAP1 SUB PUSH1 0x20 ADD SWAP1 RETURN JUMPDEST CALLVALUE DUP1 ISZERO PUSH2 0xFE JUMPI PUSH1 0x0 DUP1 REVERT JUMPDEST POP PUSH2 0xD6 PUSH2 0x219 JUMP JUMPDEST CALLVALUE DUP1 ISZERO PUSH2 0x113 JUMPI PUSH1 0x0 DUP1 REVERT JUMPDEST POP PUSH2 0x11C PUSH2 0x228 JUMP JUMPDEST PUSH1 0x40 DUP1 MLOAD SWAP2 DUP3 MSTORE MLOAD SWAP1 DUP2 SWAP1 SUB PUSH1 0x20 ADD SWAP1 RETURN JUMPDEST CALLVALUE DUP1 ISZERO PUSH2 0x13A JUMPI PUSH1 0x0 DUP1 REVERT JUMPDEST POP PUSH2 0xD6 PUSH2 0x22E JUMP JUMPDEST CALLVALUE DUP1 ISZERO PUSH2 0x14F JUMPI PUSH1 0x0 DUP1 REVERT JUMPDEST POP PUSH2 0xD6 PUSH2 0x23D JUMP JUMPDEST PUSH1 0x0 CALLVALUE GT PUSH2 0x165 JUMPI PUSH1 0x0 DUP1 REVERT JUMPDEST PUSH1 0x0 DUP1 SLOAD PUSH20 0xFFFFFFFFFFFFFFFFFFFFFFFFFFFFFFFFFFFFFFFF NOT SWAP1 DUP2 AND PUSH1 0x1 PUSH1 0xA0 PUSH1 0x2 EXP SUB SWAP7 DUP8 AND OR SWAP1 SWAP2 SSTORE PUSH1 0x1 DUP1 SLOAD DUP3 AND SWAP5 DUP7 AND SWAP5 SWAP1 SWAP5 OR SWAP1 SWAP4 SSTORE PUSH1 0x2 DUP1 SLOAD SWAP1 SWAP4 AND SWAP2 SWAP1 SWAP4 AND OR SWAP1 SSTORE PUSH1 0x3 SSTORE JUMP JUMPDEST PUSH1 0x2 SLOAD PUSH1 0x1 PUSH1 0xA0 PUSH1 0x2 EXP SUB AND CALLER EQ PUSH2 0x1CB JUMPI PUSH1 0x0 DUP1 REVERT JUMPDEST PUSH1 0x1 SLOAD PUSH1 0x3 SLOAD PUSH1 0x40 MLOAD PUSH1 0x1 PUSH1 0xA0 PUSH1 0x2 EXP SUB SWAP1 SWAP3 AND SWAP2 DUP2 ISZERO PUSH2 0x8FC MUL SWAP2 SWAP1 PUSH1 0x0 DUP2 DUP2 DUP2 DUP6 DUP9 DUP9 CALL SWAP4 POP POP POP POP ISZERO DUP1 ISZERO PUSH2 0x207 JUMPI RETURNDATASIZE PUSH1 0x0 DUP1 RETURNDATACOPY RETURNDATASIZE PUSH1 0x0 REVERT JUMPDEST POP JUMP JUMPDEST PUSH1 0x2 SLOAD PUSH1 0x1 PUSH1 0xA0 PUSH1 0x2 EXP SUB AND DUP2 JUMP JUMPDEST PUSH1 0x0 SLOAD PUSH1 0x1 PUSH1 0xA0 PUSH1 0x2 EXP SUB AND DUP2 JUMP JUMPDEST PUSH1 0x3 SLOAD DUP2 JUMP JUMPDEST PUSH1 0x2 SLOAD PUSH1 0x1 PUSH1 0xA0 PUSH1 0x2 EXP SUB AND SWAP1 JUMP JUMPDEST PUSH1 0x1 SLOAD PUSH1 0x1 PUSH1 0xA0 PUSH1 0x2 EXP SUB AND DUP2 JUMP STOP LOG1 PUSH6 0x627A7A723058 KECCAK256 0x5e JUMPI SWAP3 0xec 0x1e DUP1 LT PUSH8 0xB8D7F8411726FC16 0x2b SWAP8 PUSH7 0x5EEA4F81ADDCE2 0x21 MOD PUSH6 0x802191002900 "
				},
				"gasEstimates": {
					"creation": {
						"codeDepositCost": "126400",
						"executionCost": "171",
						"totalCost": "126571"
					},
					"external": {
						"amount()": "472",
						"approve()": "infinite",
						"approver()": "581",
						"deposit(address,address,address,uint256)": "81031",
						"receiver()": "669",
						"sender()": "603",
						"viewApprover()": "647"
					}
				},
				"methodIdentifiers": {
					"amount()": "aa8c217c",
					"approve()": "12424e3f",
					"approver()": "141a8dd8",
					"deposit(address,address,address,uint256)": "0284c3f5",
					"receiver()": "f7260d3e",
					"sender()": "67e404ce",
					"viewApprover()": "d93ce89c"
				}
			},
			"userdoc": {
				"methods": {}
			}
		}
	}
}