{
	"contracts/SendMoneyWithApproval.sol": {
		"SendMoneyWithApproval": {
			"abi": [
				{
					"constant": false,
					"inputs": [],
					"name": "approve",
					"outputs": [],
					"payable": false,
					"stateMutability": "nonpayable",
					"type": "function"
				},
				{
					"constant": true,
					"inputs": [],
					"name": "approver",
					"outputs": [
						{
							"name": "",
							"type": "address"
						}
					],
					"payable": false,
					"stateMutability": "view",
					"type": "function"
				},
				{
					"constant": true,
					"inputs": [],
					"name": "sender",
					"outputs": [
						{
							"name": "",
							"type": "address"
						}
					],
					"payable": false,
					"stateMutability": "view",
					"type": "function"
				},
				{
					"constant": false,
					"inputs": [
						{
							"name": "_sender",
							"type": "address"
						},
						{
							"name": "_receiver",
							"type": "address"
						},
						{
							"name": "_approver",
							"type": "address"
						}
					],
					"name": "deposit",
					"outputs": [],
					"payable": true,
					"stateMutability": "payable",
					"type": "function"
				},
				{
					"constant": true,
					"inputs": [],
					"name": "viewApprover",
					"outputs": [
						{
							"name": "",
							"type": "address"
						}
					],
					"payable": false,
					"stateMutability": "view",
					"type": "function"
				},
				{
					"constant": true,
					"inputs": [],
					"name": "receiver",
					"outputs": [
						{
							"name": "",
							"type": "address"
						}
					],
					"payable": false,
					"stateMutability": "view",
					"type": "function"
				}
			],
			"devdoc": {
				"methods": {}
			},
			"evm": {
				"assembly": "    /* \"contracts/SendMoneyWithApproval.sol\":134:759  contract SendMoneyWithApproval\r... */\n  mstore(0x40, 0x80)\n  callvalue\n    /* \"--CODEGEN--\":8:17   */\n  dup1\n    /* \"--CODEGEN--\":5:7   */\n  iszero\n  tag_1\n  jumpi\n    /* \"--CODEGEN--\":30:31   */\n  0x0\n    /* \"--CODEGEN--\":27:28   */\n  dup1\n    /* \"--CODEGEN--\":20:32   */\n  revert\n    /* \"--CODEGEN--\":5:7   */\ntag_1:\n    /* \"contracts/SendMoneyWithApproval.sol\":134:759  contract SendMoneyWithApproval\r... */\n  pop\n  dataSize(sub_0)\n  dup1\n  dataOffset(sub_0)\n  0x0\n  codecopy\n  0x0\n  return\nstop\n\nsub_0: assembly {\n        /* \"contracts/SendMoneyWithApproval.sol\":134:759  contract SendMoneyWithApproval\r... */\n      mstore(0x40, 0x80)\n      jumpi(tag_1, lt(calldatasize, 0x4))\n      and(div(calldataload(0x0), 0x100000000000000000000000000000000000000000000000000000000), 0xffffffff)\n      0x12424e3f\n      dup2\n      eq\n      tag_2\n      jumpi\n      dup1\n      0x141a8dd8\n      eq\n      tag_3\n      jumpi\n      dup1\n      0x67e404ce\n      eq\n      tag_4\n      jumpi\n      dup1\n      0x9f1acf44\n      eq\n      tag_5\n      jumpi\n      dup1\n      0xd93ce89c\n      eq\n      tag_6\n      jumpi\n      dup1\n      0xf7260d3e\n      eq\n      tag_7\n      jumpi\n    tag_1:\n      0x0\n      dup1\n      revert\n        /* \"contracts/SendMoneyWithApproval.sol\":557:659  function approve() external {\r... */\n    tag_2:\n      callvalue\n        /* \"--CODEGEN--\":8:17   */\n      dup1\n        /* \"--CODEGEN--\":5:7   */\n      iszero\n      tag_8\n      jumpi\n        /* \"--CODEGEN--\":30:31   */\n      0x0\n        /* \"--CODEGEN--\":27:28   */\n      dup1\n        /* \"--CODEGEN--\":20:32   */\n      revert\n        /* \"--CODEGEN--\":5:7   */\n    tag_8:\n        /* \"contracts/SendMoneyWithApproval.sol\":557:659  function approve() external {\r... */\n      pop\n      tag_9\n      jump(tag_10)\n    tag_9:\n      stop\n        /* \"contracts/SendMoneyWithApproval.sol\":231:254  address public approver */\n    tag_3:\n      callvalue\n        /* \"--CODEGEN--\":8:17   */\n      dup1\n        /* \"--CODEGEN--\":5:7   */\n      iszero\n      tag_11\n      jumpi\n        /* \"--CODEGEN--\":30:31   */\n      0x0\n        /* \"--CODEGEN--\":27:28   */\n      dup1\n        /* \"--CODEGEN--\":20:32   */\n      revert\n        /* \"--CODEGEN--\":5:7   */\n    tag_11:\n        /* \"contracts/SendMoneyWithApproval.sol\":231:254  address public approver */\n      pop\n      tag_12\n      jump(tag_13)\n    tag_12:\n      0x40\n      dup1\n      mload\n      sub(exp(0x2, 0xa0), 0x1)\n      swap1\n      swap3\n      and\n      dup3\n      mstore\n      mload\n      swap1\n      dup2\n      swap1\n      sub\n      0x20\n      add\n      swap1\n      return\n        /* \"contracts/SendMoneyWithApproval.sol\":173:194  address public sender */\n    tag_4:\n      callvalue\n        /* \"--CODEGEN--\":8:17   */\n      dup1\n        /* \"--CODEGEN--\":5:7   */\n      iszero\n      tag_14\n      jumpi\n        /* \"--CODEGEN--\":30:31   */\n      0x0\n        /* \"--CODEGEN--\":27:28   */\n      dup1\n        /* \"--CODEGEN--\":20:32   */\n      revert\n        /* \"--CODEGEN--\":5:7   */\n    tag_14:\n        /* \"contracts/SendMoneyWithApproval.sol\":173:194  address public sender */\n      pop\n      tag_12\n      jump(tag_16)\n        /* \"contracts/SendMoneyWithApproval.sol\":261:462  function deposit(address _sender, address _receiver, address _approver) external payable {\r... */\n    tag_5:\n      tag_9\n      sub(exp(0x2, 0xa0), 0x1)\n      calldataload(0x4)\n      dup2\n      and\n      swap1\n      calldataload(0x24)\n      dup2\n      and\n      swap1\n      calldataload(0x44)\n      and\n      jump(tag_18)\n        /* \"contracts/SendMoneyWithApproval.sol\":468:552  function viewApprover() external view returns(address) {\r... */\n    tag_6:\n      callvalue\n        /* \"--CODEGEN--\":8:17   */\n      dup1\n        /* \"--CODEGEN--\":5:7   */\n      iszero\n      tag_19\n      jumpi\n        /* \"--CODEGEN--\":30:31   */\n      0x0\n        /* \"--CODEGEN--\":27:28   */\n      dup1\n        /* \"--CODEGEN--\":20:32   */\n      revert\n        /* \"--CODEGEN--\":5:7   */\n    tag_19:\n        /* \"contracts/SendMoneyWithApproval.sol\":468:552  function viewApprover() external view returns(address) {\r... */\n      pop\n      tag_12\n      jump(tag_21)\n        /* \"contracts/SendMoneyWithApproval.sol\":201:224  address public receiver */\n    tag_7:\n      callvalue\n        /* \"--CODEGEN--\":8:17   */\n      dup1\n        /* \"--CODEGEN--\":5:7   */\n      iszero\n      tag_22\n      jumpi\n        /* \"--CODEGEN--\":30:31   */\n      0x0\n        /* \"--CODEGEN--\":27:28   */\n      dup1\n        /* \"--CODEGEN--\":20:32   */\n      revert\n        /* \"--CODEGEN--\":5:7   */\n    tag_22:\n        /* \"contracts/SendMoneyWithApproval.sol\":201:224  address public receiver */\n      pop\n      tag_12\n      jump(tag_24)\n        /* \"contracts/SendMoneyWithApproval.sol\":557:659  function approve() external {\r... */\n    tag_10:\n        /* \"contracts/SendMoneyWithApproval.sol\":614:622  approver */\n      and(sub(exp(0x2, 0xa0), 0x1), sload(0x2))\n        /* \"contracts/SendMoneyWithApproval.sol\":600:610  msg.sender */\n      caller\n        /* \"contracts/SendMoneyWithApproval.sol\":600:622  msg.sender == approver */\n      eq\n        /* \"contracts/SendMoneyWithApproval.sol\":592:623  require(msg.sender == approver) */\n      tag_26\n      jumpi\n      0x0\n      dup1\n      revert\n    tag_26:\n        /* \"contracts/SendMoneyWithApproval.sol\":631:639  receiver */\n      0x1\n      dup1\n      sload\n        /* \"contracts/SendMoneyWithApproval.sol\":630:652  (receiver).transfer(1) */\n      mload(0x40)\n      sub(exp(0x2, 0xa0), 0x1)\n        /* \"contracts/SendMoneyWithApproval.sol\":631:639  receiver */\n      swap1\n      swap2\n      and\n      swap2\n      0x0\n      swap2\n      dup3\n        /* \"contracts/SendMoneyWithApproval.sol\":630:652  (receiver).transfer(1) */\n      dup2\n        /* \"contracts/SendMoneyWithApproval.sol\":631:639  receiver */\n      dup2\n        /* \"contracts/SendMoneyWithApproval.sol\":630:652  (receiver).transfer(1) */\n      dup2\n        /* \"contracts/SendMoneyWithApproval.sol\":631:639  receiver */\n      dup6\n      dup9\n      dup4\n        /* \"contracts/SendMoneyWithApproval.sol\":630:652  (receiver).transfer(1) */\n      call\n      swap4\n      pop\n      pop\n      pop\n      pop\n      iszero\n        /* \"--CODEGEN--\":8:17   */\n      dup1\n        /* \"--CODEGEN--\":5:7   */\n      iszero\n      tag_27\n      jumpi\n        /* \"--CODEGEN--\":45:61   */\n      returndatasize\n        /* \"--CODEGEN--\":42:43   */\n      0x0\n        /* \"--CODEGEN--\":39:40   */\n      dup1\n        /* \"--CODEGEN--\":24:62   */\n      returndatacopy\n        /* \"--CODEGEN--\":77:93   */\n      returndatasize\n        /* \"--CODEGEN--\":74:75   */\n      0x0\n        /* \"--CODEGEN--\":67:94   */\n      revert\n        /* \"--CODEGEN--\":5:7   */\n    tag_27:\n        /* \"contracts/SendMoneyWithApproval.sol\":630:652  (receiver).transfer(1) */\n      pop\n        /* \"contracts/SendMoneyWithApproval.sol\":557:659  function approve() external {\r... */\n      jump\t// out\n        /* \"contracts/SendMoneyWithApproval.sol\":231:254  address public approver */\n    tag_13:\n      and(sub(exp(0x2, 0xa0), 0x1), sload(0x2))\n      dup2\n      jump\t// out\n        /* \"contracts/SendMoneyWithApproval.sol\":173:194  address public sender */\n    tag_16:\n      and(sub(exp(0x2, 0xa0), 0x1), sload(0x0))\n      dup2\n      jump\t// out\n        /* \"contracts/SendMoneyWithApproval.sol\":261:462  function deposit(address _sender, address _receiver, address _approver) external payable {\r... */\n    tag_18:\n        /* \"contracts/SendMoneyWithApproval.sol\":377:378  0 */\n      0x0\n        /* \"contracts/SendMoneyWithApproval.sol\":365:374  msg.value */\n      callvalue\n        /* \"contracts/SendMoneyWithApproval.sol\":365:378  msg.value > 0 */\n      gt\n        /* \"contracts/SendMoneyWithApproval.sol\":357:379  require(msg.value > 0) */\n      tag_29\n      jumpi\n      0x0\n      dup1\n      revert\n    tag_29:\n        /* \"contracts/SendMoneyWithApproval.sol\":386:392  sender */\n      0x0\n        /* \"contracts/SendMoneyWithApproval.sol\":386:402  sender = _sender */\n      dup1\n      sload\n      sub(exp(0x2, 0xa0), 0x1)\n      swap5\n      dup6\n      and\n      not(0xffffffffffffffffffffffffffffffffffffffff)\n      swap2\n      dup3\n      and\n      or\n      swap1\n      swap2\n      sstore\n      0x1\n        /* \"contracts/SendMoneyWithApproval.sol\":409:429  receiver = _receiver */\n      dup1\n      sload\n      swap4\n      dup6\n      and\n      swap4\n      dup3\n      and\n      swap4\n      swap1\n      swap4\n      or\n      swap1\n      swap3\n      sstore\n        /* \"contracts/SendMoneyWithApproval.sol\":436:444  approver */\n      0x2\n        /* \"contracts/SendMoneyWithApproval.sol\":436:456  approver = _approver */\n      dup1\n      sload\n      swap2\n      swap1\n      swap4\n      and\n      swap2\n      and\n      or\n      swap1\n      sstore\n        /* \"contracts/SendMoneyWithApproval.sol\":261:462  function deposit(address _sender, address _receiver, address _approver) external payable {\r... */\n      jump\t// out\n        /* \"contracts/SendMoneyWithApproval.sol\":468:552  function viewApprover() external view returns(address) {\r... */\n    tag_21:\n        /* \"contracts/SendMoneyWithApproval.sol\":537:545  approver */\n      and(sub(exp(0x2, 0xa0), 0x1), sload(0x2))\n        /* \"contracts/SendMoneyWithApproval.sol\":468:552  function viewApprover() external view returns(address) {\r... */\n      swap1\n      jump\t// out\n        /* \"contracts/SendMoneyWithApproval.sol\":201:224  address public receiver */\n    tag_24:\n      and(sub(exp(0x2, 0xa0), 0x1), sload(0x1))\n      dup2\n      jump\t// out\n\n    auxdata: 0xa165627a7a72305820c995021a288ae91ac947b15ce282b38c14ff4b731137c496916e158f418023cf0029\n}\n",
				"bytecode": {
					"linkReferences": {},
					"object": "608060405234801561001057600080fd5b50610232806100206000396000f3006080604052600436106100775763ffffffff7c010000000000000000000000000000000000000000000000000000000060003504166312424e3f811461007c578063141a8dd81461009357806367e404ce146100c45780639f1acf44146100d9578063d93ce89c146100f9578063f7260d3e1461010e575b600080fd5b34801561008857600080fd5b50610091610123565b005b34801561009f57600080fd5b506100a8610171565b60408051600160a060020a039092168252519081900360200190f35b3480156100d057600080fd5b506100a8610180565b610091600160a060020a036004358116906024358116906044351661018f565b34801561010557600080fd5b506100a86101e8565b34801561011a57600080fd5b506100a86101f7565b600254600160a060020a0316331461013a57600080fd5b60018054604051600160a060020a039091169160009182818181858883f1935050505015801561016e573d6000803e3d6000fd5b50565b600254600160a060020a031681565b600054600160a060020a031681565b6000341161019c57600080fd5b60008054600160a060020a0394851673ffffffffffffffffffffffffffffffffffffffff1991821617909155600180549385169382169390931790925560028054919093169116179055565b600254600160a060020a031690565b600154600160a060020a0316815600a165627a7a72305820c995021a288ae91ac947b15ce282b38c14ff4b731137c496916e158f418023cf0029",
					"opcodes": "PUSH1 0x80 PUSH1 0x40 MSTORE CALLVALUE DUP1 ISZERO PUSH2 0x10 JUMPI PUSH1 0x0 DUP1 REVERT JUMPDEST POP PUSH2 0x232 DUP1 PUSH2 0x20 PUSH1 0x0 CODECOPY PUSH1 0x0 RETURN STOP PUSH1 0x80 PUSH1 0x40 MSTORE PUSH1 0x4 CALLDATASIZE LT PUSH2 0x77 JUMPI PUSH4 0xFFFFFFFF PUSH29 0x100000000000000000000000000000000000000000000000000000000 PUSH1 0x0 CALLDATALOAD DIV AND PUSH4 0x12424E3F DUP2 EQ PUSH2 0x7C JUMPI DUP1 PUSH4 0x141A8DD8 EQ PUSH2 0x93 JUMPI DUP1 PUSH4 0x67E404CE EQ PUSH2 0xC4 JUMPI DUP1 PUSH4 0x9F1ACF44 EQ PUSH2 0xD9 JUMPI DUP1 PUSH4 0xD93CE89C EQ PUSH2 0xF9 JUMPI DUP1 PUSH4 0xF7260D3E EQ PUSH2 0x10E JUMPI JUMPDEST PUSH1 0x0 DUP1 REVERT JUMPDEST CALLVALUE DUP1 ISZERO PUSH2 0x88 JUMPI PUSH1 0x0 DUP1 REVERT JUMPDEST POP PUSH2 0x91 PUSH2 0x123 JUMP JUMPDEST STOP JUMPDEST CALLVALUE DUP1 ISZERO PUSH2 0x9F JUMPI PUSH1 0x0 DUP1 REVERT JUMPDEST POP PUSH2 0xA8 PUSH2 0x171 JUMP JUMPDEST PUSH1 0x40 DUP1 MLOAD PUSH1 0x1 PUSH1 0xA0 PUSH1 0x2 EXP SUB SWAP1 SWAP3 AND DUP3 MSTORE MLOAD SWAP1 DUP2 SWAP1 SUB PUSH1 0x20 ADD SWAP1 RETURN JUMPDEST CALLVALUE DUP1 ISZERO PUSH2 0xD0 JUMPI PUSH1 0x0 DUP1 REVERT JUMPDEST POP PUSH2 0xA8 PUSH2 0x180 JUMP JUMPDEST PUSH2 0x91 PUSH1 0x1 PUSH1 0xA0 PUSH1 0x2 EXP SUB PUSH1 0x4 CALLDATALOAD DUP2 AND SWAP1 PUSH1 0x24 CALLDATALOAD DUP2 AND SWAP1 PUSH1 0x44 CALLDATALOAD AND PUSH2 0x18F JUMP JUMPDEST CALLVALUE DUP1 ISZERO PUSH2 0x105 JUMPI PUSH1 0x0 DUP1 REVERT JUMPDEST POP PUSH2 0xA8 PUSH2 0x1E8 JUMP JUMPDEST CALLVALUE DUP1 ISZERO PUSH2 0x11A JUMPI PUSH1 0x0 DUP1 REVERT JUMPDEST POP PUSH2 0xA8 PUSH2 0x1F7 JUMP JUMPDEST PUSH1 0x2 SLOAD PUSH1 0x1 PUSH1 0xA0 PUSH1 0x2 EXP SUB AND CALLER EQ PUSH2 0x13A JUMPI PUSH1 0x0 DUP1 REVERT JUMPDEST PUSH1 0x1 DUP1 SLOAD PUSH1 0x40 MLOAD PUSH1 0x1 PUSH1 0xA0 PUSH1 0x2 EXP SUB SWAP1 SWAP2 AND SWAP2 PUSH1 0x0 SWAP2 DUP3 DUP2 DUP2 DUP2 DUP6 DUP9 DUP4 CALL SWAP4 POP POP POP POP ISZERO DUP1 ISZERO PUSH2 0x16E JUMPI RETURNDATASIZE PUSH1 0x0 DUP1 RETURNDATACOPY RETURNDATASIZE PUSH1 0x0 REVERT JUMPDEST POP JUMP JUMPDEST PUSH1 0x2 SLOAD PUSH1 0x1 PUSH1 0xA0 PUSH1 0x2 EXP SUB AND DUP2 JUMP JUMPDEST PUSH1 0x0 SLOAD PUSH1 0x1 PUSH1 0xA0 PUSH1 0x2 EXP SUB AND DUP2 JUMP JUMPDEST PUSH1 0x0 CALLVALUE GT PUSH2 0x19C JUMPI PUSH1 0x0 DUP1 REVERT JUMPDEST PUSH1 0x0 DUP1 SLOAD PUSH1 0x1 PUSH1 0xA0 PUSH1 0x2 EXP SUB SWAP5 DUP6 AND PUSH20 0xFFFFFFFFFFFFFFFFFFFFFFFFFFFFFFFFFFFFFFFF NOT SWAP2 DUP3 AND OR SWAP1 SWAP2 SSTORE PUSH1 0x1 DUP1 SLOAD SWAP4 DUP6 AND SWAP4 DUP3 AND SWAP4 SWAP1 SWAP4 OR SWAP1 SWAP3 SSTORE PUSH1 0x2 DUP1 SLOAD SWAP2 SWAP1 SWAP4 AND SWAP2 AND OR SWAP1 SSTORE JUMP JUMPDEST PUSH1 0x2 SLOAD PUSH1 0x1 PUSH1 0xA0 PUSH1 0x2 EXP SUB AND SWAP1 JUMP JUMPDEST PUSH1 0x1 SLOAD PUSH1 0x1 PUSH1 0xA0 PUSH1 0x2 EXP SUB AND DUP2 JUMP STOP LOG1 PUSH6 0x627A7A723058 KECCAK256 0xc9 SWAP6 MUL BYTE 0x28 DUP11 0xe9 BYTE 0xc9 0x47 0xb1 0x5c 0xe2 DUP3 0xb3 DUP13 EQ SELFDESTRUCT 0x4b PUSH20 0x1137C496916E158F418023CF0029000000000000 "
				},
				"gasEstimates": {
					"creation": {
						"codeDepositCost": "112400",
						"executionCost": "159",
						"totalCost": "112559"
					},
					"external": {
						"approve()": "infinite",
						"approver()": "559",
						"deposit(address,address,address)": "61088",
						"receiver()": "647",
						"sender()": "581",
						"viewApprover()": "625"
					}
				},
				"methodIdentifiers": {
					"approve()": "12424e3f",
					"approver()": "141a8dd8",
					"deposit(address,address,address)": "9f1acf44",
					"receiver()": "f7260d3e",
					"sender()": "67e404ce",
					"viewApprover()": "d93ce89c"
				}
			},
			"userdoc": {
				"methods": {}
			}
		}
	}
}