{
	"contracts/SendMoneyWithApproval.sol": {
		"SendMoneyWithApproval": {
			"abi": [
				{
					"payable": true,
					"stateMutability": "payable",
					"type": "fallback"
				},
				{
					"constant": true,
					"inputs": [],
					"name": "amount",
					"outputs": [
						{
							"internalType": "uint256",
							"name": "",
							"type": "uint256"
						}
					],
					"payable": false,
					"stateMutability": "view",
					"type": "function"
				},
				{
					"constant": false,
					"inputs": [],
					"name": "approve",
					"outputs": [],
					"payable": false,
					"stateMutability": "nonpayable",
					"type": "function"
				},
				{
					"constant": true,
					"inputs": [],
					"name": "approver",
					"outputs": [
						{
							"internalType": "address",
							"name": "",
							"type": "address"
						}
					],
					"payable": false,
					"stateMutability": "view",
					"type": "function"
				},
				{
					"constant": false,
					"inputs": [
						{
							"internalType": "address",
							"name": "_sender",
							"type": "address"
						},
						{
							"internalType": "address payable",
							"name": "_receiver",
							"type": "address"
						},
						{
							"internalType": "address",
							"name": "_approver",
							"type": "address"
						},
						{
							"internalType": "uint256",
							"name": "_amount",
							"type": "uint256"
						}
					],
					"name": "deposit",
					"outputs": [],
					"payable": true,
					"stateMutability": "payable",
					"type": "function"
				},
				{
					"constant": true,
					"inputs": [],
					"name": "receiver",
					"outputs": [
						{
							"internalType": "address payable",
							"name": "",
							"type": "address"
						}
					],
					"payable": false,
					"stateMutability": "view",
					"type": "function"
				},
				{
					"constant": true,
					"inputs": [],
					"name": "sender",
					"outputs": [
						{
							"internalType": "address",
							"name": "",
							"type": "address"
						}
					],
					"payable": false,
					"stateMutability": "view",
					"type": "function"
				},
				{
					"constant": true,
					"inputs": [],
					"name": "viewApprover",
					"outputs": [
						{
							"internalType": "address",
							"name": "",
							"type": "address"
						}
					],
					"payable": false,
					"stateMutability": "view",
					"type": "function"
				}
			],
			"devdoc": {
				"methods": {}
			},
			"evm": {
				"assembly": "    /* \"contracts/SendMoneyWithApproval.sol\":26:717  contract SendMoneyWithApproval\r... */\n  mstore(0x40, 0x80)\n  callvalue\n    /* \"--CODEGEN--\":8:17   */\n  dup1\n    /* \"--CODEGEN--\":5:7   */\n  iszero\n  tag_1\n  jumpi\n    /* \"--CODEGEN--\":30:31   */\n  0x00\n    /* \"--CODEGEN--\":27:28   */\n  dup1\n    /* \"--CODEGEN--\":20:32   */\n  revert\n    /* \"--CODEGEN--\":5:7   */\ntag_1:\n    /* \"contracts/SendMoneyWithApproval.sol\":26:717  contract SendMoneyWithApproval\r... */\n  pop\n  dataSize(sub_0)\n  dup1\n  dataOffset(sub_0)\n  0x00\n  codecopy\n  0x00\n  return\nstop\n\nsub_0: assembly {\n        /* \"contracts/SendMoneyWithApproval.sol\":26:717  contract SendMoneyWithApproval\r... */\n      mstore(0x40, 0x80)\n      jumpi(tag_1, lt(calldatasize, 0x04))\n      shr(0xe0, calldataload(0x00))\n      dup1\n      0x67e404ce\n      gt\n      tag_9\n      jumpi\n      dup1\n      0x67e404ce\n      eq\n      tag_5\n      jumpi\n      dup1\n      0xaa8c217c\n      eq\n      tag_6\n      jumpi\n      dup1\n      0xd93ce89c\n      eq\n      tag_7\n      jumpi\n      dup1\n      0xf7260d3e\n      eq\n      tag_8\n      jumpi\n      jump(tag_1)\n    tag_9:\n      dup1\n      0x0284c3f5\n      eq\n      tag_2\n      jumpi\n      dup1\n      0x12424e3f\n      eq\n      tag_3\n      jumpi\n      dup1\n      0x141a8dd8\n      eq\n      tag_4\n      jumpi\n    tag_1:\n      stop\n        /* \"contracts/SendMoneyWithApproval.sol\":221:438  function deposit(address _sender, address payable _receiver, address _approver, uint _amount) external payable {\r... */\n    tag_2:\n      tag_1\n      0x04\n      dup1\n      calldatasize\n      sub\n        /* \"--CODEGEN--\":13:16   */\n      0x80\n        /* \"--CODEGEN--\":8:11   */\n      dup2\n        /* \"--CODEGEN--\":5:17   */\n      lt\n        /* \"--CODEGEN--\":2:4   */\n      iszero\n      tag_13\n      jumpi\n        /* \"--CODEGEN--\":30:31   */\n      0x00\n        /* \"--CODEGEN--\":27:28   */\n      dup1\n        /* \"--CODEGEN--\":20:32   */\n      revert\n        /* \"--CODEGEN--\":2:4   */\n    tag_13:\n      pop\n      sub(shl(0xa0, 0x01), 0x01)\n        /* \"contracts/SendMoneyWithApproval.sol\":221:438  function deposit(address _sender, address payable _receiver, address _approver, uint _amount) external payable {\r... */\n      dup2\n      calldataload\n      dup2\n      and\n      swap2\n      0x20\n      dup2\n      add\n      calldataload\n      dup3\n      and\n      swap2\n      0x40\n      dup3\n      add\n      calldataload\n      and\n      swap1\n      0x60\n      add\n      calldataload\n      tag_14\n      jump\t// in\n        /* \"contracts/SendMoneyWithApproval.sol\":533:615  function approve() external {  \r... */\n    tag_3:\n      callvalue\n        /* \"--CODEGEN--\":8:17   */\n      dup1\n        /* \"--CODEGEN--\":5:7   */\n      iszero\n      tag_15\n      jumpi\n        /* \"--CODEGEN--\":30:31   */\n      0x00\n        /* \"--CODEGEN--\":27:28   */\n      dup1\n        /* \"--CODEGEN--\":20:32   */\n      revert\n        /* \"--CODEGEN--\":5:7   */\n    tag_15:\n        /* \"contracts/SendMoneyWithApproval.sol\":533:615  function approve() external {  \r... */\n      pop\n      tag_1\n      tag_17\n      jump\t// in\n        /* \"contracts/SendMoneyWithApproval.sol\":131:154  address public approver */\n    tag_4:\n      callvalue\n        /* \"--CODEGEN--\":8:17   */\n      dup1\n        /* \"--CODEGEN--\":5:7   */\n      iszero\n      tag_18\n      jumpi\n        /* \"--CODEGEN--\":30:31   */\n      0x00\n        /* \"--CODEGEN--\":27:28   */\n      dup1\n        /* \"--CODEGEN--\":20:32   */\n      revert\n        /* \"--CODEGEN--\":5:7   */\n    tag_18:\n        /* \"contracts/SendMoneyWithApproval.sol\":131:154  address public approver */\n      pop\n      tag_19\n      tag_20\n      jump\t// in\n    tag_19:\n      0x40\n      dup1\n      mload\n      sub(shl(0xa0, 0x01), 0x01)\n      swap1\n      swap3\n      and\n      dup3\n      mstore\n      mload\n      swap1\n      dup2\n      swap1\n      sub\n      0x20\n      add\n      swap1\n      return\n        /* \"contracts/SendMoneyWithApproval.sol\":65:86  address public sender */\n    tag_5:\n      callvalue\n        /* \"--CODEGEN--\":8:17   */\n      dup1\n        /* \"--CODEGEN--\":5:7   */\n      iszero\n      tag_21\n      jumpi\n        /* \"--CODEGEN--\":30:31   */\n      0x00\n        /* \"--CODEGEN--\":27:28   */\n      dup1\n        /* \"--CODEGEN--\":20:32   */\n      revert\n        /* \"--CODEGEN--\":5:7   */\n    tag_21:\n        /* \"contracts/SendMoneyWithApproval.sol\":65:86  address public sender */\n      pop\n      tag_19\n      tag_23\n      jump\t// in\n        /* \"contracts/SendMoneyWithApproval.sol\":161:179  uint public amount */\n    tag_6:\n      callvalue\n        /* \"--CODEGEN--\":8:17   */\n      dup1\n        /* \"--CODEGEN--\":5:7   */\n      iszero\n      tag_24\n      jumpi\n        /* \"--CODEGEN--\":30:31   */\n      0x00\n        /* \"--CODEGEN--\":27:28   */\n      dup1\n        /* \"--CODEGEN--\":20:32   */\n      revert\n        /* \"--CODEGEN--\":5:7   */\n    tag_24:\n        /* \"contracts/SendMoneyWithApproval.sol\":161:179  uint public amount */\n      pop\n      tag_25\n      tag_26\n      jump\t// in\n    tag_25:\n      0x40\n      dup1\n      mload\n      swap2\n      dup3\n      mstore\n      mload\n      swap1\n      dup2\n      swap1\n      sub\n      0x20\n      add\n      swap1\n      return\n        /* \"contracts/SendMoneyWithApproval.sol\":444:528  function viewApprover() external view returns(address) {\r... */\n    tag_7:\n      callvalue\n        /* \"--CODEGEN--\":8:17   */\n      dup1\n        /* \"--CODEGEN--\":5:7   */\n      iszero\n      tag_27\n      jumpi\n        /* \"--CODEGEN--\":30:31   */\n      0x00\n        /* \"--CODEGEN--\":27:28   */\n      dup1\n        /* \"--CODEGEN--\":20:32   */\n      revert\n        /* \"--CODEGEN--\":5:7   */\n    tag_27:\n        /* \"contracts/SendMoneyWithApproval.sol\":444:528  function viewApprover() external view returns(address) {\r... */\n      pop\n      tag_19\n      tag_29\n      jump\t// in\n        /* \"contracts/SendMoneyWithApproval.sol\":93:124  address payable public receiver */\n    tag_8:\n      callvalue\n        /* \"--CODEGEN--\":8:17   */\n      dup1\n        /* \"--CODEGEN--\":5:7   */\n      iszero\n      tag_30\n      jumpi\n        /* \"--CODEGEN--\":30:31   */\n      0x00\n        /* \"--CODEGEN--\":27:28   */\n      dup1\n        /* \"--CODEGEN--\":20:32   */\n      revert\n        /* \"--CODEGEN--\":5:7   */\n    tag_30:\n        /* \"contracts/SendMoneyWithApproval.sol\":93:124  address payable public receiver */\n      pop\n      tag_19\n      tag_32\n      jump\t// in\n        /* \"contracts/SendMoneyWithApproval.sol\":221:438  function deposit(address _sender, address payable _receiver, address _approver, uint _amount) external payable {\r... */\n    tag_14:\n        /* \"contracts/SendMoneyWithApproval.sol\":339:345  sender */\n      0x00\n        /* \"contracts/SendMoneyWithApproval.sol\":339:355  sender = _sender */\n      dup1\n      sload\n      not(sub(shl(0xa0, 0x01), 0x01))\n      swap1\n      dup2\n      and\n      sub(shl(0xa0, 0x01), 0x01)\n      swap7\n      dup8\n      and\n      or\n      swap1\n      swap2\n      sstore\n      0x01\n        /* \"contracts/SendMoneyWithApproval.sol\":362:382  receiver = _receiver */\n      dup1\n      sload\n      dup3\n      and\n      swap5\n      dup7\n      and\n      swap5\n      swap1\n      swap5\n      or\n      swap1\n      swap4\n      sstore\n        /* \"contracts/SendMoneyWithApproval.sol\":389:397  approver */\n      0x02\n        /* \"contracts/SendMoneyWithApproval.sol\":389:409  approver = _approver */\n      dup1\n      sload\n      swap1\n      swap4\n      and\n      swap2\n      swap1\n      swap4\n      and\n      or\n      swap1\n      sstore\n        /* \"contracts/SendMoneyWithApproval.sol\":416:422  amount */\n      0x03\n        /* \"contracts/SendMoneyWithApproval.sol\":416:432  amount = _amount */\n      sstore\n        /* \"contracts/SendMoneyWithApproval.sol\":221:438  function deposit(address _sender, address payable _receiver, address _approver, uint _amount) external payable {\r... */\n      jump\t// out\n        /* \"contracts/SendMoneyWithApproval.sol\":533:615  function approve() external {  \r... */\n    tag_17:\n        /* \"contracts/SendMoneyWithApproval.sol\":571:579  receiver */\n      sload(0x01)\n        /* \"contracts/SendMoneyWithApproval.sol\":589:595  amount */\n      sload(0x03)\n        /* \"contracts/SendMoneyWithApproval.sol\":571:608  receiver.transfer(amount * (1 ether)) */\n      mload(0x40)\n      sub(shl(0xa0, 0x01), 0x01)\n        /* \"contracts/SendMoneyWithApproval.sol\":571:579  receiver */\n      swap1\n      swap3\n      and\n      swap2\n        /* \"contracts/SendMoneyWithApproval.sol\":599:606  1 ether */\n      0x0de0b6b3a7640000\n        /* \"contracts/SendMoneyWithApproval.sol\":589:607  amount * (1 ether) */\n      swap1\n      swap2\n      mul\n        /* \"contracts/SendMoneyWithApproval.sol\":571:608  receiver.transfer(amount * (1 ether)) */\n      dup1\n      iszero\n      0x08fc\n      mul\n      swap2\n        /* \"contracts/SendMoneyWithApproval.sol\":571:579  receiver */\n      0x00\n        /* \"contracts/SendMoneyWithApproval.sol\":571:608  receiver.transfer(amount * (1 ether)) */\n      dup2\n        /* \"contracts/SendMoneyWithApproval.sol\":571:579  receiver */\n      dup2\n        /* \"contracts/SendMoneyWithApproval.sol\":571:608  receiver.transfer(amount * (1 ether)) */\n      dup2\n        /* \"contracts/SendMoneyWithApproval.sol\":589:607  amount * (1 ether) */\n      dup6\n        /* \"contracts/SendMoneyWithApproval.sol\":571:579  receiver */\n      dup9\n        /* \"contracts/SendMoneyWithApproval.sol\":571:608  receiver.transfer(amount * (1 ether)) */\n      dup9\n      call\n      swap4\n      pop\n      pop\n      pop\n      pop\n      iszero\n        /* \"--CODEGEN--\":8:17   */\n      dup1\n        /* \"--CODEGEN--\":5:7   */\n      iszero\n      tag_35\n      jumpi\n        /* \"--CODEGEN--\":45:61   */\n      returndatasize\n        /* \"--CODEGEN--\":42:43   */\n      0x00\n        /* \"--CODEGEN--\":39:40   */\n      dup1\n        /* \"--CODEGEN--\":24:62   */\n      returndatacopy\n        /* \"--CODEGEN--\":77:93   */\n      returndatasize\n        /* \"--CODEGEN--\":74:75   */\n      0x00\n        /* \"--CODEGEN--\":67:94   */\n      revert\n        /* \"--CODEGEN--\":5:7   */\n    tag_35:\n        /* \"contracts/SendMoneyWithApproval.sol\":571:608  receiver.transfer(amount * (1 ether)) */\n      pop\n        /* \"contracts/SendMoneyWithApproval.sol\":533:615  function approve() external {  \r... */\n      jump\t// out\n        /* \"contracts/SendMoneyWithApproval.sol\":131:154  address public approver */\n    tag_20:\n      and(sub(shl(0xa0, 0x01), 0x01), sload(0x02))\n      dup2\n      jump\t// out\n        /* \"contracts/SendMoneyWithApproval.sol\":65:86  address public sender */\n    tag_23:\n      and(sub(shl(0xa0, 0x01), 0x01), sload(0x00))\n      dup2\n      jump\t// out\n        /* \"contracts/SendMoneyWithApproval.sol\":161:179  uint public amount */\n    tag_26:\n      sload(0x03)\n      dup2\n      jump\t// out\n        /* \"contracts/SendMoneyWithApproval.sol\":444:528  function viewApprover() external view returns(address) {\r... */\n    tag_29:\n        /* \"contracts/SendMoneyWithApproval.sol\":513:521  approver */\n      and(sub(shl(0xa0, 0x01), 0x01), sload(0x02))\n        /* \"contracts/SendMoneyWithApproval.sol\":444:528  function viewApprover() external view returns(address) {\r... */\n      swap1\n      jump\t// out\n        /* \"contracts/SendMoneyWithApproval.sol\":93:124  address payable public receiver */\n    tag_32:\n      and(sub(shl(0xa0, 0x01), 0x01), sload(0x01))\n      dup2\n      jump\t// out\n\n    auxdata: 0xa265627a7a72315820bad27e71d7980b29a39027101ef244108f8eaf59bc4e1b47341e93a428d50c2564736f6c63430005110032\n}\n",
				"bytecode": {
					"linkReferences": {},
					"object": "608060405234801561001057600080fd5b5061025d806100206000396000f3fe6080604052600436106100705760003560e01c806367e404ce1161004e57806367e404ce146100f4578063aa8c217c14610109578063d93ce89c14610130578063f7260d3e1461014557610070565b80630284c3f51461007257806312424e3f146100ae578063141a8dd8146100c3575b005b6100706004803603608081101561008857600080fd5b506001600160a01b0381358116916020810135821691604082013516906060013561015a565b3480156100ba57600080fd5b5061007061019c565b3480156100cf57600080fd5b506100d86101e6565b604080516001600160a01b039092168252519081900360200190f35b34801561010057600080fd5b506100d86101f5565b34801561011557600080fd5b5061011e610204565b60408051918252519081900360200190f35b34801561013c57600080fd5b506100d861020a565b34801561015157600080fd5b506100d8610219565b600080546001600160a01b03199081166001600160a01b0396871617909155600180548216948616949094179093556002805490931691909316179055600355565b6001546003546040516001600160a01b0390921691670de0b6b3a764000090910280156108fc02916000818181858888f193505050501580156101e3573d6000803e3d6000fd5b50565b6002546001600160a01b031681565b6000546001600160a01b031681565b60035481565b6002546001600160a01b031690565b6001546001600160a01b03168156fea265627a7a72315820bad27e71d7980b29a39027101ef244108f8eaf59bc4e1b47341e93a428d50c2564736f6c63430005110032",
					"opcodes": "PUSH1 0x80 PUSH1 0x40 MSTORE CALLVALUE DUP1 ISZERO PUSH2 0x10 JUMPI PUSH1 0x0 DUP1 REVERT JUMPDEST POP PUSH2 0x25D DUP1 PUSH2 0x20 PUSH1 0x0 CODECOPY PUSH1 0x0 RETURN INVALID PUSH1 0x80 PUSH1 0x40 MSTORE PUSH1 0x4 CALLDATASIZE LT PUSH2 0x70 JUMPI PUSH1 0x0 CALLDATALOAD PUSH1 0xE0 SHR DUP1 PUSH4 0x67E404CE GT PUSH2 0x4E JUMPI DUP1 PUSH4 0x67E404CE EQ PUSH2 0xF4 JUMPI DUP1 PUSH4 0xAA8C217C EQ PUSH2 0x109 JUMPI DUP1 PUSH4 0xD93CE89C EQ PUSH2 0x130 JUMPI DUP1 PUSH4 0xF7260D3E EQ PUSH2 0x145 JUMPI PUSH2 0x70 JUMP JUMPDEST DUP1 PUSH4 0x284C3F5 EQ PUSH2 0x72 JUMPI DUP1 PUSH4 0x12424E3F EQ PUSH2 0xAE JUMPI DUP1 PUSH4 0x141A8DD8 EQ PUSH2 0xC3 JUMPI JUMPDEST STOP JUMPDEST PUSH2 0x70 PUSH1 0x4 DUP1 CALLDATASIZE SUB PUSH1 0x80 DUP2 LT ISZERO PUSH2 0x88 JUMPI PUSH1 0x0 DUP1 REVERT JUMPDEST POP PUSH1 0x1 PUSH1 0x1 PUSH1 0xA0 SHL SUB DUP2 CALLDATALOAD DUP2 AND SWAP2 PUSH1 0x20 DUP2 ADD CALLDATALOAD DUP3 AND SWAP2 PUSH1 0x40 DUP3 ADD CALLDATALOAD AND SWAP1 PUSH1 0x60 ADD CALLDATALOAD PUSH2 0x15A JUMP JUMPDEST CALLVALUE DUP1 ISZERO PUSH2 0xBA JUMPI PUSH1 0x0 DUP1 REVERT JUMPDEST POP PUSH2 0x70 PUSH2 0x19C JUMP JUMPDEST CALLVALUE DUP1 ISZERO PUSH2 0xCF JUMPI PUSH1 0x0 DUP1 REVERT JUMPDEST POP PUSH2 0xD8 PUSH2 0x1E6 JUMP JUMPDEST PUSH1 0x40 DUP1 MLOAD PUSH1 0x1 PUSH1 0x1 PUSH1 0xA0 SHL SUB SWAP1 SWAP3 AND DUP3 MSTORE MLOAD SWAP1 DUP2 SWAP1 SUB PUSH1 0x20 ADD SWAP1 RETURN JUMPDEST CALLVALUE DUP1 ISZERO PUSH2 0x100 JUMPI PUSH1 0x0 DUP1 REVERT JUMPDEST POP PUSH2 0xD8 PUSH2 0x1F5 JUMP JUMPDEST CALLVALUE DUP1 ISZERO PUSH2 0x115 JUMPI PUSH1 0x0 DUP1 REVERT JUMPDEST POP PUSH2 0x11E PUSH2 0x204 JUMP JUMPDEST PUSH1 0x40 DUP1 MLOAD SWAP2 DUP3 MSTORE MLOAD SWAP1 DUP2 SWAP1 SUB PUSH1 0x20 ADD SWAP1 RETURN JUMPDEST CALLVALUE DUP1 ISZERO PUSH2 0x13C JUMPI PUSH1 0x0 DUP1 REVERT JUMPDEST POP PUSH2 0xD8 PUSH2 0x20A JUMP JUMPDEST CALLVALUE DUP1 ISZERO PUSH2 0x151 JUMPI PUSH1 0x0 DUP1 REVERT JUMPDEST POP PUSH2 0xD8 PUSH2 0x219 JUMP JUMPDEST PUSH1 0x0 DUP1 SLOAD PUSH1 0x1 PUSH1 0x1 PUSH1 0xA0 SHL SUB NOT SWAP1 DUP2 AND PUSH1 0x1 PUSH1 0x1 PUSH1 0xA0 SHL SUB SWAP7 DUP8 AND OR SWAP1 SWAP2 SSTORE PUSH1 0x1 DUP1 SLOAD DUP3 AND SWAP5 DUP7 AND SWAP5 SWAP1 SWAP5 OR SWAP1 SWAP4 SSTORE PUSH1 0x2 DUP1 SLOAD SWAP1 SWAP4 AND SWAP2 SWAP1 SWAP4 AND OR SWAP1 SSTORE PUSH1 0x3 SSTORE JUMP JUMPDEST PUSH1 0x1 SLOAD PUSH1 0x3 SLOAD PUSH1 0x40 MLOAD PUSH1 0x1 PUSH1 0x1 PUSH1 0xA0 SHL SUB SWAP1 SWAP3 AND SWAP2 PUSH8 0xDE0B6B3A7640000 SWAP1 SWAP2 MUL DUP1 ISZERO PUSH2 0x8FC MUL SWAP2 PUSH1 0x0 DUP2 DUP2 DUP2 DUP6 DUP9 DUP9 CALL SWAP4 POP POP POP POP ISZERO DUP1 ISZERO PUSH2 0x1E3 JUMPI RETURNDATASIZE PUSH1 0x0 DUP1 RETURNDATACOPY RETURNDATASIZE PUSH1 0x0 REVERT JUMPDEST POP JUMP JUMPDEST PUSH1 0x2 SLOAD PUSH1 0x1 PUSH1 0x1 PUSH1 0xA0 SHL SUB AND DUP2 JUMP JUMPDEST PUSH1 0x0 SLOAD PUSH1 0x1 PUSH1 0x1 PUSH1 0xA0 SHL SUB AND DUP2 JUMP JUMPDEST PUSH1 0x3 SLOAD DUP2 JUMP JUMPDEST PUSH1 0x2 SLOAD PUSH1 0x1 PUSH1 0x1 PUSH1 0xA0 SHL SUB AND SWAP1 JUMP JUMPDEST PUSH1 0x1 SLOAD PUSH1 0x1 PUSH1 0x1 PUSH1 0xA0 SHL SUB AND DUP2 JUMP INVALID LOG2 PUSH6 0x627A7A723158 KECCAK256 0xBA 0xD2 PUSH31 0x71D7980B29A39027101EF244108F8EAF59BC4E1B47341E93A428D50C256473 PUSH16 0x6C634300051100320000000000000000 "
				},
				"gasEstimates": {
					"creation": {
						"codeDepositCost": "121000",
						"executionCost": "165",
						"totalCost": "121165"
					},
					"external": {
						"": "141",
						"amount()": "1020",
						"approve()": "infinite",
						"approver()": "1082",
						"deposit(address,address,address,uint256)": "82779",
						"receiver()": "1103",
						"sender()": "1037",
						"viewApprover()": "1081"
					}
				},
				"methodIdentifiers": {
					"amount()": "aa8c217c",
					"approve()": "12424e3f",
					"approver()": "141a8dd8",
					"deposit(address,address,address,uint256)": "0284c3f5",
					"receiver()": "f7260d3e",
					"sender()": "67e404ce",
					"viewApprover()": "d93ce89c"
				}
			},
			"storageLayout": {
				"storage": [
					{
						"astId": 3,
						"contract": "contracts/SendMoneyWithApproval.sol:SendMoneyWithApproval",
						"label": "sender",
						"offset": 0,
						"slot": "0",
						"type": "t_address"
					},
					{
						"astId": 5,
						"contract": "contracts/SendMoneyWithApproval.sol:SendMoneyWithApproval",
						"label": "receiver",
						"offset": 0,
						"slot": "1",
						"type": "t_address_payable"
					},
					{
						"astId": 7,
						"contract": "contracts/SendMoneyWithApproval.sol:SendMoneyWithApproval",
						"label": "approver",
						"offset": 0,
						"slot": "2",
						"type": "t_address"
					},
					{
						"astId": 9,
						"contract": "contracts/SendMoneyWithApproval.sol:SendMoneyWithApproval",
						"label": "amount",
						"offset": 0,
						"slot": "3",
						"type": "t_uint256"
					}
				],
				"types": {
					"t_address": {
						"encoding": "inplace",
						"label": "address",
						"numberOfBytes": "20"
					},
					"t_address_payable": {
						"encoding": "inplace",
						"label": "address payable",
						"numberOfBytes": "20"
					},
					"t_uint256": {
						"encoding": "inplace",
						"label": "uint256",
						"numberOfBytes": "32"
					}
				}
			},
			"userdoc": {
				"methods": {}
			}
		}
	}
}